:020000040800F2
:10000000284C002099010008C9360008512C00082E
:10001000C5360008890B0008013E000800000000FA
:1000200000000000000000000000000001010008C6
:100030009D0B00080000000045010008353700084E
:10004000B3010008B3010008B3010008B3010008C0
:10005000B3010008B3010008B3010008B3010008B0
:10006000B3010008B3010008B3010008B3010008A0
:10007000B3010008B3010008B30100088D0B0008AC
:10008000B3010008B3010008B3010008B301000880
:10009000B3010008B3010008B3010008B301000870
:1000A000B3010008B3010008B3010008B301000860
:1000B000B3010008B301000845380008B301000887
:1000C000B3010008B3010008B3010008B301000840
:1000D000B3010008E13D0008F13D0008B30100084C
:1000E000B3010008B3010008B3010008DFF80CD029
:1000F00000F0F8FC004800474D4F0008284C002055
:10010000224B19680868B0E8F00F80F30988BFF344
:100110006F8F4FF0000080F311884EF00D0E704786
:100120000000000006480068006880F3088862B696
:1001300061B6BFF34F8FBFF36F8F00DF00BF00BF0B
:1001400008ED00E0EFF30980BFF36F8F0F4B1A68E3
:1001500020E9F00F106008B54FF0500080F31188CF
:10016000BFF34F8FBFF36F8F05F084FA4FF000009D
:1001700080F31188BDE8084019680868B0E8F00FFE
:1001800080F30988BFF36F8F704700BF2000002005
:10019000EFF3058070470000064880470648004797
:1001A000FEE7FEE7FEE7FEE7FEE7FEE7FEE7FEE727
:1001B000FEE7FEE7ED370008ED000008202A04DB2B
:1001C000203A21FA02F00021704721FA02F3D040D0
:1001D000C2F120029140084319467047D2B201E0B3
:1001E00000F8012B491EFBD270470022F6E710B53C
:1001F00013460A4604461946FFF7F0FF204610BD95
:10020000F0B480EA0102D40F4200B2EB410F02D2F7
:100210000246084611464A0042D0C30DDDB2C1F382
:10022000C752AD1A202D35DAC1F3160141F4000290
:1002300004B15242C5F1200602FA06F12A411044E7
:10024000B3EBD05F23D0C4B1012DA0EBC35009DCC8
:10025000F0BC4FF0004202EAC352DBB200F50000EE
:1002600000F06DBB400000F1807000EBC350A0F1C6
:10027000807040EAD170490009E0490841EAC07144
:10028000A0EBC35000F50000400800EBC350F0BCE9
:1002900000F04CBB6142012202EB4101001BF6E77A
:1002A000F0BC704781F00041AAE780F00040A7E76A
:1002B00080EA010210B502F00043400022D04A005B
:1002C0001FD0010E01EB1261C0F35600C2F35602BB
:1002D00040F4000042F40002A0FB022000047F3939
:1002E000140400D0401C50EA124001D44000491EC2
:1002F000C2B20C0604EBD010401C4008802A02D089
:1003000003E0002010BD20F00100002900DA0020E9
:10031000184310BD30B480EA010202F0004530F00D
:10032000004221F0004013D090B1C30DD40DC2F3B0
:100330001601C0F31600E41A41F4000140F4000273
:100340007D34914201D3641C00E04900002C02DAA4
:1003500030BC002070474FF400000023914201D3CD
:10036000891A034340084FEA4101F7D151B1914244
:1003700002D14FF0004105E002D24FF0010101E04F
:100380006FF0010103EBC450284430BC00F0CEBA3A
:100390002DE9FE4F804681EA0300C00F0C46009015
:1003A00021F0004123F00045B8EB0200A94105D23D
:1003B0004046214690461C460B46024623F000402C
:1003C000104347D0270DC7F30A00C3F30A51029028
:1003D000401A019040286BDAC3F3130040F4801BED
:1003E0000098924620B10023D2EB030A63EB0B0B7B
:1003F00001985946C0F14002504600F076FA064690
:100400000D4650465946019A00F07EFA10EB08005E
:100410006141002487EA115284EAE7731A4340D00D
:10042000009A62B3019A012A4FEA075215DC001BB9
:1004300061EB02014FF0004202EA0752CDE90042AF
:10044000001C41F5801132462B4600F0E4FA03B05F
:10045000BDE8F08F40462146F9E7001B61EB020141
:10046000001C41F5801300185B412018A2F500170D
:1004700047EB030140EAD570B6196D4111E06D08F4
:100480004FEA360645EAC0754FEA0752001B61EB9A
:100490000201001C41F5801149084FEA30000019A3
:1004A000514132462B4603B0BDE8F04F00F0A4BAEC
:1004B0000098012240000023D0EB020263EBE073BE
:1004C000009821464FEAE074B8EB000061EB0401AC
:1004D000E9E783F000435BE781F0004158E72DE94D
:1004E000FE4F81EA030404F0004421F0004100942F
:1004F0004FF0000B23F0004350EA01045ED052EAB3
:1005000003045BD0C3F30A54C1F30A552C44A4F28C
:10051000F3340194A0FB0254C1F3130141F48011A0
:10052000C3F3130343F4801301FB024400FB034EA7
:10053000840A970A44EA815447EA8357A4FB076870
:1005400002958D0A05FB07854FEA932C04FB0C549A
:100550002705029D4FEA065847EA1637B5EB08050E
:100560006EEB070C870E920E47EA811742EA831260
:10057000A7FB0201B6EB0B0164EB00042B0D43EA71
:100580000C335E1844EB1C50DA465146E7FB02017F
:10059000C5F313044FEA0B3343EA14534FEA043212
:1005A000019C43EA0603A4F10C040294009CCDE9EB
:1005B00000B400F030FA03B0BDE8F08F002001462F
:1005C000F9E72DE9F04D81EA030404F0004B21F036
:1005D000004514464FF0000A23F0004150EA05029E
:1005E00020D054EA01021DD0C5F30A570246C5F3D4
:1005F0001303C1F31300C1F30A5640F4801543F40A
:100600008013A7EB0608101BD64608F2FD3873EBE3
:10061000050002D308F1010801E092185B41B8F12E
:10062000000F03DA00200146BDE8F08D00204FF4F2
:100630008011064684460EE0171B73EB050705D3B1
:10064000121B63EB050306434CEA010C49084FEA11
:10065000300092185B4150EA0107EDD152EA0300E5
:1006600012D082EA040083EA0501084305D0101B7A
:10067000AB4106D20122002306E000224FF00043E6
:1006800002E06FF0010253101AEB06004CEB085128
:1006900010EB0A0041EB0B01BDE8F04D00F0ACB9E6
:1006A000C10F80EAE0700844CA079623002100F0D9
:1006B00046B996230022114600F041B90EB5C10F8C
:1006C00080EAE0700844CA07002140F233438DE815
:1006D0000E000A460B4600F09EF903B000BD00F084
:1006E000004220F00040C10DC0F3160040F40000AD
:1006F0007F2901DA00207047962903DCC1F19601B9
:10070000C84001E096398840002AF4D04042704742
:1007100020F00040C10DC0F3160040F400007F2916
:1007200001DA00207047962903DCC1F19601C84028
:10073000704796398840704770B5C1F30A5201F08E
:1007400000450024C1F3130140F2FF3341F480114E
:100750009A4201DA002070BD40F233439A42A2F27D
:10076000334203DC5242FFF729FD00E090402C4366
:10077000F1D0404270BD00F0004230F000400AD09D
:10078000C10D01F56071C0F3160042EA0151C208C3
:1007900040071143704700200146704730B5041EE2
:1007A00071F1000404DB4FF00044404264EB0101AE
:1007B000141E73F1000405DB1C464FF00043524247
:1007C00063EB04038B4208BF824230BD30B5041E88
:1007D00071F1000404DB4FF00044404264EB01017E
:1007E000141E73F1000405DB1C464FF00043524217
:1007F00063EB0403994208BF904230BD01F000430F
:1008000030B421F0004150EA010206D00A0DA2F5F1
:100810006072C1F31301002A02DC30BC0020704773
:10082000440F44EAC104C100E01830BC00EBC250E0
:1008300000F07CB8002801DBC0F10040002901DB9A
:10084000C1F1004181427047002801DBC0F1004046
:10085000002901DBC1F100418842704730B50B46E9
:10086000014600202022012409E021FA02F59D42E0
:1008700005D303FA02F5491B04FA02F52844151EB4
:10088000A2F10102F1DC30BD2DE9F05F0546002048
:1008900092469B4688460646814640241BE02846F1
:1008A000414647462246FFF789FC53465A46C01A3E
:1008B000914110D311461846224600F016F82D1A21
:1008C00067EB01084F4622460120002100F00DF899
:1008D00017EB00094E41201EA4F10104DFDC48465D
:1008E00031462A464346BDE8F09F202A04DB203AE1
:1008F00000FA02F1002070479140C2F1200320FA73
:1009000003F3194390407047202A06DBCB17203AA7
:1009100041FA02F043EAE07306E041FA02F3D04004
:10092000C2F1200291400843194670470029A8BF30
:100930007047401C490008BF20F00100704710B408
:10094000B0FA80FC00FA0CF050EA010404BF10BCBD
:10095000704749B1CCF1200421FA04F411FA0CF1EA
:1009600018BF012121430843A3EB0C01CB1D4FEA23
:1009700000614FEA102042BF002010BC704700EB1E
:10098000C35010440029A4BF10BC7047401C49004C
:1009900008BF20F0010010BC7047F0B4002802DC52
:1009A000F0BC00207047C0F3C751C0F3160040F4FC
:1009B0000000CA0701D14000491E3F2202EB610539
:1009C000002211464FF4000626FA01F31344D4180E
:1009D000844201D8001B1A464000491C1729F3DD48
:1009E0005100814202D24FF0FF3100E0002102EBC2
:1009F000C550F0BCFFF79ABF10B5141E73F1000488
:100A000008DA401C41F1000192185B411A4301D100
:100A100020F0010010BD2DE9F04D92469B4611B12A
:100A2000B1FA81F202E0B0FA80F220329046FFF78C
:100A30005CFF04460F4640EA0A0041EA0B015346B8
:100A40005A46084313D0114653EA010019D0C8F1A1
:100A500040025046FFF7B2FB05460E465046594647
:100A60004246FFF742FF084305D0012004E020463C
:100A70003946BDE8F08D0020054346EAE0762C4378
:100A800037430A986305E40AA0EB08000022FD0A38
:100A900044EA47540A3002D500200146E9E701053F
:100AA00010196941DDE9084500196941BDE8F04DBB
:100AB000A2E7C1F30A52C1F3130140F2FF3341F43C
:100AC00080119A4202DA00200146704740F2334317
:100AD0009A42A2F2334202DC5242FFF76FBBFFF7A9
:100AE00004BF0000064C074D06E0E06840F001033B
:100AF00094E8070098471034AC42F6D3FFF7FAFAAF
:100B00002C6900084C69000870B50446002520686F
:100B1000806800F00100F0B12068806820F00100DA
:100B20002168886000F086FE05460EE000F082FE37
:100B3000401B022809D9A06A40F01000A062E06AB8
:100B400040F00100E062012070BD2068806800F084
:100B500001000028EAD10020F6E7000000280DDBA4
:100B600064280BDA0649074A128831F8121042F25B
:100B7000107292FBF1F141439206516370470000FD
:100B8000E86800085C00002000BFFEE710B50248DE
:100B900000F09CFB10BD00002042002070470FB405
:100BA0007CB504460A990898FFF782FB0546099927
:100BB0000798FFF77DFB06462946FFF773FB009079
:100BC000DDE90801FFF774FB05460A990798FFF76E
:100BD0006FFB06462946FFF713FB0190DDE9000194
:100BE000C4E900017CBC5DF814FB00BFFEE7000017
:100BF0002DE9F04F91B0044600264FF400700E909E
:100C000040F2FF300D9000251CE0B5420FDA04EBF6
:100C1000C60103C9CDE9060104EBC60004EBC50219
:100C200006CA06C004EBC500DDE9061206C00E9F29
:100C300004E0F61B384607EBD0714F10B742F8DDE1
:100C40003E446D1C0D988542DFDB4FF480600F90B1
:100C500001200C9002E00C98401C0C900F9800EBC7
:100C6000D07149100F910129F5D188467BE0A8F198
:100C70000100022101FA00F9484609EBD0714FEA60
:100C8000610A4FF07E500A9000200B905046FFF70B
:100C900015FD02460B46CDE9000136483649FFF7FF
:100CA00090FCCDE9020103F0CFF8CDE90401FFF794
:100CB000A5FD08905046FFF701FD02460B46CDE921
:100CC00000012C482C49FFF77CFCCDE9020103F020
:100CD000CFF881F00041CDE90401FFF78FFD0990C5
:100CE00000263AE035462CE005EB0A0B0B9804EBA6
:100CF000CB0C00900A9B06A8DCE90012FFF74FFF1F
:100D000054F835000699FFF7CDFA44F83B0004EBA0
:100D1000C50207995068FFF7C5FA04EBCB0148609C
:100D200054F835000699FFF76BFA44F8350004EBE8
:100D3000C50207995068FFF763FA04EBC5014860E4
:100D40004D44B5F5806FCFDB099800900AA8089B49
:100D5000DDE90A12FFF723FF761CAAF10100B04279
:100D6000C0DA08F101080C98804580DD11B0BDE8BB
:100D7000F08F0000182D4454FB2109402DE9F84F55
:100D80000446884693469A46DDF82890009440E051
:100D900099F8000080283CDA99F800700D2F05D1F1
:100DA000009C08F110001FFA80F830E0202F03DDCE
:100DB000A7F1200087B200E00027002522E00026EE
:100DC0001CE005EB07101649095C8020304101400A
:100DD00041B108EB050291B2A21990B25A4600F057
:100DE0007EF809E0D34507D008EB050291B2A219BD
:100DF00090B2524600F073F8701CC6B2082EE0DBC9
:100E0000681CC5B2102DDADB04F1080084B209F1C8
:100E1000010999F800000028BAD1BDE8F88F000058
:100E2000485800082DE9FF4F83B08046894649465F
:100E3000404602F0ECF90598A0EB08050698A0EBF7
:100E40000906002D02DB0120029003E04FF0FF3085
:100E500002906D42002E02DB0120019003E04FF072
:100E6000FF30019076424FEA450A4FEA460BB54201
:100E700019DDABEB0504002712E049464046109A05
:100E800000F02DF8002C05DBA4EB0A04019848447F
:100E90001FFA80F95C44029840441FFA80F87F1CD6
:100EA000AF42EADD18E0AAEB0604002712E049464B
:100EB0004046109A00F013F8002C05DBA4EB0B045D
:100EC000029840441FFA80F85444019848441FFA9D
:100ED00080F97F1CB742EADD07B0BDE8F08FF0B5BE
:100EE00004460D4616462746C5F1800084B23D46AD
:100EF000681C83B2601C82B22946204602F05CF96D
:100F0000304601F0C7FFF0BD38B50246002300208F
:100F1000009000BF92F82400012801D1022038BDC2
:100F2000012082F8240000BF4868072812D2106808
:100F3000406B0C79641E04EB84051F24AC40A04375
:100F40000D796D1E05EB85050C68AC4020431468D7
:100F5000606327E048680D2812D21068006B0C7996
:100F6000E41F04EB84051F24AC40A0430D79ED1F62
:100F700005EB85050C68AC4020431468206311E044
:100F80001068C06A0C790D3C04EB84051F24AC404A
:100F9000A0430D790D3D05EB85050C68AC40204361
:100FA0001468E06208680A2812D31068C0680C78D8
:100FB0000A3C04EB44050724AC40A0430D780A3DED
:100FC00005EB45058C68AC4020431468E0600FE0F9
:100FD000106800690C7804EB44050724AC40A0437A
:100FE0000D7805EB45058C68AC4020431468206102
:100FF0000868102802D00868112827D1174C1068FB
:10100000A0421ED11068806800F40000F0B910689A
:10101000806840F400001468A0600868102815D1AA
:101020000F4800680F4CB0FBF4F000EB800040006C
:10103000009002E00098401E009000980028F9D12E
:1010400004E0906A40F020009062012300BF00207D
:1010500082F8240000BF184661E700000024014028
:101060006C00002040420F002DE9F04104460027AB
:1010700000250026A84614B90120BDE8F081A0682B
:1010800010B1207D00B100BFA06A30B90020E0623D
:1010900084F82400204600F089F82046FFF734FD4C
:1010A0000746A06A00F01000002873D1002F71D10C
:1010B000A06A20F4885040F00200A062E1696068F4
:1010C0000843217B40EA41000643A068B0F5807FD9
:1010D00002D0A068012802D14FF4807000E0002007
:1010E0000543207D012811D1207B38B9A069401E1D
:1010F0004FF4006141EA4030054307E0A06A40F048
:101100002000A062E06A40F00100E06220684068D0
:1011100020F469402843216848602068806821499C
:101120000840304321688860A068B0F5807F02D015
:10113000A068012802D14FF4807000E00020B0F5D3
:10114000807F03D1208A401E4FEA00582068C06A81
:1011500020F4700040EA08002168C86220688068B6
:1011600011490840B04208D10020E062A06A20F096
:10117000020040F00100A06211E0A06A20F002002D
:1011800040F01000A062E06A40F00100E062012738
:1011900005E0FFE7A06A40F01000A0620127384692
:1011A0006BE70000FDF7E1FFFE0E1FFF10B586B0F4
:1011B0000446002002900390049005901449206892
:1011C000884222D100BF1348806940F40070114961
:1011D00088610846806900F40070019000BF00BF7C
:1011E00000BF0846806940F00400886108468069B5
:1011F00000F00400019000BF00BF302002900320E7
:10120000039002A9044800F077F906B010BD000071
:1012100000240140001002400008014070B504465F
:10122000002594F82100022803D00420A0630125A2
:1012300048E02068006820F00E00216808602068FF
:10124000006820F00100216808601F49206888427A
:1012500001D1012026E01C4914312068884201D1C7
:1012600010201FE0184928312068884201D18015DC
:1012700018E015493C312068884201D1801411E002
:10128000114950312068884202D14FF4803009E082
:101290000D4964312068884202D14FF4801001E08A
:1012A0004FF08070084908394860012084F8210017
:1012B00000BF002084F8200000BF606B10B1204602
:1012C000616B8847284670BD0800024070B504462F
:1012D000E06B05682068066894F840100420884098
:1012E0002840002846D006F00400002842D020689C
:1012F000006800F0200028B92068006820F0040091
:101300002168086057492068884201D1042027E0FD
:10131000544914312068884201D1402020E05149CD
:1013200028312068884201D1001519E04D493C312F
:101330002068884202D14FF4804011E04949503181
:101340002068884202D14FF4802009E04549643189
:101350002068884202D14FF4800001E04FF08060A5
:10136000404908394860E06A00287AD02046E16A9E
:10137000884776E094F84010022088402840A0B3C7
:1013800006F0020088B32068006800F0200040B931
:101390002068006820F00A0021680860012084F8B5
:1013A000210030492068884201D1022028E02D49DF
:1013B00014312068884201D1202021E029492831B8
:1013C0002068884201D140151AE026493C31206846
:1013D000884202D14FF4005012E022495031206877
:1013E000884203D14FF400300AE017E01D49643110
:1013F0002068884202D14FF4001001E04FF00070E5
:1014000018490839486000BF002084F8200000BF58
:10141000A06A30B32046A16A884722E094F84010C1
:10142000082088402840E0B106F00800C8B12068D4
:10143000006820F00E002168086094F84010012038
:101440008840E16B48600120A06384F8210000BF60
:10145000002084F8200000BF206B10B12046216BD3
:10146000884770BD080002400146002209B90120EA
:101470007047164B0868C01A1423B0FBF3F08000C5
:10148000086412480838C863022081F821000868FF
:10149000026843F6F0708243D1E901031843CB6838
:1014A00018430B6918434B6918438B691843CB6980
:1014B000184302430868026000208863012081F815
:1014C0002100002081F8200000BFD1E70800024081
:1014D00070B5044600F0AEF906462546681C10B10A
:1014E00004480078054400BF00F0A4F9801BA8421E
:1014F000FAD370BD680000202DE9F84703460022AA
:1015000094466EE14FF0010808FA02F4D1F8008029
:1015100008EA0400A0427DD1DFF8DCA2D1F8048003
:10152000A8EB0A09D0453AD014DCB8F1030F50D02B
:1015300009DCB8F1000F31D0B8F1010F1CD0B8F1BF
:10154000020F49D120E0B8F1110F18D0B8F1120FF5
:1015500042D11EE0B9F5881F25D006DCB9F5803FE1
:1015600020D0B9F5801F37D11AE0B9F5001F18D087
:10157000B9F5041F30D117E0D1F80CC02DE0D1F837
:101580000C8008F1040C28E0D1F80C8008F1080C5C
:1015900023E0D1F80C8008F10C0C1EE000BF00BF66
:1015A00000BF00BF00BF00BFD1F80880B8F1000F36
:1015B00002D14FF0040C0BE0D1F80880B8F1010F14
:1015C00003D14FF0080C1C6102E04FF0080C5C6185
:1015D00003E04FF0000C00E000BF00BFFF2801D87F
:1015E000984601E003F104084646FF2802D84FEA76
:1015F000820803E0A2F108084FEA88084746D6F8B7
:1016000000804FF00F0909FA07F928EA09080CFAD7
:1016100007F900E088E048EA0908C6F80080D1F838
:10162000048008F08058B8F1805F7DD100BFDFF8FA
:10163000CC81D8F8188048F00108DFF8C091C9F8CB
:101640001880C846D8F8188008F00108CDF8008046
:1016500000BF00BF4FEAB9384FEA920958F8295045
:101660004FEA82784FEA18794FF00F0808FA09F824
:1016700025EA0805DFF88881434502D14FF00008CC
:1016800016E0DFF88081434502D14FF001080FE0FA
:10169000DFF87481434502D14FF0020808E0DFF81B
:1016A0006C81434502D14FF0030801E04FF004087C
:1016B0004FEA82794FEA197908FA09F848EA0505EC
:1016C000DFF84C814FEA920948F82950D1F804809C
:1016D00008F48038B8F5803F0AD1DFF83881D8F8AF
:1016E000008048EA0008DFF82C91C9F8008009E082
:1016F000DFF82081D8F8008028EA0008DFF814918C
:10170000C9F80080D1F8048008F40038B8F5003F2B
:1017100010D1DFF8008108F10408D8F8008048EA09
:101720000008DFF8F09000E05AE009F10409C9F878
:1017300000800DE0DFF8DC8008F10408D8F80080B4
:1017400028EA0008DFF8CC9009F10409C9F8008004
:10175000D1F8048008F48018B8F5801F0ED1DFF8A6
:10176000B48008F10808D8F8008048EA0008DFF8DB
:10177000A49009F10809C9F800800DE0DFF8948011
:1017800008F10808D8F8008028EA0008DFF88490FB
:1017900009F10809C9F80080D1F8048008F400189C
:1017A000B8F5001F0ED1DFF86C8008F10C08D8F8EE
:1017B000008048EA0008DFF85C9009F10C09C9F8DC
:1017C00000800DE0DFF84C8008F10C08D8F80080AC
:1017D00028EA0008DFF83C9009F10C09C9F80080FC
:1017E000521CD1F8008028FA02F8B8F1000F7FF4FB
:1017F00089AEBDE8F887000000001110001002401B
:1018000000080140000C014000100140001401409C
:101810000800014000040140024693680B400BB1F0
:10182000012000E0002070470AB1016101E00B04D3
:1018300003617047014800687047000060000020A5
:101840000348006803490978084401490860704763
:10185000600000206800002010B50848006840F0D3
:10186000100006490860032000F0CCF8002000F0CA
:1018700007F800F049F8002010BD000000200240E9
:1018800070B588B0044600250026002221461E209F
:1018900000F07AF81E2000F067F800BF1648C06913
:1018A00040F004001449C8610846C06900F0040013
:1018B000019000BF00BF02A903A800F015FA00F0D4
:1018C0003BFA45000D48B5FBF0F0461E0C480D49AB
:1018D000086040F2E7310B48C160466000210161B9
:1018E000816000F08FFD20B9064800F0BBFD08B014
:1018F00070BD0120FBE700000010024040420F00D5
:10190000000800406442002008B500BF1448806908
:1019100040F00100124988610846806900F001002A
:10192000009000BF00BF00BF0846C06940F0805073
:10193000C8610846C06900F08050009000BF00BF39
:1019400000220F21901E00F01FF800BF05494868D3
:1019500020F0E06040F00070486000BF08BD00006B
:10196000001002400000014001460846002809DB43
:1019700000F01F0301229A4043099B0003F1E0237A
:10198000C3F8002100BF70472DE9F05F80460D4687
:101990001646002702F088FB074639462A4633469A
:1019A00001F00700C0F1070ABAF1040F02D94FF0A5
:1019B000040A01E0C0F1070AD14600F1040ABAF1B5
:1019C000070F02D24FF0000A01E0A0F1030AD4464B
:1019D0004FF0010A0AFA09FAAAF1010A0AEA020A10
:1019E0000AFA0CFA4FF0010B0BFA0CFBABF1010BEE
:1019F0000BEA030B4AEA0B042146404602F05CFB6B
:101A0000BDE8F09F00BF00F00702064B19684FF6D3
:101A1000FF031940044B0B4343EA0221014B1960B9
:101A200000BF70470CED00E00000FA05F8B5044671
:101A300000260025207800F0010000286BD0002748
:101A40004348C06900F0805070B900BF4048C06989
:101A500040F080503E49C8610846C06900F080509F
:101A6000009000BF00BF01273A48006800F4807072
:101A7000B0B93848006840F4807036490860FFF714
:101A8000D9FE064606E0FFF7D5FE801B642801D983
:101A90000320F8BD2F48006800F480700028F2D0C1
:101AA0002B48006A00F440752DB3A08800F4407004
:101AB000A84220D02648006A20F44075012026491B
:101AC0000860002008602248056205F0010090B11E
:101AD000FFF7B0FE064608E0FFF7ACFE801B41F2C0
:101AE0008831884201D90320D3E71948006A00F001
:101AF00002000028F0D01648006A20F440706168A7
:101B0000084313490862012F04D10846C06920F038
:101B10008050C86100BF207800F00200022807D181
:101B20000B48406820F44040A168084308494860D9
:101B3000207800F01000102807D10548406820F4F4
:101B40008000E1680843024948600020A1E70000E6
:101B500000100240007000404004424270B504464C
:101B60000D460CB9012070BD5A48006800F007000E
:101B7000A8420ED25748006820F007002843554974
:101B800008600846006800F00700A84201D0012064
:101B9000E9E7207800F0020002281DD1207800F04B
:101BA0000400042805D14C48406840F4E0604A49EC
:101BB0004860207800F00800082805D146484068B1
:101BC00040F46050444948604348406820F0F000C9
:101BD000A168084340494860207800F0010078B3CC
:101BE0006068012806D13C48006800F4003090B9D4
:101BF0000120B8E76068022806D13748006800F085
:101C0000007040B90120AEE73348006800F00200E0
:101C100008B90120A7E73048406820F00300616858
:101C200008432D494860FFF705FE064609E0FFF727
:101C300001FE801B41F28831884202D9032092E7DD
:101C400007E02548406800F00C006168B0EB810FA8
:101C5000EDD12048006800F00700A8420ED91D48C9
:101C6000006820F0070028431A4908600846006809
:101C700000F00700A84201D0012074E7207800F0AE
:101C80000400042807D11448406820F4E060E168AB
:101C9000084311494860207800F00800082808D15E
:101CA0000D48406820F46050216940EAC1000A49AB
:101CB000486000F061F808494968C1F30311074A18
:101CC000515CC8400649086006480068FFF7D8FD27
:101CD000002048E70020024000100240126900087E
:101CE0006C000020640000200F2202600D4A526840
:101CF00002F0030242600B4A526802F0F002826076
:101D0000084A526802F4E062C260064A526802F46D
:101D10006052D2080261044A126802F007020A60A7
:101D20007047000000100240002002400148006897
:101D3000704700006C00002000B5FFF7F7FF044972
:101D40004968C1F30221034A515CC84000BD00004C
:101D5000001002402269000800B5FFF7E7FF0449C0
:101D60004968C1F3C221034A515CC84000BD00006C
:101D70000010024022690008F0B585B00FF26C0C2B
:101D80009CE8E01001A8A0E8E0101CA52D680095D3
:101D900000210022002300240020194D696801F071
:101DA0000C05F5B1042D02D0082D19D101E015481C
:101DB00019E001ADC1F38346AC5D01F4803555B146
:101DC0000F4D6D68C5F340451DF805200D4D654369
:101DD000B5FBF2F302E00C4D04FB05F3184602E0FC
:101DE00000BF084800BF00BF05B0F0BD02030405F6
:101DF000060708090A0B0C0D0E0F10100102000057
:101E00000010024000127A0000093D00F8B50446B7
:101E10000CB90120F8BD207800F00100002878D02E
:101E2000F848406800F00C0004280CD0F5484068E1
:101E300000F00C00082811D1F248406800F480300E
:101E4000B0F5803F0AD1EF48006800F40030002868
:101E50005FD0606800285CD10120DBE700BF6068CC
:101E6000B0F5803F06D1E748006840F48030E5498E
:101E7000086028E0606858B9E248006820F48030C3
:101E8000E04908600846006820F4802008601AE0F5
:101E90006068B0F5A02F0BD1DA48006840F48020CC
:101EA000D84908600846006840F4803008600AE0BD
:101EB000D448006820F48030D249086008460068A1
:101EC00020F48020086000BF606888B1FFF7B2FC92
:101ED000054606E0FFF7AEFC401B642801D903204D
:101EE00098E7C848006800F400300028F2D010E0FD
:101EF000FFF7A0FC054606E0FFF79CFC401B6428AA
:101F000001D9032086E7BF48006800F400300028AC
:101F1000F2D1207800F00200022857D1B948406879
:101F200000F00C0050B1B748406800F00C000828E1
:101F300018D1B448406800F4803098B9B1480068BE
:101F400000F0020020B12069012801D0012061E7E2
:101F5000AC48006820F0F800616940EAC100A94976
:101F6000086033E02069E8B10120A7490860FFF765
:101F700061FC054606E0FFF75DFC401B022801D925
:101F8000032047E79F48006800F002000028F2D0D5
:101F90009C48006820F0F800616940EAC100994956
:101FA000086013E0002098490860FFF743FC0546ED
:101FB00006E0FFF73FFC401B022801D9032029E778
:101FC0009048006800F002000028F2D1207800F06C
:101FD000080008282DD1A069B8B101208B490860FC
:101FE000FFF728FC054606E0FFF724FC401B02280B
:101FF00001D903200EE78348406A00F00200002860
:10200000F2D0012001F062FB13E000207F4908605C
:10201000FFF710FC054606E0FFF70CFC401B02280A
:1020200001D90320F6E67748406A00F00200002854
:10203000F2D1207800F00400042873D10027714801
:10204000C06900F0805070B900BF6E48C06940F0B0
:1020500080506C49C8610846C06900F0805000900B
:1020600000BF00BF01276A48006800F48070B0B963
:102070006748006840F4807065490860FFF7DAFB44
:10208000054606E0FFF7D6FB401B642801D9032074
:10209000C0E65F48006800F480700028F2D000BFFE
:1020A000E068012806D15748006A40F00100554910
:1020B000086227E0E06858B95248006A20F0010041
:1020C000504908620846006A20F00400086219E0DE
:1020D000E06805280BD14B48006A40F004004949EC
:1020E00008620846006A40F0010008620AE04548BC
:1020F000006A20F00100434908620846006A20F0A7
:102100000400086200BFE068A0B1FFF793FB05463A
:1021100009E0FFF78FFB401B41F28831884202D96A
:10212000032077E622E03748006A00F0020000282A
:10213000EFD012E0FFF77EFB054608E0FFF77AFBE1
:10214000401B41F28831884201D9032062E62D48C4
:10215000006A00F002000028F0D1012F05D12948C3
:10216000C06920F080502749C86100BFE069C8B34A
:102170002448406800F00C00082860D0E06902287C
:1021800048D1002020490866FFF754FB054606E0C9
:10219000FFF750FB401B022801D903203AE61948FB
:1021A000006800F000700028F2D1206AB0F5803F8E
:1021B00007D11448406820F40030A1680843114951
:1021C0004860D4E9080108430E49496821F47411B4
:1021D00008430C49486001200B490866FFF72AFBB9
:1021E000054607E03DE0FFF725FB401B022801D92B
:1021F00003200FE60348006800F000700028F2D0CA
:102200002FE00000001002400000424280044242E1
:1022100000700040002014490866FFF70BFB0546DC
:1022200006E0FFF707FB401B022801D90320F1E578
:102230000E48006800F000700028F2D111E0E0695B
:10224000012800D1E6E50948466806F48031206A95
:10225000814204D106F47011606A814201D00120EC
:10226000D8E50020D6E50000000042420010024000
:1022700010B504460CB9012010BD606A00B900BF5A
:102280000021A16294F8510028B9002084F8500080
:10229000204600F031F8022084F8510020680068E0
:1022A00020F0400021680860D4E901010843E1689A
:1022B00008432169084361690843218B01F40071D7
:1022C0000843E1690843216A0843A16A0843216879
:1022D00008600421A06901EA104021684860206874
:1022E000C06920F400602168C86100206065012099
:1022F00084F851000020BFE710B586B004460020E6
:10230000029003900490059023492068884240D1B0
:1023100000BF2248C06940F480402049C861084697
:10232000C06900F48040019000BF00BF00BF0846B4
:10233000806940F0080088610846806900F0080064
:10234000019000BF00BF4FF4204002900220039094
:102350000320059002A91248FFF7CEF81148124950
:1023600008601020486000210F4881608021C16012
:1023700000210161416181614FF44051C161FFF76A
:1023800073F808B1FEF731FC00BF0748A06444624F
:1023900000BF06B010BD0000003800400010024031
:1023A000000C014058000240204200207047704756
:1023B00010B5024600BF92F83C00012801D102206E
:1023C00010BD012082F83C0000BF022082F83D00D1
:1023D000106843681068846823F07003086803433A
:1023E00024F08004486804431068436010688460E7
:1023F000012082F83D0000BF002082F83C0000BFB1
:1024000000BFDDE710B504460CB9012010BD94F8FB
:102410003D0028B9002084F83C00204600F00CF86C
:10242000022084F83D00211D206801F015FA0120EA
:1024300084F83D000020E9E708B50168B1F1804F5C
:102440000DD100BF0649C96941F00101044AD161BB
:102450001146C96901F00101009100BF00BF08BD2C
:102460000010024001460868C06840F001000B6897
:10247000D8600868806800F00702062A05D008685E
:10248000006840F001000B681860002070472DE9DB
:10249000F04104460D4600BF94F83C00012802D1EB
:1024A0000220BDE8F081012084F83C0000BF02203A
:1024B00084F83D002068866826F0770626F47F467B
:1024C000206886602868502833D00CDC202850D043
:1024D00004DC00284BD0102851D149E0302849D0E5
:1024E00040284CD139E060282DD0702807D0B0F5B5
:1024F000805F03D0B0F5005F41D10DE040E0D5E949
:1025000002136A68206801F0F2F92068866846F0D4
:1025100077062068866033E0D5E902136A68206890
:1025200001F0E5F92068806840F480402168886007
:1025300026E0EA686968206801F0AAFA502120685C
:1025400001F0E0F91CE0EA686968206801F0B3FA7C
:102550006021206801F0D6F912E0EA686968206815
:1025600001F096FA4021206801F0CCF908E000BFA4
:1025700000BF00BF2968206801F0C4F900E000BF77
:1025800000BF012084F83D0000BF002084F83C001B
:1025900000BF00BF85E7704710B50446206800699A
:1025A000C0F34000D8B12068C068C0F34000B0B1AB
:1025B0006FF002002168086101202077206880699F
:1025C00000F0030018B12046FFF7E5FF05E02046C4
:1025D00000F0FEF8204600F09BF9002020772068EC
:1025E0000069C0F38000D8B12068C068C0F38000E3
:1025F000B0B16FF0040021680861022020772068E4
:10260000806900F4407018B12046FFF7C4FF05E070
:10261000204600F0DDF8204600F07AF9002020770F
:1026200020680069C0F3C000D8B12068C068C0F35A
:10263000C000B0B16FF00800216808610420207765
:102640002068C06900F0030018B12046FFF7A3FF1F
:1026500005E0204600F0BCF8204600F059F90020C3
:10266000207720680069C0F30010D8B12068C068E6
:10267000C0F30010B0B16FF01000216808610820AD
:1026800020772068C06900F4407018B12046FFF739
:1026900082FF05E0204600F09BF8204600F038F964
:1026A000002020772068006900F0010058B1206800
:1026B000C06800F0010030B16FF0010021680861CE
:1026C000204600F04DF920680069C0F3C01058B1F1
:1026D0002068C068C0F3C01030B16FF0800021687E
:1026E00008612046FFF762FE20680069C0F3801091
:1026F00058B12068C068C0F3801030B16FF040005E
:1027000021680861204600F037F920680069C0F3AD
:10271000401058B12068C068C0F3401030B16FF06D
:102720002000216808612046FFF741FE10BD00002F
:1027300010B586B0044600200290039004900590E6
:102740002068B0F1804F39D100BF1D48806940F04A
:1027500004001B4988610846806900F0040001906C
:1027600000BF00BF00BF0846806940F008008861D4
:102770000846806900F00800019000BF00BF0320F8
:102780000290022003900320059002A90D48FEF755
:10279000B3FE4FF40060029002200390059002A95E
:1027A0000948FEF7A9FE00BF0849486820F44070B8
:1027B00040F0E06040F40070486000BF06B010BD1B
:1027C0000010024000080140000C014000000140E0
:1027D000704770B504460D46164600BF94F83C009D
:1027E000012801D1022070BD012084F83C0000BF07
:1027F000022084F83D0036B1042E1BD0082E31D0C3
:102800000C2E5ED145E02946206801F085F820684D
:10281000806940F00800216888612068806920F0A4
:10282000040021688861206880692969084321685B
:10283000886147E02946206801F09EF82068806999
:1028400040F40060216888612068806920F480601D
:102850002168886120688069296940EA012021682F
:1028600088612FE02946206801F0BAF82068C06925
:1028700040F008002168C8612068C06920F00400A9
:102880002168C8612068C069296908432168C86156
:1028900018E02946206801F0D7F82068C06940F4A4
:1028A00000602168C8612068C06920F480602168E8
:1028B000C8612068C069296940EA01202168C861AF
:1028C00000E000BF00BF012084F83D0000BF0020F1
:1028D00084F83C0000BF00BF85E710B504460CB982
:1028E000012010BD94F83D0028B9002084F83C0078
:1028F000204600F00CF8022084F83D00211D2068DD
:1029000000F0AAFF012084F83D000020E9E77047AD
:102910007047000070B504460E460122314620681B
:1029200000F0D4FF0D492068884201D1012000E069
:10293000002028B12068406C40F4004021684864C1
:102940002068806800F00705062D05D02068006823
:1029500040F0010021680860002070BD002C01409B
:1029600010B5044603492068884201D1FEF768FF8C
:1029700010BD000000080040704770472DE9F04787
:102980000446206805682068C668206847694FF0DB
:102990000008C14605F00F08B8F1000F0AD105F094
:1029A000200038B106F0200020B1204601F0C1F827
:1029B000BDE8F087B8F1000F6DD007F0010018B93D
:1029C00006F49070002866D005F0010030B106F4DE
:1029D000807018B1E06B40F00100E06305F0040086
:1029E00030B107F0010018B1E06B40F00200E06385
:1029F00005F0020030B107F0010018B1E06B40F0C3
:102A00000400E06305F0080030B107F0010018B1E0
:102A1000E06B40F00800E063E06B68B305F0200075
:102A200028B106F0200010B1204601F082F820689D
:102A30004069C0F38019E06B00F0080010B9B9F1EB
:102A4000000F22D0204601F054F82068406900F0C1
:102A50004000B0B12068406920F040002168486122
:102A6000606B50B11748616B4863606BFEF7D6FB33
:102A700010B1606B416B88470CE02046FFF77DFF8B
:102A800008E02046FFF779FF04E02046FFF775FFD6
:102A90000020E0638CE705F0800030B106F0800094
:102AA00018B1204601F068F982E705F0400030B126
:102AB00006F0400018B1204601F02BF878E700BF7F
:102AC00076E70000DF3A000810B504460CB9012093
:102AD00010BDA06900B100E000BF94F8390028B92A
:102AE000002084F83800204600F028F8242084F8DC
:102AF00039002068C06820F400502168C860204672
:102B000001F06AF82068006920F4904021680861AB
:102B10002068406920F02A00216848612068C06868
:102B200040F400502168C8600020E063202084F851
:102B3000390084F83A000020CAE7000010B586B0DA
:102B40000446002002900390049005903B492068C1
:102B5000884237D100BF3A48806940F48040384904
:102B600088610846806900F48040019000BF00BF82
:102B700000BF0846806940F004008861084680690B
:102B800000F00400019000BF00BF48150290022031
:102B900003900320059002A92A48FEF7ADFC4FF4EC
:102BA0008060029000200390049002A92548FEF75F
:102BB000A3FC002205212520FEF7E6FE2520FEF7D6
:102BC000D3FE39E020492068884235D100BF1C4837
:102BD000C06940F400301A49C8610846C06900F471
:102BE0000030019000BF00BF00BF0846806940F080
:102BF000040088610846806900F00400019000BF6D
:102C000000BF04200290022003900320059002A937
:102C10000C48FEF771FC08200290002003900490FD
:102C200002A90848FEF768FC002205212620FEF7CD
:102C3000ABFE2620FEF798FE06B010BD003801401E
:102C400000100240000801400044004070477047F7
:102C500000BFFEE710B5002240210D48FEF7E4FD5D
:102C600000F010F9002280210948FEF7DDFD00F098
:102C700009F9012240210648FEF7D6FD00F002F9CD
:102C8000002240210248FEF7CFFD00F0FBF810BD06
:102C9000000C014010B5002240210D48FEF7C4FD94
:102CA00000F0F0F8012280210948FEF7BDFD00F098
:102CB000E9F8012240210648FEF7B6FD00F0E2F8EF
:102CC000002240210248FEF7AFFD00F0DBF810BD06
:102CD000000C014070B50825002401228021134812
:102CE000FEF7A2FD16E06006040E002240210F4808
:102CF000FEF79AFD00F0C6F8012240210B48FEF7CE
:102D000093FD00F0BFF880210848FEF785FD08B16B
:102D100044F00104281EA5F10101CDB2E3D1002247
:102D200040210248FEF780FD204670BD000C0140A6
:102D300070B5044608251FE0002240211448FEF724
:102D400073FD00F09FF804F0800028B1012280217B
:102D50000F48FEF769FD04E0002280210C48FEF7D1
:102D600063FD6006040E00F08DF801224021084842
:102D7000FEF75AFD00F086F8281EA5F10101CDB23C
:102D8000DAD1002240210248FEF74EFD70BD00005E
:102D9000000C014010B5012280211448FEF744FDCB
:102DA000012240211148FEF73FFD00F06BF8802121
:102DB0000E48FEF731FD08B9002010BD0022802129
:102DC0000A48FEF731FD00F05DF880210748FEF764
:102DD00023FD08B10020F0E7002280210348FEF720
:102DE00023FD00F04FF80120E7E70000000C014050
:102DF00010B5002240210D48FEF716FD00F042F804
:102E0000002280210948FEF70FFD00F03BF8012267
:102E100040210648FEF708FD00F034F80122802129
:102E20000248FEF701FD00F02DF810BD000C014036
:102E300010B5002240211248FEF7F6FC00F022F8FF
:102E4000012280210E48FEF7EFFC00F01BF8012262
:102E500040210B48FEF7E8FC00F014F880210848F8
:102E6000FEF7DAFC08B1012400E000240022402132
:102E70000348FEF7D9FC00F005F8204610BD00001D
:102E8000000C0140052001E0411E88B20028FBD162
:102E90007047000010B504464FF480600449086094
:102EA000201200F027FCE0B200F024FC10BD00006E
:102EB000100C01402DE9F04704460D4616461F460A
:102EC000DDF820A0C5F180018AB2C7F1800188B287
:102ED0003346214600F070F92C2000F0AFF94FF096
:102EE00000080DE04FF0000904E05046FFF7D2FF64
:102EF00009F10109781B401C4845F6D808F1010882
:102F0000301B401C4045EDD87F231A46002108465F
:102F100000F052F92C2000F091F9BDE8F08770B56F
:102F200006467F231A460021084600F045F92C206A
:102F300000F084F9002408E0002503E03046FFF7A4
:102F4000A9FF6D1C802DF9D3641C802CF4D370BDB7
:102F500000B585B000BF9648806940F008009449EC
:102F600088610846806900F00800009000BF00BF3B
:102F7000002001900290039004904FF420400190B3
:102F800001200290002003900320049001A98948A9
:102F9000FEF7B2FA112000F051F97820FEF798FA06
:102FA000B12000F04BF9012000F03CF92C2000F09A
:102FB00039F92D2000F036F9B22000F03FF9012058
:102FC00000F030F92C2000F02DF92D2000F02AF926
:102FD000B32000F033F9012000F024F92C2000F098
:102FE00021F92D2000F01EF9012000F01BF92C2002
:102FF00000F018F92D2000F015F9B42000F01EF9AA
:10300000072000F00FF9C02000F018F9A22000F00E
:1030100009F9022000F006F9842000F003F9C1202C
:1030200000F00CF9C52000F0FDF8C22000F006F910
:103030000A2000F0F7F8002000F0F4F8C32000F0B8
:10304000FDF88A2000F0EEF82A2000F0EBF8C4200A
:1030500000F0F4F88A2000F0E5F8EE2000F0E2F845
:10306000C52000F0EBF80E2000F0DCF8362000F070
:10307000E5F8C82000F0D6F8E02000F0DFF80F20D7
:1030800000F0D0F81A2000F0CDF80F2000F0CAF8B8
:10309000182000F0C7F82F2000F0C4F8282000F016
:1030A000C1F8202000F0BEF8222000F0BBF81F205D
:1030B00000F0B8F81B2000F0B5F8232000F0B2F8BB
:1030C000372000F0AFF8002000F0ACF8072000F047
:1030D000A9F8022000F0A6F8102000F0A3F8E120E3
:1030E00000F0ACF80F2000F09DF81B2000F09AF8DB
:1030F0000F2000F097F8172000F094F8332000F02C
:1031000091F82C2000F08EF8292000F08BF82E206A
:1031100000F088F8302000F085F8302000F082F8C8
:10312000392000F07FF83F2000F07CF8002000F00C
:1031300079F8072000F076F8032000F073F81020EB
:1031400000F070F82A2000F079F8002000F06AF80A
:10315000002000F067F8002000F064F87F2000F005
:1031600061F82B2000F06AF8002000F05BF80020E6
:1031700000F058F8002000F055F89F2000F052F8B9
:10318000F02000F05BF8012000F04CF8F62000F091
:1031900055F8002000F046F83A2000F04FF80520DE
:1031A00000F040F8292000F049F805B000BD00000B
:1031B00000100240000C0140F0B504460D461646D2
:1031C0001F462A2000F03AF8002000F02BF8A11C3E
:1031D000C8B200F027F8002000F024F8B11CC8B2F3
:1031E00000F020F82B2000F029F8002000F01AF859
:1031F000E91CC8B200F016F8002000F013F8F91C22
:10320000C8B200F00FF82C2000F018F8F0BD30B56F
:1032100004460D462B46224629462046FFF7CCFFA2
:1032200030BD000010B504464FF4806002490860CC
:10323000204600F05FFA10BD100C014010B50446A6
:103240004FF4806002490860204600F053FA10BD38
:10325000140C014000280DDB64280BDA0649074AEC
:10326000128831F8121042F2107292FBF1F14143D0
:103270009206916370470000E86800085C00002037
:1032800010B54448007A10B101287CD11EE04249B3
:1032900008684249FDF7D8FA01D2012000E0002079
:1032A00000EB800084002046FFF7D4FF3A494868CD
:1032B0003A49FDF7C9FA01D2012000E0002032218D
:1032C00000FB01F42046FDF749FC5DE0344800783E
:1032D00018B9FEF7AFFA33490860FEF7ABFA314987
:1032E0000968401A40F6B831884222D2FEF7A2FAA5
:1032F0006421B0FBF1F4FEF79DFA2A490968401AEF
:103300004FF47A71B0FBF1F0C0F10400B4FBF0F1BE
:1033100000FB114030B91420FFF79CFF3220FDF76D
:103320001DFC2EE00020FFF795FF0020FDF716FCA6
:1033300027E0FEF77FFA1B490968401A40F6B831CA
:1033400088420FD9FEF776FA16490968401A41F209
:103350007071884206D21420FFF77CFF3220FDF7FF
:10336000FDFB0EE0FEF766FA0E490968401A41F2CD
:103370007071884205D90020FFF76CFF0020FDF72F
:10338000EDFB01E0FFE700BF00BF0248007A0449FF
:10339000087010BD7441002004000020000020418E
:1033A00018000020140000200EB5002000900190AD
:1033B000029012481249086000211148816001738F
:1033C00001754FF46021C16100200D494860012161
:1033D0000B480161FDF748FE08B1FDF706FC04202B
:1033E0000090012001900020029069460448FDF7FA
:1033F0008BFD08B1FDF7F9FB0EBD00000024014074
:103400009841002008B500BF0A48406940F001001B
:10341000084948610846406900F00100009000BF7B
:1034200000BF002205210F20FEF7AEFA0F20FEF7A5
:103430009BFA08BD0010024000B585B00020019045
:1034400002900390049000BF3C48806940F0100057
:103450003A4988610846806900F01000009000BF7A
:1034600000BF00BF0846806940F020008861084620
:10347000806900F02000009000BF00BF00BF084638
:10348000806940F0040088610846806900F004000B
:10349000009000BF00BF00BF0846806940F00800F0
:1034A00088610846806900F00800009000BF00BFF6
:1034B00000224FF487612248FEF7B6F90122C021AD
:1034C0001F48FEF7B1F94FF4876001900120029088
:1034D000002003900320049001A91948FEF70CF87E
:1034E0004FF4A040019000200290039001A91448DD
:1034F000FEF702F84FF4C8500190002002900390AC
:1035000001A91048FDF7F8FFC0200190112002909A
:10351000012003900320049001A90948FDF7ECFF66
:103520004FF400500190012002900390032004907A
:1035300001A90548FDF7E0FF05B000BD00100240FD
:10354000000C0140000801400010014010B50F4878
:103550000F4908604FF4827048604FF400410C48F6
:1035600081600021C160016141614FF4007181619E
:103570003021C16100210162416281620A21C16280
:10358000FEF776FE08B1FDF730FB10BD00380040B5
:10359000C841002000B58DB0002009900A900B9022
:1035A0000C90079008901C216846FCF71EFE4FF017
:1035B0008040274908601F2048600021244881601E
:1035C00041F6D051C160002101618161FEF71AFF0F
:1035D00008B1FDF70AFB4FF48050099009A91C4877
:1035E000FEF755FF08B1FDF700FB1948FFF775F925
:1035F00008B1FDF7FAFA00200790089007A91448CF
:10360000FEF7D6FE08B1FDF7F0FA6020009000202A
:10361000019002900490002269460D48FFF7D9F806
:1036200008B1FDF7E2FA042269460948FFF7D1F82C
:1036300008B1FDF7DAFA0C2269460548FFF7C9F828
:1036400008B1FDF7D2FA0248FFF772F80DB000BDDD
:10365000A442002010B50B480B4908604FF4E1303C
:103660004860002108488160C16001610C2141610E
:1036700000218161C161FFF727FA08B1FDF7B5FAB2
:1036800010BD000000380140E442002010B50B4896
:103690000B4908604FF4E130486000210848816020
:1036A000C16001610C21416100218161C161FFF7AD
:1036B0000BFA08B1FDF799FA10BD00000044004074
:1036C0002443002000BFFEE77047000008B508490A
:1036D0000968C9084FF47A72B1FBF2F141430091D5
:1036E00000BF00BF00994A1E00920029F9D108BD11
:1036F0006C0000200021082117E000F0800222B1B8
:103700004FF400420A4B1A6004E04FF40042084BA9
:103710001B1D1A604FF40052054B1B1D1A601B1F26
:103720001A604206100E4A1ED1B20029E5DC70472D
:10373000100C014010B500BF502080F31188BFF37A
:103740004F8FBFF36F8F00BF01F0DCFF18B14FF058
:1037500080500449086000BF002080F3118800BF3A
:1037600010BD000004ED00E000B593B0282109A8C9
:10377000FCF73BFD142104A8FCF737FD0020009066
:103780000190029003900120099000040A9000200B
:103790000B9001200D9002201090C10311914FF465
:1037A000E011129109A8FEF731FB08B1FDF71DFAEF
:1037B0000F20049002200590002006904FF48060B6
:1037C000079000200890022104A8FEF7C7F908B16D
:1037D000FDF70BFA02200090800302906846FEF786
:1037E00025F908B1FDF701FA13B000BD11480068D2
:1037F00040F001000F490860084640680E49084043
:103800000C494860084600680C49084009490860AE
:103810000846006820F4802008600846406820F4CC
:10382000FE0048604FF41F008860C8030449086028
:1038300070470000001002400000FFF8FFFFF6FE96
:1038400008ED00E010B50348FEF7A6FE00F0DAFA36
:1038500010BD00006442002010B50268184B984269
:1038600008D0B0F1804F05D0164B984202D0164BCD
:10387000984203D122F070024B681A43104B9842D1
:1038800008D0B0F1804F05D00E4B984202D00E4BBD
:10389000984203D122F44072CB681A4322F080038D
:1038A0004C6943EA040202608B68C3620B6883625E
:1038B000034B984201D10B6903630123436110BD9F
:1038C000002C0140000400400008004030B501F029
:1038D0001F05012404FA05F3046A9C430462046A88
:1038E00001F01F0502FA05F52C43046230BD30B526
:1038F0000C46816821F47F4142EA03252543294390
:10390000816030BD0A46816821F0700142F00703F2
:10391000194381607047000030B5056A25F0010544
:103920000562026A4368846924F0700424F0030489
:103930000D682C4322F002028D682A430D4DA842E7
:1039400006D100BF22F00802CD682A4322F004020B
:10395000084DA84207D123F4807323F400734D6906
:103960002B438D692B43436084614D68456302623C
:1039700030BD0000002C014030B5056A25F010056F
:103980000562026A4368846924F4E04424F44074C4
:103990000D6844EA052422F020028D6842EA0512EF
:1039A0000E4DA84207D100BF22F08002CD6842EA46
:1039B000051222F04002094DA84209D123F4806388
:1039C00023F400634D6943EA85038D6943EA850367
:1039D000436084614D688563026230BD002C014004
:1039E00030B5056A25F480750562026A4368C469CA
:1039F00024F0700424F003040D682C4322F40072B8
:103A00008D6842EA05220F4DA84207D100BF22F47B
:103A10000062CD6842EA052222F48062094DA84284
:103A200009D123F4805323F400534D6943EA05136D
:103A30008D6943EA05134360C4614D68C563026242
:103A400030BD0000002C014030B5056A25F48055DA
:103A50000562036A4468C26922F4E04222F44072BB
:103A60000D6842EA052223F400538D6843EA0533CA
:103A7000064DA84204D124F480444D6944EA8514DB
:103A80004460C2614D680564036230BD002C014092
:103A900030B50B461446026A056A25F00105056239
:103AA000816921F0F00141EA041122F00A021A436F
:103AB0008161026230BD30B50B461446056A25F0BF
:103AC000100505628169026A21F4704141EA0431FE
:103AD00022F0A00242EA03128161026230BD70B599
:103AE00005466C6A0020E085E0842046FEF745FF2D
:103AF00070BD0168C96821F490710268D1600168E5
:103B0000496921F0010102685161202180F83A10D1
:103B1000704710B504462068C06820F04000216856
:103B2000C860202084F839002046FFF790F8002074
:103B300010BD70B5044694F83A0022284AD1A06816
:103B4000B0F5805F13D1A56A206940B9206840684C
:103B5000C0F308002880A06A801CA06219E02068D9
:103B60004068C0B22880A06A401CA06211E02069B1
:103B700038B920684068C1B2A26A501CA0621170B6
:103B800007E02068406800F07F01A26A501CA06234
:103B90001170E08D401E80B2E085C8B92068C06811
:103BA00020F020002168C8602068C06820F4807080
:103BB0002168C8602068406920F0010021684861E0
:103BC000202084F83A002046FFF740F8002070BD1E
:103BD0000020FCE70220FAE770B504462168096975
:103BE00021F44051E2681143226811612269A16801
:103BF0001143626941EA02052168C96841F20C6219
:103C0000914329432268D1602168496921F44071B8
:103C1000A269114322685161564A2168914254D1E8
:103C2000FEF79AF800EBC00101EB00116268920008
:103C3000B1FBF2F100EBC00202EB001263689B00E3
:103C4000B2FBF3F26423B2FBF3F202EBC20303EB29
:103C50000212A1EB8201322202EB01116422B1FBBC
:103C6000F2F101F0F00100EBC00202EB0012636818
:103C70009B00B2FBF3F26423B2FBF3F201EB0212FE
:103C800000EBC00101EB001163689B00B1FBF3F195
:103C900000EBC00303EB00136668B600B3FBF6F35A
:103CA0006426B3FBF6F303EBC30606EB0313A1EBA9
:103CB0008301322303EB01116423B1FBF3F101F023
:103CC0000F0111442268916053E0FEF735F800EBD4
:103CD000C00101EB001162689200B1FBF2F100EB50
:103CE000C00202EB001263689B00B2FBF3F2642394
:103CF000B2FBF3F202EBC20303EB0212A1EB82016F
:103D0000322202EB01116422B1FBF2F101F0F00169
:103D100000EBC00202EB001263689B00B2FBF3F2FF
:103D20006423B2FBF3F201EB021200EBC00101EBE2
:103D3000001163689B00B1FBF3F100EBC00303EBE0
:103D400000136668B600B3FBF6F36426B3FBF6F324
:103D500003EBC30606EB0313A1EB8301322303EB52
:103D600001116423B1FBF3F101F00F01114422684A
:103D7000916070BD00380140014691F8390021285A
:103D80002CD18868B0F5805F0FD10A6A1088C0F323
:103D900008000B685860086918B9086A801C086236
:103DA00009E0086A401C086205E00B6A581C0862BA
:103DB00018780B685860C88C401E80B2C88458B907
:103DC0000868C06820F080000B68D8600868C06888
:103DD00040F040000B68D860002070470220FCE7EC
:103DE00010B50248FEF7CAFD10BD0000E4420020F5
:103DF00010B50248FEF7C2FD10BD000024430020AC
:103E000000BFFEE710B500F0DFFD10BD10B500F0FB
:103E1000FBFD10BD10B500210A48FEF77BFD042113
:103E20000848FEF777FD0C210648FEF773FDFFF703
:103E30008FF80020FFF773F801F03AF900F0EEFD7B
:103E400010BD0000A44200202DE9F04104460D46BB
:103E5000054A064B20462946FCF79AFA064600F02A
:103E600007F8BDE8F0810000182D4454FB21F93F0C
:103E70002DE9F04F93B004460D464FF0000B0022A1
:103E8000134620462946FCF789FC03D24FF0010B6C
:103E900085F00045704A714B2046294601F050F9E3
:103EA00004460D466C4A6E4B20462946FCF78EFCB4
:103EB0000ED2BBF1000F01D1012000E000208346AB
:103EC000654A674B20462946FCF703FB04460D462E
:103ED000614A644B20462946FCF778FC07D25E4ACB
:103EE0005F4B20462946FCF7F7FA04460D465E4A2A
:103EF0005E4B20462946FCF764FBCDE90E01FCF73A
:103F00001BFC82465046FCF7D9FB574A574BCDE97C
:103F10000C01FCF7E4FA22462B46CDE90E01FCF732
:103F2000DBFA06460F46504A514B30463946FCF7FD
:103F30004DFC09D20AF1010A4B4A4C4B3046394636
:103F4000FCF7C7FA06460F464A4800EBCA00D0E91C
:103F50000089CAF16400474901EBC00003C8CDE9FC
:103F6000100132463B4630463946FCF7B8FA324635
:103F70003B46CDE90401FCF7B2FA32463B46CDE9B7
:103F80000601FCF7ACFA42464B46CDE90801FCF7C6
:103F9000A6FA0022384BCDE90A01FCF712FB3246A3
:103FA0003B46CDE90E0130463946FCF798FA3246D9
:103FB0003B46CDE90201FCF792FACDE90401DDE9C7
:103FC0001023FCF78CFA00222C4BCDE90601FCF7FC
:103FD000F8FA32463B46CDE90A0130463946FCF74D
:103FE0007EFA42464B46CDE90001FCF778FA002202
:103FF0004FF08043CDE90201FCF7E3FACDE9060179
:1040000030463946DDE91023FCF769FA42464B4653
:10401000CDE90201FCF7BCF9CDE90401DDE9062395
:10402000FCF757FACDE90801DDE90A23FCF751FA5C
:10403000CDE90C01DDE90E23FCF7AAF904460D4693
:10404000BBF1000F05D0204685F0004113B0BDE85C
:10405000F08F20462946F9E7182D4454FB211940DA
:10406000FB210940FB21F93F1A271792BF15903F0A
:10407000BF15803FC06500080000384000001840B0
:104080000FB4084B10B504A902AA039800F000F978
:10409000044602A9002000F092FC204610BC5DF806
:1040A00014FB0000BF49000802480068C0F302206A
:1040B000704700000CED00E010B5002804DB0A0793
:1040C000130E054A135406E00A07140E034A00F0C3
:1040D0000F031B1FD45410BD00E400E018ED00E0F6
:1040E00002E008C8121F08C1002AFAD170477047C1
:1040F000002001E001C1121F002AFBD1704700001F
:104100000149086070470000700000202DE9FF5F42
:1041100082B00021DDE90430020DDDF840B0034338
:1041200018D044F61050A2F2FF32424315141198F1
:1041300001281FD0A5EB0B00401C5FEA000A4FF0DE
:1041400000064E4FDFF83891B046504615D5CAF1FB
:10415000000413E0119801244AA3012801D16FEA59
:104160000B010298119AC0E90031C0E9024206B081
:10417000BDE8F09FCBF10000DFE704460021404A94
:10418000491842EB0450CDE9001012E0E00707D0D7
:1041900032463B4640464946FCF7A1F980468946EF
:1041A00032463B4610461946FCF799F906460F463B
:1041B0006410002CEAD1DDE90401DDE90023BAF145
:1041C000000F06DAFCF78BF942464B46FCF787F9FD
:1041D00005E0FCF7F6F942464B46FCF7F2F90446D7
:1041E0000E460022284BFCF7F1FA03D84FF0FF30BF
:1041F000014607E00022254B20463146FCF7C8F86F
:10420000FCF757FC102409E0002C0ADB0A220023EB
:10421000FCF73AFB039B30321A55641E50EA010248
:10422000F2D1641C039AC4F111031444119A012AB7
:1042300003D0012208430DD10AE0084304D0002036
:104240004FF0110B119072E7A3EB0B056D1E0DE003
:104250005B4504DD4FF0000205F1010504E003DADF
:104260004FF00002A5F10105002AECD00298119947
:10427000C0E90231C0E9004579E7000000001440C0
:104280000000F03F300000000000F0430000E03F7D
:104290002DE9FF4F95B09B468946064600250FE263
:1042A000252877D100242746F84A0121059400E00B
:1042B000044316F8013F203B01FA03F01042F7D106
:1042C00030782A2811D06FF02F033078A0F1300217
:1042D000092A16D8059A44F0020402EB820203EB85
:1042E00042021044761C0590EFE759F8042B059222
:1042F000002A03DA504244F40054059044F00204CA
:10430000761C30782E2816D116F8010F44F00404DC
:104310002A280DD06FF02F023078A0F13003092B3E
:1043200009D807EB870302EB4303C718761CF3E7B2
:1043300059F8047B761C30786C280FD006DC4C28AA
:1043400017D068280DD06A2814D104E0742810D042
:104350007A280FD10DE044F400140AE044F48014EC
:1043600001E044F440147278824202D104F58014D2
:10437000761C761C307866280BD013DC582877D052
:1043800009DC002875D04528F6D04628F4D0472807
:104390001AD19DE118E0632835D0642879D06528CA
:1043A00012D195E1702873D008DC6728F1D0692814
:1043B0006FD06E280DD06F2806D1B5E073282CD0B1
:1043C000752875D0782874D05A46179990476D1C77
:1043D00075E1C4F30250022809D003280DD0D9F8A2
:1043E000001004280DD00D6009F1040967E1D9F827
:1043F0000010EA17C1E90052F6E7D9F800100D8065
:10440000F2E70D70F0E719F8041B8DF8001000209A
:104410008DF80100EA46012003E059F804AB4FF0A3
:10442000FF3061074FF0000102D40DE008F10101F7
:104430008846B9420FDA8045F8DB1AF808100029DF
:10444000F4D108E008F1010188468142FADB1AF84C
:1044500008100029F6D105985B46A0EB0807214615
:104460003846179A00F094FA284400EB080507E054
:104470004DE029E10DE01AF8010B5A4617999047D3
:10448000B8F10108F7D25B4621463846179A13E186
:1044900042E00A220092C4F302524FF0000A022ABC
:1044A00008D059F804CB032A4FEAEC710AD00DE08A
:1044B00029E02AE009F1070121F00702F2E802C130
:1044C000914609E00FFA8CFC4FEAEC71042A03D103
:1044D0004FFA8CFC4FEAEC71002907DA0A460021FA
:1044E000DCF1000C61EB02012D2202E0220504D573
:1044F0002B228DF80420012203E0E20701D02022C4
:10450000F7E7904659E00A2102E010220DE0102161
:104510004FF0000A00910BE010224FF0000A44F027
:1045200004040827009203E008224FF0000A0092DA
:10453000C4F30252022A05D059F804CB0021032A01
:1045400008D009E009F1070121F00702F2E802C1F1
:10455000914605E01FFA8CFC042A01D10CF0FF0CF7
:104560004FF00008220728D5702806D0009B83F062
:10457000100353EA0A0305D00EE040228DF8042010
:10458000012208E05CEA010206D030228DF8042006
:104590008DF8050002229046009B83F0080353EA41
:1045A0000A030AD15CEA010201D1620705D5302273
:1045B0008DF804204FF001087F1E582804D034A045
:1045C00003900EA802900DE036A0F9E7534660462E
:1045D000009AFCF759F984460398825C0298401EC1
:1045E000029002705CEA0100F0D1029806A9081A54
:1045F00000F1200A600702D524F4803400E001278E
:10460000574502DDA7EB0A0000E0002000EB0A019D
:10461000009005984144401A0590E00306D45B469B
:104620002146179A059800F0B3F90544002706E0E3
:1046300001A85A46C05D179990476D1C7F1C4745DD
:10464000F6DBE0030CD55B462146179A059800F08F
:104650009FF9054404E030205A46179990476D1C95
:104660000099481E00900029F5DC08E002980299A4
:104670005A460078491C0291179990476D1CBAF16F
:104680000001AAF1010AF1DC65E10000092801003E
:1046900030313233343536373839616263646566B8
:1046A000000000003031323334353637383941427A
:1046B000434445460000000000F058F90544761CCC
:1046C000307800287FF4ECAD19B02846BDE8F08FB3
:1046D000620700D4062709F1070222F0070CFCE864
:1046E0000223E14603F000485FEA080C02D00FF213
:1046F000702C0DE05FEA045C02D50FF2682C07E035
:104700005FEAC47C02D00FF2602C01E0AFF2700CC3
:104710004FF0FF3823F00043CDF850C065280CD08F
:1047200006DC452809D046281DD047283DD13DE06C
:10473000662818D067287ED138E00021112F01DBD0
:10474000112000E0781CCDE9000106A90EA8FFF7B2
:10475000DDFCDDE90F010E9A03910021009207F1C3
:10476000010A04914DE04FF000400097CDE901109F
:1047700006A90EA8FFF7CAFCDDE90F0203920E9B03
:1047800011990022DDF80CA00093049211B9791C54
:1047900000EB010AB7EB0A0004D4C0F1FF3007F1C7
:1047A000010A0490AAEB0700019044E0012F00DA0F
:1047B00001270021112F01DD112000E03846CDE94D
:1047C000000106A90EA8FFF7A1FCDDE90F010E9A72
:1047D0000391002104910092BA4621070CD4039959
:1047E000514500DA8A46BAF1010F05DD009AAAF1B7
:1047F0000101515C302908D0B84202DA10F1040FEF
:1048000006DA0121CDE9011015E0AAF10101E9E77D
:10481000002805DC049901440491AAEB000102E0A0
:10482000411C514500DD8A460499401A401C019004
:104830004FF000400290200704D40198504501DB5E
:10484000CDF8048000208DF84F0002980DF14F073D
:10485000B0F1004F25D02B200E9002984FF00208A7
:1048600000280CDA404202902D200E9007E00A2129
:104870000298FBF7F3FF3031029007F8011DB8F101
:104880000001A8F10108F2DC02980028EFD1791E9E
:104890000E980870307800F0200040F0450007F8CE
:1048A000020D12A8C01B00F107081498007800B18F
:1048B000012000EB0A01019801EBE07105984144E9
:1048C000401A401E0590E00306D45B462146179A25
:1048D000059800F05DF805441498007818B15A4620
:1048E000179990476D1CE00324D55B462146179A23
:1048F000059800F04DF805441CE00498002807DBFB
:10490000DDE90301884203DD0098405C179901E06E
:10491000179930205A469047049805F10105401C2C
:1049200004900198401E019004D12E205A461799F8
:1049300090476D1CBAF10001AAF1010ADDDC05E027
:1049400017F8010B5A46179990476D1CB8F10001F2
:10495000A8F10108F4DC5B462146179A0598ABE6FE
:104960002D0000002B000000200000002DE9F04188
:10497000044600251E461746880404D405E039463F
:104980002020B0476D1C641EF9D52846BDE8F08193
:104990002DE9F041044600251E469046C80301D586
:1049A000302700E02027880404D505E0414638463A
:1049B000B0476D1C641EF9D52846BDE8F0810A6831
:1049C000531C0B60107070470D480088401C00B2EB
:1049D0000B4908800846B0F900000A2801DD0020D4
:1049E000088008480088401C00B206490880044836
:1049F000B0F90000322801DD002008807047000077
:104A00001A0000201C00002010B500F0D3F800F0C0
:104A100015F800F033FCFEF733FC10BD10B5002094
:104A20000549088048600120887200F07FFD0E2053
:104A300000F0FAFB10BD0000744100202DE9F8439E
:104A400055480088B0F5806F7EDB54A04FF4FC63BE
:104A50000022022100906620FCF790F900204E49C8
:104A6000088001204E4988724E48FCF7C1F84E4834
:104A7000FCF7BEF8002438E04A4A02EBC402516851
:104A8000484A02EBC4025068FBF712FC8046454AD4
:104A900052F8341052F83400FBF70AFC81464146C4
:104AA000FBF7AEFB074600F0D3FB3E4941F834006C
:104AB0003D4A02EBC40251683B4A02EBC402506813
:104AC000FBF7F6FB8046384A52F8341052F83400AF
:104AD000FBF7EEFB81464146FBF792FB074600F0F1
:104AE000B7FB314941F83400641CB4F5806FC3DB77
:104AF0003C212C4800F0B2F985B23C212A4800F054
:104B0000ADF986B2B54235D141F2707106FB01F0C4
:104B1000C11700EB91518F12A7F10A0020490880BC
:104B2000214A11681F4A52F83500FBF7C1FB804645
:104B30001C4A11681C4A52F83500FBF7B9FB814644
:104B40004146FBF7E7FB00E024E0044621464FF036
:104B50007E50FBF7A7FB81461449FBF7A9FB804673
:104B60001349FBF74DFB04460D48446000200C49F7
:104B7000087205E000200A49088048600120087298
:104B800006A000234FF4FC62022100906620FCF78F
:104B9000F5F800BFBDE8F883000000204646540049
:104BA0007441002074000020F42000200000C8425E
:104BB00000003C4238B50025002000F0DFF9054632
:104BC00005F0800000283FD0012251032248FCF765
:104BD0002BFE01226946052000F01AFA00242BE082
:104BE0001E480088B0F5806F25DA3DF82400FBF7F9
:104BF00060FD1B49194A128841F832000020174A0B
:104C0000128801EBC2014860694601EB84014888C3
:104C1000FBF74FFD1349114A128841F83200002179
:104C200010480E4A128800EBC20041600B48008811
:104C3000401C0A490880641C012CD1DB0A48407AD8
:104C4000401C0949487205E000224FF40051024817
:104C5000FCF7EAFD38BD0000001001400000002014
:104C600074000020F4200020744100202DE9F04F52
:104C700087B000200590049003900290002416E075
:104C80005948008808382044584A52F8301005988E
:104C9000FBF7B6FA05905448008808382044544A77
:104CA00052F830100498FBF7ABFA0490641C082CFF
:104CB000E6DB0598FBF713FD05464E4900F0AAF820
:104CC0000446C11700EB5171C810FBF7E9FC0390D3
:104CD0000498FBF704FD0546474900F09BF804469D
:104CE000C11700EB5171C810FBF7DAFC02904FF0CE
:104CF000000AD346039880F000400190FBF73BFD8B
:104D0000064600223D4BFBF75CFC804600223C4BF4
:104D1000FBF73EFB0446FBF771FD8246029880F0EC
:104D200000484046FBF727FD0022344BCDE9000147
:104D3000FBF747FC04460022314BFBF729FB0646F4
:104D4000FBF75CFD83462F495046FBF77DFD01D202
:104D50002C4800E05046824600215046FBF76AFD91
:104D600001D2002000E05046824626495846FBF713
:104D70006BFD01D2234800E0584683460021584687
:104D8000FBF758FD01D2002000E0584683461E483C
:104D9000C0F800A0C0F804B01C490598FBF74AFD14
:104DA00004D31A490598FBF745FD11D20020184994
:104DB000088048600C480088C01F0B4908801448D0
:104DC000007A01280DD0012011490872887208E08C
:104DD0000F48007A012804D100200D4908720120F3
:104DE000887207B0BDE8F08F00000020740000203A
:104DF000F4200020804100208C410020000044402D
:104E0000000014400000D8410400002000409C45F0
:104E1000744100202DE9F04706460C46A168206841
:104E2000FBF746FA80463046FBF73AFC814641469E
:104E3000FBF7E6F9054628462168FBF733FA814679
:104E40000549FBF735FA8046FBF749FC07B22560B8
:104E50003846BDE8F08700000000A0402DE9F04191
:104E600005460E460A24274655F8348000BF09E05F
:104E700055F834104046FBF7DDFC02D255F834807B
:104E80002746641CB442F3DB3846BDE8F0812DE9C7
:104E9000F84305460E4617469846DDE9084943465D
:104EA0002A46314628460094FBF7BCFF33463A4673
:104EB000314628460094FBF7B5FF43462A46414653
:104EC00038460094FBF7AEFF33463A464146384633
:104ED0000094FBF7A7FFA8F1010C1FFA8CF3A7F1D0
:104EE000010C1FFA8CF206F1010C1FFA8CF105F18E
:104EF000010C1FFA8CF0CDF80090FDF7DBFFBDE848
:104F0000F8832DE9F84305460E4617469846089C57
:104F100043462A46314628460094FBF783FF334632
:104F20003A46314628460094FBF77CFF43462A4622
:104F3000414638460094FBF775FF33463A464146F2
:104F400038460094FBF76EFFBDE8F883FCF784FC5D
:104F5000FEF70AFCFEF770FAFEF754FAFEF7F6FACF
:104F6000FEF778FBFEF720FAFEF714FBFEF78EFB48
:104F7000FEF750FF01E0FEF749FFFCE770B504467D
:104F8000FDF708FFAE20FDF7D3FEFDF751FF00B19E
:104F900018E02046FDF7CCFEFDF74AFF00B111E016
:104FA000FDF7F8FEAF20FDF7C3FEFDF741FF00B1AE
:104FB00008E0FDF78FFE0546FDF76CFEFDF718FFD4
:104FC000284670BDFDF714FF0020FAE770B50546CE
:104FD0000C46FDF7DFFEAE20FDF7AAFEFDF728FF29
:104FE00000B111E02846FDF7A3FEFDF721FF00B157
:104FF0000AE02046FDF79CFEFDF71AFF00B103E032
:10500000FDF7F6FE012070BDFDF7F2FE0020FAE785
:105010002DE9F04782460C46174600253E46FDF72F
:10502000B9FEAE20FDF784FEFDF702FF00B13BE0C4
:105030005046FDF77DFEFDF7FBFE00B134E0FDF7C5
:10504000A9FEAF20FDF774FEFDF7F2FE00B12BE0E4
:1050500025E0FDF73FFE8046FDF7FCFDFDF73AFE3B
:105060008146FDF7F7FD49EA082024F82500FDF701
:1050700031FE8046FDF7EEFDFDF72CFE8146012E48
:1050800002D1FDF707FE01E0FDF7E4FD49EA082043
:1050900004EB85014880701EC6B2681CC5B2002EA4
:1050A000D7D1FDF7A5FE00BFFDF7A2FEBDE8F08752
:1050B00010B50B210620FFF789FFF0210120FFF733
:1050C00085FF00210846FFF781FF33210920FFF704
:1050D0007DFF47210720FFF779FF00210220FFF71E
:1050E00075FF00210320FFF771FF0F210420FFF758
:1050F0006DFF10BD2DE9FC4104460D46CDE900458C
:10510000019800F0004080B120462946FBF714FBCF
:105110008046FBF7C5FA07464FF07E51FBF7C2F811
:105120000646FBF728FBBDE8FC8120462946FBF735
:1051300003FB0746FBF7B4FA0646FBF71CFBF2E756
:105140002DE9FC5F06460F4614461D460022134615
:1051500020462946FBF722FB03D100200146BDE88B
:10516000FC9F22462B4630463946FBF72AFA8246F8
:10517000FFF7C0FFCDE9000122462B46DDE9000123
:10518000FBF7ADF9824632463B46FBF7A5F9804670
:1051900089460022134630463946FBF7FFFA02D211
:1051A0004FF0010A01E04FF0000A002213462046AA
:1051B0002946FBF7F3FA01D2012000E000208245E6
:1051C00007D022462B4640464946FBF782F98046E7
:1051D000894640464946C2E70A490968096809B94B
:1051E000012100E0002121B14FF0FF31064A11609A
:1051F00006E004490968C968C868034A4168116043
:1052000070470000240000205000002010B5044624
:10521000034890FBF4F10348C160FDF75EFB10BD4D
:1052200040420F00A442002010B50446002C0ADBC7
:10523000152C08DA04490C800449034A128831F815
:105240001200FFF7E3FF10BD5C000020E8680008D3
:1052500070B50546FBF7A1FB044620F00040C0F105
:10526000FF40C00F08D025F00040C0F1FF40C00F44
:1052700004BF0120FEF744FF204670BD10B50C4866
:10528000407A082806DB002009494872FFF7EEFC47
:1052900000F0B0F80648807A012807DB00200449B6
:1052A0008872087A00F006F800F056F810BD000089
:1052B0007441002038B5044614B1012C1DD10DE015
:1052C00048F2104000F028F80DA041F282031F229E
:1052D000022100900320FBF751FD0EE04FF47840CF
:1052E00000F01AF809A041F282034FF47042022143
:1052F00000900320FBF742FD00BF00BF38BD000057
:105300004E6F726D616C2020202000004361757427
:10531000696F6E202020000038B504467F231A46AE
:10532000012100200094FFF7ECFD12237F220121D0
:1053300000200094FFF7E5FD1223642201210020E4
:105340000094FFF7DEFD7F231A46392100200094E8
:10535000FFF7D7FD38BD0000F0B58FB01D480288BB
:105360001DA102A8FEF78CFE02A841F282034FF6AF
:10537000E072142100902820FBF700FD15494868D1
:10538000FBF7F9F90646164A164BFBF71FFA02D24D
:105390001348144903E00F494868FBF7ECF9044649
:1053A000FBF72CFA0B4948604868FBF7E4F9044620
:1053B00022460B460CA102A8FEF762FE02A841F2AB
:1053C000820340F2FF72262100902820FBF7D6FCD2
:1053D0000FB0F0BD74410020253364202000000090
:1053E0008FC2F5285CFF58402025322E32662525D5
:1053F0002020000038B51C490868FBF789F984B201
:1054000048F6F07000901948017823461848028841
:10541000012000F031F814494868FBF779F984B2AB
:105420004FF61F400090114801782346114802882A
:10543000002000F021F80D480088512803DA0B48BD
:105440000088401C00E000200849088006490868E0
:10545000FBF75EF90649088003494868FBF758F9ED
:105460000449088038BD0000040000200C00002022
:105470000E000020100000202DE9F84F07460C46D2
:1054800090469946DDF828A004250FB97A2000E05F
:1054900059200646601C522830DA44F2082006F1F2
:1054A000010C1FFA8CF305EB040C0CF1020C1FFA33
:1054B0008CF2A6F11C0C1FFA8CF105EB040C0CF11C
:1054C000020C00901FFA8CF0FBF7ACFC002006F1F8
:1054D000010C1FFA8CF305EB040C0CF1010C1FFA04
:1054E0008CF2A6F11C0C1FFA8CF105EB040C0CF1EC
:1054F000010C00901FFA8CF0FBF794FCA6EB090C52
:105500001FFA8CF305EB040C0CF1010C1FFA8CF262
:10551000A6EB080C1FFA8CF105EB040C1FFA8CF0BB
:10552000CDF800A0FBF77EFCBDE8F88F1CB541F27A
:105530008200FDF7F4FC48F21040FFF7EDFE00207A
:1055400044F208215B235722CDE900103C210320BF
:10555000FFF79DFC002044F208217C235722CDE96F
:1055600000105D210320FFF792FC002044F2082187
:105570005B237D22CDE900103C215920FFF787FCF9
:10558000002044F208217C237D22CDE900105D211A
:105590005920FFF77CFC1CA041F282034FF6E07219
:1055A000142100900320FBF7E9FB19A041F28203CC
:1055B00040F2FF72262100900320FBF7DFFB16A0CC
:1055C000002348F6F072432100905B20FBF7D6FBE6
:1055D00012A000234FF61F42642100905B20FBF7CE
:1055E000CDFB10A000234FF4FC6202210090662046
:1055F000FBF7C4FB0CA041F282031F2202210090A2
:105600000320FBF7BBFB1CBD485220203A000000E2
:1056100053704F323A0000002048620048624F3217
:1056200000000000464654004E6F726D616C2020F1
:105630002020000001460A69D1E901309860D1E9D3
:10564000010358605068884201D18868506000208A
:1056500008611068401E10601068704742684A6018
:1056600093688B60936859609160086103685B1C64
:10567000036070471E48006818B101201D4908608A
:1056800034E000201B4908601B4801680CE051B958
:1056900000BF502080F31188BFF34F8FBFF36F8F8F
:1056A00000BF00BFFEE7491E01EB8100134A52F81C
:1056B000200008B9012000E000200028E7D101EB1C
:1056C00081020E4B03EB820042685268426000F197
:1056D00008024368934202D14268526842604268BD
:1056E000D268074B1A600448016000BF7047000091
:1056F00058000020440000203800002064430020AF
:10570000200000202DE9F0414FF0000843480068D8
:10571000002876D142480068451C4148056015BB09
:1057200040480068006808B9012000E0002050B936
:1057300000BF502080F31188BFF34F8FBFF36F8FEE
:1057400000BF00BFFEE737480768374800683549A3
:1057500008603548076035480068401C33490860D8
:10576000FFF73AFD00BF3248006885423BD300BFD7
:105770002C480068006808B9012000E0002020B132
:105780004FF0FF302A4908602CE026480068C068C6
:10579000C4686668B54202D22548066022E0201D32
:1057A000FFF748FFA06A18B104F11800FFF742FFA5
:1057B0002049E06A0968884202D91E49E06A086007
:1057C000E16A01EB81011C4A02EB8100211DFFF718
:1057D00045FF1A49E06A0968C96A8842C8D34FF090
:1057E0000108C5E700BF15480068C06A00EB8000EB
:1057F000114951F82000012801D94FF0010805E0B6
:10580000FFE70F480068401C0D4908600D4800681C
:1058100008B14FF001084046BDE8F0815800002073
:105820003400002024000020280000204800002030
:105830005000002038000020644300202000002099
:105840004000002044000020000000000000000094
:1058500000000000000000000010101010101010D8
:10586000101000001010000000006C6C24240000D8
:1058700000000100000000000024242424FE484809
:105880004848FC909090900000103C549290503802
:1058900014121292547810000000225C94A8481050
:1058A00010242A5254880000000030484850206ECE
:1058B00054948C888A74000000003030101000006E
:1058C000000000000000000000040810102020204C
:1058D000202020101008040000804020201010100C
:1058E00010101020204080000000000010543810DC
:1058F000385410000000000000000010101010FECE
:105900001010101000000000000000000000000057
:10591000000000001010200000000000000000FE49
:105920000000000000000000000000000000000077
:10593000000000001010000000000404080810100F
:105940002020404080800000000038448282828213
:105950008282828244380000000010701010101003
:1059600010101010107C00000000384482820408DF
:105970001020408284FC0000000038448202043879
:1059800004020282443800000000040C1414242491
:105990004444FE04040E00000000FC808080B8C473
:1059A000820202828478000000003C428280B8C4F7
:1059B000828282824438000000007E428204040811
:1059C000080810101010000000003844828244388B
:1059D00044828282443800000000384482828282FD
:1059E000463A028244380000000000001010000017
:1059F0000000101000000000000000001010000067
:105A00000000001010200000000000000618608058
:105A10006018060000000000000000000000FE000A
:105A200000FE00000000000000000000C0300C027A
:105A30000C30C000000000000038448282020408DC
:105A4000101010001010000000003844829AAAAA1A
:105A5000AAAAAA9680423C0000001010102828280C
:105A600044447C4444EE00000000FC424242427C3C
:105A70004242424242FC000000003C44828080805E
:105A800080808282443800000000F8444242424252
:105A90004242424244F800000000FC444240447C40
:105AA0004440404244FC00000000FC444240447C2E
:105AB0004440404040F000000000344C8280808030
:105AC0008E8484844C3400000000EE444444447CC2
:105AD0004444444444EE000000007C1010101010B8
:105AE00010101010107C000000003E080808080884
:105AF00008080888887000000000EE44484850609C
:105B00005048484444EE00000000E040404040401F
:105B10004040404244FC00000000C6446C6C6C54A1
:105B20005454444444EE00000000CE446464645481
:105B3000544C4C4C44E40000000038448282828281
:105B400082828282443800000000F844424242448B
:105B50007840404040E00000000038448282828269
:105B6000828282BA443C02000000F0484444444827
:105B70007048444444E6000000003C4482804030C9
:105B80000C0202824478000000007C549210101035
:105B900010101010103800000000EE44444444443B
:105BA00044444444443800000000EE444444442843
:105BB00028282810101000000000EE4454545454BB
:105BC00054542828282800000000EE4444282810B7
:105BD0001028284444EE00000000EE444428282801
:105BE000101010101038000000007E4484080810C7
:105BF0002020408284FC0000001C101010101010A7
:105C00001010101010101C000000EE445454FE54EC
:105C1000545428282828000000701010101010106C
:105C200010101010101070000030488400000000A8
:105C30000000000000000000000000000000000064
:105C4000000000000000FE000040200000000000F6
:105C50000000000000000000000000000000788448
:105C6000047C84848C7600000000C040404058646E
:105C700042424242645800000000000000003844E4
:105C8000808080804438000000000C040404344C00
:105C9000848484844C360000000000000000788476
:105CA00084FC808084780000000018242020F820E4
:105CB00020202020207000000000000000003A4456
:105CC0004478807C82827C000000C0404040586460
:105CD0004444444444EE0000000010100000301022
:105CE00010101010103800000000101000003010CC
:105CF00010101010109060000000C04040405C4840
:105D00005060504844EE0000000030101010101198
:105D10001010101010390000000000000000ACD27C
:105D20009292929292D6000000000000000058E487
:105D30004444444444EE00000000000000003844A5
:105D40008282828244380000000000000000D86493
:105D5000424242645840E000000000000000364C1F
:105D60008484844C34040E000000000000006C3079
:105D70002020202020700000000000000000788813
:105D80008460188444780000000000202020F8205F
:105D90002020202024180000000000000000C6423F
:105DA00042424242463A0000000000000000EE4439
:105DB0004428282810100000000000000000EE44D5
:105DC0004454542828280000000000000000EE443D
:105DD0002810102844EE0000000000000000EE44EF
:105DE0004428281010A0C0000000000000007E44DD
:105DF0008810204284FC0000000C1010101010606D
:105E00001010101010100C000010101010101010B6
:105E1000101010101010100000C02020202020189A
:105E2000202020202020C000000000000000007280
:105E30008C000000000000000000000000001FE0D7
:105E400000003FF000003FF000001FE0000180066E
:105E50000003C00F0003C00F0003C00F0003C00FFA
:105E60000003C00F0003C00F0003C00F0003C00FEA
:105E7000000300030000000000000000000000001C
:105E8000000300030003C00F0003C00F0003C00F96
:105E90000003C00F0003C00F0003C00F0003C00FBA
:105EA0000003C00F0001800600001FE000003FF06B
:105EB00000003FF000001FE00000000000000000B4
:105EC00000000080000001800000038000000780C7
:105ED00000000780000007800000078000000780A6
:105EE0000000078000000780000007800000078096
:105EF0000000018000000000000000000000000021
:105F0000000001800000078000000780000007807B
:105F10000000078000000780000007800000078065
:105F2000000007800000078000000380000001805F
:105F300000000080000000000000000000001FE0E2
:105F400000003FF00000FFF00001FFE0000000064D
:105F50000000000F0000000F0000000F0000000F05
:105F60000000000F0000000F0000000F0000000FF5
:105F700000001FE300007FF800007FF800001FE032
:105F8000000300000003C0000003C0000003C000C5
:105F90000003C0000003C0000003C0000003C000F5
:105FA0000003C0000001800000001FF000003FF867
:105FB00000003FFC00001FFE000000000003FF8007
:105FC0000001FFC00000FFC000007F80000000183B
:105FD0000000003C0000003C0000003C0000003CD1
:105FE0000000003C0000003C0000003C0000003CC1
:105FF00000007F8C0001FFE00001FFF000007F80C7
:106000000000000C0000003C0000003C0000003CD0
:106010000000003C0000003C0000003C0000003C90
:106020000000003C0000001800007F800000FFC05E
:106030000001FFC00003FF8000000000000000001E
:106040000002000100030003000380070003C00FEB
:106050000003C00F0003C00F0003C00F0003C00FF8
:106060000003C00F0003C00F0003C00F0003C00FE8
:1060700000031FE300007FF800007FFC00001FE02A
:10608000000000030000000F0000000F0000000FE0
:106090000000000F0000000F0000000F0000000FC4
:1060A0000000000F0000000F0000000700000003C8
:1060B00000000001000000000000000000001FFCC4
:1060C00000003FF800003FF000001FE000018000EA
:1060D0000003C0000003C0000003C0000003C000B4
:1060E0000003C0000003C0000003C0000003C000A4
:1060F00000031FE000007FF800007FF800001FE0B1
:10610000000000030000000F0000000F0000000F5F
:106110000000000F0000000F0000000F0000000F43
:106120000000000F0000000600003FE000007FF0CC
:106130000000FFF00001FFE00000000000001FFC75
:1061400000003FF800003FF000001FE00001800069
:106150000003C0000003C0000003C0000003C00033
:106160000003C0000003C0000003C0000003C00023
:1061700000031FE000007FF800007FFC00001FE02C
:10618000000300030003C00F0003C00F0003C00F93
:106190000003C00F0003C00F0003C00F0003C00FB7
:1061A0000003C00F0001800600001FE000003FF068
:1061B00000003FF000001FE0000000000007FFE0CB
:1061C0000003FFC00001FF880000FF180000003836
:1061D00000000078000000780000007800000078DF
:1061E00000000078000000780000007800000078CF
:1061F0000000001800000000000000000000000087
:10620000000000180000007800000078000000780E
:10621000000000780000007800000078000000789E
:10622000000000780000007800000038000000182E
:1062300000000008000000000000000000001FE057
:1062400000003FF000003FF000001FE0000180066A
:106250000003C00F0003C00F0003C00F0003C00FF6
:106260000003C00F0003C00F0003C00F0003C00FE6
:1062700000031FE300007FF800007FFC00001FE028
:10628000000300030003C00F0003C00F0003C00F92
:106290000003C00F0003C00F0003C00F0003C00FB6
:1062A0000003C00F0001800600001FE000003FF067
:1062B00000003FF000001FE00000000000001FE0B1
:1062C00000003FF000003FF000001FE000018006EA
:1062D0000003C00F0003C00F0003C00F0003C00F76
:1062E0000003C00F0003C00F0003C00F0003C00F66
:1062F00000031FE300007FF800007FFC00001FE0A8
:10630000000000030000000F0000000F0000000F5D
:106310000000000F0000000F0000000F0000000F41
:106320000000000F0000000600001FE000003FF02A
:1063300000007FF00000FFE000000000000000000F
:10634000000000000000000000000000000000004D
:10635000000000000000000000000000000000003D
:10636000000000000000000000000000000000002D
:10637000000000000000000000000000000000001D
:106380000000000000000000000000000000780095
:10639000000078000000780000007800000078001D
:1063A0000000780000000000000000000000000075
:1063B00000000000000000000000000000000000DD
:1063C00000000000000000000000000000000000CD
:1063D00000000000000000000000070000000F8027
:1063E00000000F8000000F80000007000000000088
:1063F000000000000000000000000000000000009D
:10640000000000000000070000000F8000000F8067
:1064100000000F80000007000000000000000000E6
:10642000000000000000000000000000000000006C
:10643000000000000000000000000000000000005C
:1064400000000000000000000007C006000FE0068A
:106450000000000C003018180030181800301830F8
:106460000030183000301860003008C00007C0C08D
:10647000000FE080000000000000000FE0000607B1
:10648000C000063018000C3018000C30180018300E
:106490001800303018003030180060000000C00FC5
:1064A000E000C007C0000000000000000000000085
:1064B00000000000000000000000000000000000DC
:1064C00000000000000000000000000000000000CC
:1064D000000700E0000887FC00088E030008980110
:1064E00080071800800030000000300000007000BD
:1064F000000060000000600000006000000060001C
:10650000000060000000700000003000000030005B
:10651000000038000000180100000C03000007FC18
:10652000000001F00000000000000000000000007A
:10653000000000000000000000000000000000005B
:10654000000000000000000000000000000000004B
:10655000000000000000000000000000000000003B
:10656000000000000000000000000000000000002B
:106570000000000000003FF000007FF000007FE01E
:106580000000FFC00000000000000000000000004C
:1065900000000000000000000000000000000000FB
:1065A00000000000000000000000000000000000EB
:1065B00000000000000000000000000000000000DB
:1065C00000000000000000006F0EA6389415903FF8
:1065D0006058F72D1215A03FAB047532561EA83F28
:1065E0007993E01B0A13B03F498E3932E515B43F69
:1065F000F017FC7F7B17B83FDA97623D8C17BC3FE2
:10660000E05BA15DEB0AC03FE9AA91330D09C23FEF
:106610007553A8670B06C43F6C2377D3C501C63FEB
:10662000797A03651CFCC73FA3DDCC20EFF4C93F9A
:106630006A1FD2231EECCB3FCCFB94A589E1CD3F52
:1066400096071CFA11D5CF3F4769F9C94BE3D03FF4
:106650000E0E1483FDDAD13F1FFD24838ED1D23F6D
:106660004FE92F37EFC6D33FFB02711F10BBD43F5A
:10667000DD9657D0E1ADD53F4B667FF3549FD63FB3
:1066800019A9A8485A8FD73F63A9AEA6E27DD83F83
:10669000C2E97CFCDE6AD93F63C602524056DA3F4B
:1066A0009D8125C9F73FDB3FC3ACB09EF627DC3F99
:1066B00001DE442B2E0EDD3F1FA444E48FF2DD3FAC
:1066C00052A9BF5C0DD5DE3F24F65B4698B5DF3F8F
:1066D000E4A21E39114AE03F9C2EF5E84EB8E03F97
:1066E000512B183C7E25E13F5CE9014D9891E13F3B
:1066F000EA00B04796FCE13F57BB116A7166E23F82
:106700005E5A750423CFE23F4136F479A436E33F65
:106710000BACDD40EF9CE33F2AD520E3FC01E43FD6
:10672000BC01B5FEC665E43FEFEE004647C8E43F56
:10673000ECB240807729E53FF057EA895189E53F7F
:1067400014201155CFE7E53FA66BC7E9EA44E63FC1
:10675000CD3B7F669EA0E63F664B6900E4FAE63FCC
:1067600016B8D203B653E73FA53581D40EABE73F49
:10677000DCC50DEEE800E83F14EF3DE43E55E83F90
:10678000EA6B5B630BA8E83F844E8A3049F9E83F27
:10679000F2911D2AF348E93F5714EA470497E93F6D
:1067A000A8F4979B77E3E93FC94EF250482EEA3FA1
:1067B000095135AE7177EA3F17A65A14EFBEEA3F8A
:1067C000862E64FFBB04EB3F4005A506D448EB3F93
:1067D0003CCA08DD328BEB3FF72E5951D4CBEB3F4F
:1067E0005AC0814EB40AEC3FA7E9D1DBCE47EC3F5B
:1067F0006C2C3D1D2083EC3F45899953A4BCEC3F94
:106800008C15DCDC57F4EC3F31BA5334372AED3FBA
:10681000ED17E2F23E5EED3F468D32CF6B90ED3FDD
:10682000E55AEF9DBAC0ED3FE3E2F45128EFED3FAA
:10683000D8FF82FCB11BEE3F7E706CCD5446EE3F1C
:10684000FF5444130E6FEE3FF5BA893BDB95EE3FE4
:106850007235D1D2B9BAEE3F667EEC84A7DDEE3F49
:10686000E01E101DA2FEEE3FCF1BF785A71DEF3FD8
:10687000F8A404CAB53AEF3F14C46313CB55EF3FF5
:10688000FF0925ACE56EEF3F21385AFE0386EF3F46
:106890005CE42F94249BEF3FD015051846AEEF3FE4
:1068A00003D9805467BFEF3F03CAA53487CEEF3FBB
:1068B0005C93E3C3A4DBEF3FAF60262EBFE6EF3F60
:1068C000FE43E4BFD5EFEF3FD38C28E6E7F6EF3F7A
:1068D00086109D2EF5FBEF3F12639147FDFEEF3FC3
:1068E000000000000000F03F060126014A015D01A2
:1068F0008801B801EE010B024B029302BA021003A9
:106900007003DC0317049704270575052006E006CD
:10691000F00600000000000000000102030406076A
:106920000809000000000102030400004C6900088F
:106930000000002074000000E0400008C06900086A
:1069400074000020B44B0000F0400008000000007C
:106950000000000000000000000000000000000037
:106960000000000000000000000000000000000027
:106970000000000000000000000000000000000017
:106980000000000000000000000000000000000007
:1069900000000000000000000000000000000000F7
:1069A00000000000000000000000000000000000E7
:1069B00010000000010000000024F40000000000AE
:04000005080000ED02
:00000001FF
