Component: ARM Compiler 5.06 update 6 (build 750) Tool: armlink [4d35ed]

==============================================================================

Section Cross References

    startup_stm32f103xb.o(RESET) refers to startup_stm32f103xb.o(STACK) for __initial_sp
    startup_stm32f103xb.o(RESET) refers to startup_stm32f103xb.o(.text) for Reset_Handler
    startup_stm32f103xb.o(RESET) refers to stm32f1xx_it.o(i.NMI_Handler) for NMI_Handler
    startup_stm32f103xb.o(RESET) refers to stm32f1xx_it.o(i.HardFault_Handler) for HardFault_Handler
    startup_stm32f103xb.o(RESET) refers to stm32f1xx_it.o(i.MemManage_Handler) for MemManage_Handler
    startup_stm32f103xb.o(RESET) refers to stm32f1xx_it.o(i.BusFault_Handler) for BusFault_Handler
    startup_stm32f103xb.o(RESET) refers to stm32f1xx_it.o(i.UsageFault_Handler) for UsageFault_Handler
    startup_stm32f103xb.o(RESET) refers to port.o(.emb_text) for SVC_Handler
    startup_stm32f103xb.o(RESET) refers to stm32f1xx_it.o(i.DebugMon_Handler) for DebugMon_Handler
    startup_stm32f103xb.o(RESET) refers to port.o(i.SysTick_Handler) for SysTick_Handler
    startup_stm32f103xb.o(RESET) refers to stm32f1xx_it.o(i.DMA1_Channel5_IRQHandler) for DMA1_Channel5_IRQHandler
    startup_stm32f103xb.o(RESET) refers to stm32f1xx_it.o(i.TIM4_IRQHandler) for TIM4_IRQHandler
    startup_stm32f103xb.o(RESET) refers to stm32f1xx_it.o(i.USART1_IRQHandler) for USART1_IRQHandler
    startup_stm32f103xb.o(RESET) refers to stm32f1xx_it.o(i.USART2_IRQHandler) for USART2_IRQHandler
    startup_stm32f103xb.o(.text) refers to system_stm32f1xx.o(i.SystemInit) for SystemInit
    startup_stm32f103xb.o(.text) refers to entry.o(.ARM.Collect$$$$00000000) for __main
    user_main.o(i.User_Interrupt) refers to blood.o(i.blood_Interrupt) for blood_Interrupt
    user_main.o(i.User_Loop) refers to blood.o(i.blood_Loop) for blood_Loop
==============================================================================

Removing Unused input sections from the image.

    Removing startup_stm32f103xb.o(HEAP), (512 bytes).
    Removing user_main.o(.rev16_text), (4 bytes).
    Removing user_main.o(.revsh_text), (4 bytes).
    Removing user_main.o(.rrx_text), (6 bytes).
    Removing gui.o(.rev16_text), (4 bytes).
    Removing gui.o(.revsh_text), (4 bytes).
    Removing gui.o(.rrx_text), (6 bytes).
    Removing gui.o(i.Gui_Circle), (300 bytes).
    Removing gui.o(i.Gui_DrawFont_GBK24), (148 bytes).
    Removing gui.o(i.Gui_DrawFont_Num32), (128 bytes).
    Removing gui.o(i.LCD_BGR2RGB), (26 bytes).
    Removing algorithm.o(.rev16_text), (4 bytes).
    Removing algorithm.o(.revsh_text), (4 bytes).
    Removing algorithm.o(.rrx_text), (6 bytes).
    Removing algorithm.o(i.bw_filter), (104 bytes).
    Removing algorithm.o(i.qsqrt), (48 bytes).
    Removing blood.o(.rev16_text), (4 bytes).
    Removing blood.o(.revsh_text), (4 bytes).
==============================================================================

Image Symbol Table

    Local Symbols

    Symbol Name                              Value     Ov Type        Size  Object(Section)

    ../Core/Src/adc.c                        0x00000000   Number         0  adc.o ABSOLUTE
    ../Core/Src/dma.c                        0x00000000   Number         0  dma.o ABSOLUTE
    ../Core/Src/freertos.c                   0x00000000   Number         0  freertos.o ABSOLUTE
    ../Core/Src/gpio.c                       0x00000000   Number         0  gpio.o ABSOLUTE
    ../Core/Src/main.c                       0x00000000   Number         0  main.o ABSOLUTE
    ../Core/Src/spi.c                        0x00000000   Number         0  spi.o ABSOLUTE
    ../Core/Src/stm32f1xx_hal_msp.c          0x00000000   Number         0  stm32f1xx_hal_msp.o ABSOLUTE
    ../Core/Src/stm32f1xx_hal_timebase_tim.c 0x00000000   Number         0  stm32f1xx_hal_timebase_tim.o ABSOLUTE
    ../Core/Src/stm32f1xx_it.c               0x00000000   Number         0  stm32f1xx_it.o ABSOLUTE
    ../Core/Src/sys.c                        0x00000000   Number         0  sys.o ABSOLUTE
    ../Core/Src/system_stm32f1xx.c           0x00000000   Number         0  system_stm32f1xx.o ABSOLUTE
    ../Core/Src/tim.c                        0x00000000   Number         0  tim.o ABSOLUTE
    ../Core/Src/usart.c                      0x00000000   Number         0  usart.o ABSOLUTE
    ../Drivers/STM32F1xx_HAL_Driver/Src/stm32f1xx_hal.c 0x00000000   Number         0  stm32f1xx_hal.o ABSOLUTE
    ../Drivers/STM32F1xx_HAL_Driver/Src/stm32f1xx_hal_adc.c 0x00000000   Number         0  stm32f1xx_hal_adc.o ABSOLUTE
    ../Drivers/STM32F1xx_HAL_Driver/Src/stm32f1xx_hal_adc_ex.c 0x00000000   Number         0  stm32f1xx_hal_adc_ex.o ABSOLUTE
    ../Drivers/STM32F1xx_HAL_Driver/Src/stm32f1xx_hal_cortex.c 0x00000000   Number         0  stm32f1xx_hal_cortex.o ABSOLUTE
    ../Drivers/STM32F1xx_HAL_Driver/Src/stm32f1xx_hal_dma.c 0x00000000   Number         0  stm32f1xx_hal_dma.o ABSOLUTE
    ../Drivers/STM32F1xx_HAL_Driver/Src/stm32f1xx_hal_exti.c 0x00000000   Number         0  stm32f1xx_hal_exti.o ABSOLUTE
    ../Drivers/STM32F1xx_HAL_Driver/Src/stm32f1xx_hal_flash.c 0x00000000   Number         0  stm32f1xx_hal_flash.o ABSOLUTE
    ../Drivers/STM32F1xx_HAL_Driver/Src/stm32f1xx_hal_flash_ex.c 0x00000000   Number         0  stm32f1xx_hal_flash_ex.o ABSOLUTE
    ../Drivers/STM32F1xx_HAL_Driver/Src/stm32f1xx_hal_gpio.c 0x00000000   Number         0  stm32f1xx_hal_gpio.o ABSOLUTE
    ../Drivers/STM32F1xx_HAL_Driver/Src/stm32f1xx_hal_gpio_ex.c 0x00000000   Number         0  stm32f1xx_hal_gpio_ex.o ABSOLUTE
    ../Drivers/STM32F1xx_HAL_Driver/Src/stm32f1xx_hal_pwr.c 0x00000000   Number         0  stm32f1xx_hal_pwr.o ABSOLUTE
    ../Drivers/STM32F1xx_HAL_Driver/Src/stm32f1xx_hal_rcc.c 0x00000000   Number         0  stm32f1xx_hal_rcc.o ABSOLUTE
    ../Drivers/STM32F1xx_HAL_Driver/Src/stm32f1xx_hal_rcc_ex.c 0x00000000   Number         0  stm32f1xx_hal_rcc_ex.o ABSOLUTE
    ../Drivers/STM32F1xx_HAL_Driver/Src/stm32f1xx_hal_spi.c 0x00000000   Number         0  stm32f1xx_hal_spi.o ABSOLUTE
    ../Drivers/STM32F1xx_HAL_Driver/Src/stm32f1xx_hal_tim.c 0x00000000   Number         0  stm32f1xx_hal_tim.o ABSOLUTE
    ../Drivers/STM32F1xx_HAL_Driver/Src/stm32f1xx_hal_tim_ex.c 0x00000000   Number         0  stm32f1xx_hal_tim_ex.o ABSOLUTE
    ../Drivers/STM32F1xx_HAL_Driver/Src/stm32f1xx_hal_uart.c 0x00000000   Number         0  stm32f1xx_hal_uart.o ABSOLUTE
    ../Middlewares/Third_Party/FreeRTOS/Source/CMSIS_RTOS_V2/cmsis_os2.c 0x00000000   Number         0  cmsis_os2.o ABSOLUTE
    ../Middlewares/Third_Party/FreeRTOS/Source/croutine.c 0x00000000   Number         0  croutine.o ABSOLUTE
    ../Middlewares/Third_Party/FreeRTOS/Source/event_groups.c 0x00000000   Number         0  event_groups.o ABSOLUTE
    ../Middlewares/Third_Party/FreeRTOS/Source/list.c 0x00000000   Number         0  list.o ABSOLUTE
    ../Middlewares/Third_Party/FreeRTOS/Source/portable/MemMang/heap_4.c 0x00000000   Number         0  heap_4.o ABSOLUTE
    ../Middlewares/Third_Party/FreeRTOS/Source/portable/RVDS/ARM_CM3/port.c 0x00000000   Number         0  port.o ABSOLUTE
    ../Middlewares/Third_Party/FreeRTOS/Source/queue.c 0x00000000   Number         0  queue.o ABSOLUTE
    ../Middlewares/Third_Party/FreeRTOS/Source/stream_buffer.c 0x00000000   Number         0  stream_buffer.o ABSOLUTE
    ../Middlewares/Third_Party/FreeRTOS/Source/tasks.c 0x00000000   Number         0  tasks.o ABSOLUTE
    ../Middlewares/Third_Party/FreeRTOS/Source/timers.c 0x00000000   Number         0  timers.o ABSOLUTE
    ../clib/microlib/division.c              0x00000000   Number         0  uldiv.o ABSOLUTE
    ../clib/microlib/division.c              0x00000000   Number         0  uidiv.o ABSOLUTE
    ../clib/microlib/errno.c                 0x00000000   Number         0  errno.o ABSOLUTE
    ../clib/microlib/init/entry.s            0x00000000   Number         0  entry11b.o ABSOLUTE
    ../clib/microlib/init/entry.s            0x00000000   Number         0  entry11a.o ABSOLUTE
    ../clib/microlib/init/entry.s            0x00000000   Number         0  entry10b.o ABSOLUTE
    ../clib/microlib/init/entry.s            0x00000000   Number         0  entry10a.o ABSOLUTE
    ../clib/microlib/init/entry.s            0x00000000   Number         0  entry.o ABSOLUTE
    ../clib/microlib/init/entry.s            0x00000000   Number         0  entry9a.o ABSOLUTE
    ../clib/microlib/init/entry.s            0x00000000   Number         0  entry9b.o ABSOLUTE
    ../clib/microlib/init/entry.s            0x00000000   Number         0  entry8a.o ABSOLUTE
    ../clib/microlib/init/entry.s            0x00000000   Number         0  entry7b.o ABSOLUTE
    ../clib/microlib/init/entry.s            0x00000000   Number         0  entry7a.o ABSOLUTE
    ../clib/microlib/init/entry.s            0x00000000   Number         0  entry5.o ABSOLUTE
    ../clib/microlib/init/entry.s            0x00000000   Number         0  entry2.o ABSOLUTE
    ../clib/microlib/init/entry.s            0x00000000   Number         0  entry8b.o ABSOLUTE
    ../clib/microlib/longlong.c              0x00000000   Number         0  llshl.o ABSOLUTE
    ../clib/microlib/longlong.c              0x00000000   Number         0  llsshr.o ABSOLUTE
    ../clib/microlib/longlong.c              0x00000000   Number         0  llushr.o ABSOLUTE
    ../clib/microlib/printf/printf.c         0x00000000   Number         0  printf2.o ABSOLUTE
    ../clib/microlib/printf/printf.c         0x00000000   Number         0  printf0.o ABSOLUTE
    ../clib/microlib/printf/printf.c         0x00000000   Number         0  printf4.o ABSOLUTE
    ../clib/microlib/printf/printf.c         0x00000000   Number         0  printf3.o ABSOLUTE
    ../clib/microlib/printf/printf.c         0x00000000   Number         0  printf5.o ABSOLUTE
    ../clib/microlib/printf/printf.c         0x00000000   Number         0  printf6.o ABSOLUTE
    ../clib/microlib/printf/printf.c         0x00000000   Number         0  printf7.o ABSOLUTE
    ../clib/microlib/printf/printf.c         0x00000000   Number         0  printf1.o ABSOLUTE
    ../clib/microlib/printf/printf.c         0x00000000   Number         0  printfb.o ABSOLUTE
    ../clib/microlib/printf/printf.c         0x00000000   Number         0  printf8.o ABSOLUTE
    ../clib/microlib/printf/printf.c         0x00000000   Number         0  printfa.o ABSOLUTE
    ../clib/microlib/printf/stubs.s          0x00000000   Number         0  stubs.o ABSOLUTE
    ../clib/microlib/stdio/fputc.c           0x00000000   Number         0  fputc.o ABSOLUTE
    ../clib/microlib/stdio/semi.s            0x00000000   Number         0  semi.o ABSOLUTE
    ../clib/microlib/stdio/streams.c         0x00000000   Number         0  stdout.o ABSOLUTE
    ../clib/microlib/string/memcpy.c         0x00000000   Number         0  memcpya.o ABSOLUTE
    ../clib/microlib/string/memcpy.c         0x00000000   Number         0  memcpyb.o ABSOLUTE
    ../clib/microlib/string/memset.c         0x00000000   Number         0  memset.o ABSOLUTE
    ../clib/microlib/string/memset.c         0x00000000   Number         0  memseta.o ABSOLUTE
    ../clib/microlib/stubs.s                 0x00000000   Number         0  iusesemip.o ABSOLUTE
    ../clib/microlib/stubs.s                 0x00000000   Number         0  iusefp.o ABSOLUTE
    ../fplib/microlib/d2f.c                  0x00000000   Number         0  d2f.o ABSOLUTE
    ../fplib/microlib/f2d.c                  0x00000000   Number         0  f2d.o ABSOLUTE
    ../fplib/microlib/fpadd.c                0x00000000   Number         0  dadd.o ABSOLUTE
    ../fplib/microlib/fpadd.c                0x00000000   Number         0  fadd.o ABSOLUTE
    ../fplib/microlib/fpdiv.c                0x00000000   Number         0  ddiv.o ABSOLUTE
    ../fplib/microlib/fpdiv.c                0x00000000   Number         0  fdiv.o ABSOLUTE
    ../fplib/microlib/fpepilogue.c           0x00000000   Number         0  fepilogue.o ABSOLUTE
    ../fplib/microlib/fpepilogue.c           0x00000000   Number         0  depilogue.o ABSOLUTE
    ../fplib/microlib/fpfix.c                0x00000000   Number         0  ffixi.o ABSOLUTE
    ../fplib/microlib/fpfix.c                0x00000000   Number         0  ffixui.o ABSOLUTE
    ../fplib/microlib/fpfix.c                0x00000000   Number         0  dfixi.o ABSOLUTE
    ../fplib/microlib/fpfix.c                0x00000000   Number         0  dfixul.o ABSOLUTE
    ../fplib/microlib/fpflt.c                0x00000000   Number         0  dflti.o ABSOLUTE
    ../fplib/microlib/fpflt.c                0x00000000   Number         0  ffltui.o ABSOLUTE
    ../fplib/microlib/fpflt.c                0x00000000   Number         0  fflti.o ABSOLUTE
    ../fplib/microlib/fpmul.c                0x00000000   Number         0  dmul.o ABSOLUTE
    ../fplib/microlib/fpmul.c                0x00000000   Number         0  fmul.o ABSOLUTE
    ../fplib/microlib/fpsqrt.c               0x00000000   Number         0  fsqrt.o ABSOLUTE
    ../mathlib/sqrtf.c                       0x00000000   Number         0  sqrtf_x.o ABSOLUTE
    ../mathlib/sqrtf.c                       0x00000000   Number         0  sqrtf.o ABSOLUTE
    ..\App\Src\algorithm.c                   0x00000000   Number         0  algorithm.o ABSOLUTE
    ..\App\Src\blood.c                       0x00000000   Number         0  blood.o ABSOLUTE
    ..\App\Src\gui.c                         0x00000000   Number         0  gui.o ABSOLUTE
    ..\App\Src\user_main.c                   0x00000000   Number         0  user_main.o ABSOLUTE
    ..\Core\Src\adc.c                        0x00000000   Number         0  adc.o ABSOLUTE
    ..\Core\Src\dma.c                        0x00000000   Number         0  dma.o ABSOLUTE
    ..\Core\Src\freertos.c                   0x00000000   Number         0  freertos.o ABSOLUTE
    ..\Core\Src\gpio.c                       0x00000000   Number         0  gpio.o ABSOLUTE
    ..\Core\Src\main.c                       0x00000000   Number         0  main.o ABSOLUTE
    ..\Core\Src\spi.c                        0x00000000   Number         0  spi.o ABSOLUTE
    ..\Core\Src\stm32f1xx_hal_msp.c          0x00000000   Number         0  stm32f1xx_hal_msp.o ABSOLUTE
    ..\Core\Src\stm32f1xx_hal_timebase_tim.c 0x00000000   Number         0  stm32f1xx_hal_timebase_tim.o ABSOLUTE
    ..\Core\Src\stm32f1xx_it.c               0x00000000   Number         0  stm32f1xx_it.o ABSOLUTE
    ..\Core\Src\sys.c                        0x00000000   Number         0  sys.o ABSOLUTE
    ..\Core\Src\system_stm32f1xx.c           0x00000000   Number         0  system_stm32f1xx.o ABSOLUTE
    ..\Core\Src\tim.c                        0x00000000   Number         0  tim.o ABSOLUTE
    ..\Core\Src\usart.c                      0x00000000   Number         0  usart.o ABSOLUTE
    ..\Drivers\Device\Src\IICcom.c           0x00000000   Number         0  iiccom.o ABSOLUTE
    ..\Drivers\Device\Src\MAX30100.c         0x00000000   Number         0  max30100.o ABSOLUTE
    ..\Drivers\Device\Src\ST7735.c           0x00000000   Number         0  st7735.o ABSOLUTE
    ..\Drivers\Device\Src\beep.c             0x00000000   Number         0  beep.o ABSOLUTE
    ..\Drivers\STM32F1xx_HAL_Driver\Src\stm32f1xx_hal.c 0x00000000   Number         0  stm32f1xx_hal.o ABSOLUTE
    ..\Drivers\STM32F1xx_HAL_Driver\Src\stm32f1xx_hal_adc.c 0x00000000   Number         0  stm32f1xx_hal_adc.o ABSOLUTE
    ..\Drivers\STM32F1xx_HAL_Driver\Src\stm32f1xx_hal_adc_ex.c 0x00000000   Number         0  stm32f1xx_hal_adc_ex.o ABSOLUTE
    ..\Drivers\STM32F1xx_HAL_Driver\Src\stm32f1xx_hal_cortex.c 0x00000000   Number         0  stm32f1xx_hal_cortex.o ABSOLUTE
    ..\Drivers\STM32F1xx_HAL_Driver\Src\stm32f1xx_hal_dma.c 0x00000000   Number         0  stm32f1xx_hal_dma.o ABSOLUTE
    ..\Drivers\STM32F1xx_HAL_Driver\Src\stm32f1xx_hal_exti.c 0x00000000   Number         0  stm32f1xx_hal_exti.o ABSOLUTE
    ..\Drivers\STM32F1xx_HAL_Driver\Src\stm32f1xx_hal_flash.c 0x00000000   Number         0  stm32f1xx_hal_flash.o ABSOLUTE
    ..\Drivers\STM32F1xx_HAL_Driver\Src\stm32f1xx_hal_flash_ex.c 0x00000000   Number         0  stm32f1xx_hal_flash_ex.o ABSOLUTE
    ..\Drivers\STM32F1xx_HAL_Driver\Src\stm32f1xx_hal_gpio.c 0x00000000   Number         0  stm32f1xx_hal_gpio.o ABSOLUTE
    ..\Drivers\STM32F1xx_HAL_Driver\Src\stm32f1xx_hal_gpio_ex.c 0x00000000   Number         0  stm32f1xx_hal_gpio_ex.o ABSOLUTE
    ..\Drivers\STM32F1xx_HAL_Driver\Src\stm32f1xx_hal_pwr.c 0x00000000   Number         0  stm32f1xx_hal_pwr.o ABSOLUTE
    ..\Drivers\STM32F1xx_HAL_Driver\Src\stm32f1xx_hal_rcc.c 0x00000000   Number         0  stm32f1xx_hal_rcc.o ABSOLUTE
    ..\Drivers\STM32F1xx_HAL_Driver\Src\stm32f1xx_hal_rcc_ex.c 0x00000000   Number         0  stm32f1xx_hal_rcc_ex.o ABSOLUTE
    ..\Drivers\STM32F1xx_HAL_Driver\Src\stm32f1xx_hal_spi.c 0x00000000   Number         0  stm32f1xx_hal_spi.o ABSOLUTE
    ..\Drivers\STM32F1xx_HAL_Driver\Src\stm32f1xx_hal_tim.c 0x00000000   Number         0  stm32f1xx_hal_tim.o ABSOLUTE
    ..\Drivers\STM32F1xx_HAL_Driver\Src\stm32f1xx_hal_tim_ex.c 0x00000000   Number         0  stm32f1xx_hal_tim_ex.o ABSOLUTE
    ..\Drivers\STM32F1xx_HAL_Driver\Src\stm32f1xx_hal_uart.c 0x00000000   Number         0  stm32f1xx_hal_uart.o ABSOLUTE
    ..\Middlewares\Third_Party\FreeRTOS\Source\CMSIS_RTOS_V2\cmsis_os2.c 0x00000000   Number         0  cmsis_os2.o ABSOLUTE
    ..\Middlewares\Third_Party\FreeRTOS\Source\portable\RVDS\ARM_CM3\port.c 0x00000000   Number         0  port.o ABSOLUTE
    ..\\App\\Src\\algorithm.c                0x00000000   Number         0  algorithm.o ABSOLUTE
    ..\\App\\Src\\blood.c                    0x00000000   Number         0  blood.o ABSOLUTE
    ..\\App\\Src\\gui.c                      0x00000000   Number         0  gui.o ABSOLUTE
    ..\\App\\Src\\user_main.c                0x00000000   Number         0  user_main.o ABSOLUTE
    ..\\Drivers\\Device\\Src\\IICcom.c       0x00000000   Number         0  iiccom.o ABSOLUTE
    ..\\Drivers\\Device\\Src\\MAX30100.c     0x00000000   Number         0  max30100.o ABSOLUTE
    ..\\Drivers\\Device\\Src\\ST7735.c       0x00000000   Number         0  st7735.o ABSOLUTE
    ..\\Drivers\\Device\\Src\\beep.c         0x00000000   Number         0  beep.o ABSOLUTE
    cdcmple.s                                0x00000000   Number         0  cdcmple.o ABSOLUTE
    cdrcmple.s                               0x00000000   Number         0  cdrcmple.o ABSOLUTE
    cfcmple.s                                0x00000000   Number         0  cfcmple.o ABSOLUTE
    cfrcmple.s                               0x00000000   Number         0  cfrcmple.o ABSOLUTE
    dc.s                                     0x00000000   Number         0  dc.o ABSOLUTE
    handlers.s                               0x00000000   Number         0  handlers.o ABSOLUTE
    init.s                                   0x00000000   Number         0  init.o ABSOLUTE
    startup_stm32f103xb.s                    0x00000000   Number         0  startup_stm32f103xb.o ABSOLUTE
    RESET                                    0x08000000   Section      236  startup_stm32f103xb.o(RESET)
    .ARM.Collect$$$$00000000                 0x080000ec   Section        0  entry.o(.ARM.Collect$$$$00000000)
    .ARM.Collect$$$$00000001                 0x080000ec   Section        4  entry2.o(.ARM.Collect$$$$00000001)
    .ARM.Collect$$$$00000004                 0x080000f0   Section        4  entry5.o(.ARM.Collect$$$$00000004)
    .ARM.Collect$$$$00000008                 0x080000f4   Section        0  entry7b.o(.ARM.Collect$$$$00000008)
    .ARM.Collect$$$$0000000A                 0x080000f4   Section        0  entry8b.o(.ARM.Collect$$$$0000000A)
    .ARM.Collect$$$$0000000B                 0x080000f4   Section        8  entry9a.o(.ARM.Collect$$$$0000000B)
    .ARM.Collect$$$$0000000D                 0x080000fc   Section        0  entry10a.o(.ARM.Collect$$$$0000000D)
    .ARM.Collect$$$$0000000F                 0x080000fc   Section        0  entry11a.o(.ARM.Collect$$$$0000000F)
    .ARM.Collect$$$$00002712                 0x080000fc   Section        4  entry2.o(.ARM.Collect$$$$00002712)
    __lit__00000000                          0x080000fc   Data           4  entry2.o(.ARM.Collect$$$$00002712)
    .emb_text                                0x08000100   Section      150  port.o(.emb_text)
    .text                                    0x08000198   Section       36  startup_stm32f103xb.o(.text)
    .text                                    0x080001bc   Section        0  llushr.o(.text)
    .text                                    0x080001dc   Section        0  memseta.o(.text)
    .text                                    0x08000200   Section        0  fadd.o(.text)
    .text                                    0x080002b0   Section        0  fmul.o(.text)
    .text                                    0x08000314   Section        0  fdiv.o(.text)
    .text                                    0x08000390   Section        0  dadd.o(.text)
    .text                                    0x080004de   Section        0  dmul.o(.text)
    .text                                    0x080005c2   Section        0  ddiv.o(.text)
    .text                                    0x080006a0   Section        0  fflti.o(.text)
    .text                                    0x080006b2   Section        0  ffltui.o(.text)
    .text                                    0x080006bc   Section        0  dflti.o(.text)
    .text                                    0x080006de   Section        0  ffixi.o(.text)
    .text                                    0x08000710   Section        0  ffixui.o(.text)
    .text                                    0x08000738   Section        0  dfixi.o(.text)
    .text                                    0x08000776   Section        0  f2d.o(.text)
    .text                                    0x0800079c   Section       48  cdcmple.o(.text)
    .text                                    0x080007cc   Section       48  cdrcmple.o(.text)
    .text                                    0x080007fc   Section        0  d2f.o(.text)
    .text                                    0x08000834   Section       20  cfcmple.o(.text)
    .text                                    0x08000848   Section       20  cfrcmple.o(.text)
    .text                                    0x0800085c   Section        0  uidiv.o(.text)
    .text                                    0x08000888   Section        0  uldiv.o(.text)
    .text                                    0x080008ea   Section        0  llshl.o(.text)
    .text                                    0x08000908   Section        0  llsshr.o(.text)
    .text                                    0x0800092c   Section        0  iusefp.o(.text)
    .text                                    0x0800092c   Section        0  fepilogue.o(.text)
    .text                                    0x0800099a   Section        0  fsqrt.o(.text)
    .text                                    0x080009f8   Section        0  depilogue.o(.text)
    .text                                    0x08000ab2   Section        0  dfixul.o(.text)
    .text                                    0x08000ae4   Section       36  init.o(.text)
    i.ADC_ConversionStop_Disable             0x08000b08   Section        0  stm32f1xx_hal_adc.o(i.ADC_ConversionStop_Disable)
    i.Beep_Control                           0x08000b5c   Section        0  beep.o(i.Beep_Control)
    i.BusFault_Handler                       0x08000b88   Section        0  stm32f1xx_it.o(i.BusFault_Handler)
    i.DMA1_Channel5_IRQHandler               0x08000b8c   Section        0  stm32f1xx_it.o(i.DMA1_Channel5_IRQHandler)
    i.DebugMon_Handler                       0x08000b9c   Section        0  stm32f1xx_it.o(i.DebugMon_Handler)
    i.EE                                     0x08000b9e   Section        0  algorithm.o(i.EE)
    i.Error_Handler                          0x08000bea   Section        0  main.o(i.Error_Handler)
    i.FFT                                    0x08000bf0   Section        0  algorithm.o(i.FFT)
    i.Gui_DrawFont_GBK16                     0x08000d7c   Section        0  gui.o(i.Gui_DrawFont_GBK16)
    i.Gui_DrawLine                           0x08000e24   Section        0  gui.o(i.Gui_DrawLine)
    i.Gui_DrawPoint                          0x08000ede   Section        0  st7735.o(i.Gui_DrawPoint)
    i.HAL_ADC_ConfigChannel                  0x08000f08   Section        0  stm32f1xx_hal_adc.o(i.HAL_ADC_ConfigChannel)
    i.HAL_ADC_Init                           0x08001068   Section        0  stm32f1xx_hal_adc.o(i.HAL_ADC_Init)
    i.HAL_ADC_MspInit                        0x080011ac   Section        0  adc.o(i.HAL_ADC_MspInit)
    i.HAL_DMA_Abort_IT                       0x0800121c   Section        0  stm32f1xx_hal_dma.o(i.HAL_DMA_Abort_IT)
    i.HAL_DMA_IRQHandler                     0x080012cc   Section        0  stm32f1xx_hal_dma.o(i.HAL_DMA_IRQHandler)
    i.HAL_DMA_Init                           0x08001468   Section        0  stm32f1xx_hal_dma.o(i.HAL_DMA_Init)
    i.HAL_Delay                              0x080014d0   Section        0  stm32f1xx_hal.o(i.HAL_Delay)
    i.HAL_GPIO_Init                          0x080014f8   Section        0  stm32f1xx_hal_gpio.o(i.HAL_GPIO_Init)
    i.HAL_GPIO_ReadPin                       0x08001818   Section        0  stm32f1xx_hal_gpio.o(i.HAL_GPIO_ReadPin)
    i.HAL_GPIO_WritePin                      0x08001828   Section        0  stm32f1xx_hal_gpio.o(i.HAL_GPIO_WritePin)
    i.HAL_GetTick                            0x08001834   Section        0  stm32f1xx_hal.o(i.HAL_GetTick)
    i.HAL_IncTick                            0x08001840   Section        0  stm32f1xx_hal.o(i.HAL_IncTick)
    i.HAL_Init                               0x08001858   Section        0  stm32f1xx_hal.o(i.HAL_Init)
    i.HAL_InitTick                           0x08001880   Section        0  stm32f1xx_hal_timebase_tim.o(i.HAL_InitTick)
    i.HAL_MspInit                            0x08001908   Section        0  stm32f1xx_hal_msp.o(i.HAL_MspInit)
    i.HAL_NVIC_EnableIRQ                     0x08001968   Section        0  stm32f1xx_hal_cortex.o(i.HAL_NVIC_EnableIRQ)
    i.HAL_NVIC_SetPriority                   0x08001988   Section        0  stm32f1xx_hal_cortex.o(i.HAL_NVIC_SetPriority)
    i.HAL_NVIC_SetPriorityGrouping           0x08001a04   Section        0  stm32f1xx_hal_cortex.o(i.HAL_NVIC_SetPriorityGrouping)
    i.HAL_RCCEx_PeriphCLKConfig              0x08001a2c   Section        0  stm32f1xx_hal_rcc_ex.o(i.HAL_RCCEx_PeriphCLKConfig)
    i.HAL_RCC_ClockConfig                    0x08001b5c   Section        0  stm32f1xx_hal_rcc.o(i.HAL_RCC_ClockConfig)
    i.HAL_RCC_GetClockConfig                 0x08001ce8   Section        0  stm32f1xx_hal_rcc.o(i.HAL_RCC_GetClockConfig)
    i.HAL_RCC_GetHCLKFreq                    0x08001d2c   Section        0  stm32f1xx_hal_rcc.o(i.HAL_RCC_GetHCLKFreq)
    i.HAL_RCC_GetPCLK1Freq                   0x08001d38   Section        0  stm32f1xx_hal_rcc.o(i.HAL_RCC_GetPCLK1Freq)
    i.HAL_RCC_GetPCLK2Freq                   0x08001d58   Section        0  stm32f1xx_hal_rcc.o(i.HAL_RCC_GetPCLK2Freq)
    i.HAL_RCC_GetSysClockFreq                0x08001d78   Section        0  stm32f1xx_hal_rcc.o(i.HAL_RCC_GetSysClockFreq)
    i.HAL_RCC_OscConfig                      0x08001e0c   Section        0  stm32f1xx_hal_rcc.o(i.HAL_RCC_OscConfig)
    i.HAL_SPI_Init                           0x08002270   Section        0  stm32f1xx_hal_spi.o(i.HAL_SPI_Init)
    i.HAL_SPI_MspInit                        0x080022f8   Section        0  spi.o(i.HAL_SPI_MspInit)
    i.HAL_TIMEx_BreakCallback                0x080023ac   Section        0  stm32f1xx_hal_tim_ex.o(i.HAL_TIMEx_BreakCallback)
    i.HAL_TIMEx_CommutCallback               0x080023ae   Section        0  stm32f1xx_hal_tim_ex.o(i.HAL_TIMEx_CommutCallback)
    i.HAL_TIMEx_MasterConfigSynchronization  0x080023b0   Section        0  stm32f1xx_hal_tim_ex.o(i.HAL_TIMEx_MasterConfigSynchronization)
    i.HAL_TIM_Base_Init                      0x08002404   Section        0  stm32f1xx_hal_tim.o(i.HAL_TIM_Base_Init)
    i.HAL_TIM_Base_MspInit                   0x08002438   Section        0  tim.o(i.HAL_TIM_Base_MspInit)
    i.HAL_TIM_Base_Start_IT                  0x08002464   Section        0  stm32f1xx_hal_tim.o(i.HAL_TIM_Base_Start_IT)
    i.HAL_TIM_ConfigClockSource              0x0800248e   Section        0  stm32f1xx_hal_tim.o(i.HAL_TIM_ConfigClockSource)
    i.HAL_TIM_IC_CaptureCallback             0x08002596   Section        0  stm32f1xx_hal_tim.o(i.HAL_TIM_IC_CaptureCallback)
    i.HAL_TIM_IRQHandler                     0x08002598   Section        0  stm32f1xx_hal_tim.o(i.HAL_TIM_IRQHandler)
    i.HAL_TIM_MspPostInit                    0x08002730   Section        0  tim.o(i.HAL_TIM_MspPostInit)
    i.HAL_TIM_OC_DelayElapsedCallback        0x080027d0   Section        0  stm32f1xx_hal_tim.o(i.HAL_TIM_OC_DelayElapsedCallback)
    i.HAL_TIM_PWM_ConfigChannel              0x080027d2   Section        0  stm32f1xx_hal_tim.o(i.HAL_TIM_PWM_ConfigChannel)
    i.HAL_TIM_PWM_Init                       0x080028da   Section        0  stm32f1xx_hal_tim.o(i.HAL_TIM_PWM_Init)
    i.HAL_TIM_PWM_MspInit                    0x0800290e   Section        0  stm32f1xx_hal_tim.o(i.HAL_TIM_PWM_MspInit)
    i.HAL_TIM_PWM_PulseFinishedCallback      0x08002910   Section        0  stm32f1xx_hal_tim.o(i.HAL_TIM_PWM_PulseFinishedCallback)
    i.HAL_TIM_PWM_Start                      0x08002914   Section        0  stm32f1xx_hal_tim.o(i.HAL_TIM_PWM_Start)
    i.HAL_TIM_PeriodElapsedCallback          0x08002960   Section        0  main.o(i.HAL_TIM_PeriodElapsedCallback)
    i.HAL_TIM_TriggerCallback                0x08002978   Section        0  stm32f1xx_hal_tim.o(i.HAL_TIM_TriggerCallback)
    i.HAL_UART_ErrorCallback                 0x0800297a   Section        0  stm32f1xx_hal_uart.o(i.HAL_UART_ErrorCallback)
    i.HAL_UART_IRQHandler                    0x0800297c   Section        0  stm32f1xx_hal_uart.o(i.HAL_UART_IRQHandler)
    i.HAL_UART_Init                          0x08002ac8   Section        0  stm32f1xx_hal_uart.o(i.HAL_UART_Init)
    i.HAL_UART_MspInit                       0x08002b3c   Section        0  usart.o(i.HAL_UART_MspInit)
    i.HAL_UART_RxCpltCallback                0x08002c4c   Section        0  stm32f1xx_hal_uart.o(i.HAL_UART_RxCpltCallback)
    i.HAL_UART_TxCpltCallback                0x08002c4e   Section        0  stm32f1xx_hal_uart.o(i.HAL_UART_TxCpltCallback)
    i.HardFault_Handler                      0x08002c50   Section        0  stm32f1xx_it.o(i.HardFault_Handler)
    i.I2C_Ack                                0x08002c54   Section        0  iiccom.o(i.I2C_Ack)
    i.I2C_NoAck                              0x08002c94   Section        0  iiccom.o(i.I2C_NoAck)
    i.I2C_RadeByte                           0x08002cd4   Section        0  iiccom.o(i.I2C_RadeByte)
    i.I2C_SendByte                           0x08002d30   Section        0  iiccom.o(i.I2C_SendByte)
    i.I2C_Start                              0x08002d94   Section        0  iiccom.o(i.I2C_Start)
    i.I2C_Stop                               0x08002df0   Section        0  iiccom.o(i.I2C_Stop)
    i.I2C_WaitAck                            0x08002e30   Section        0  iiccom.o(i.I2C_WaitAck)
    i.I2C_delay                              0x08002e84   Section        0  iiccom.o(i.I2C_delay)
    i.LCD_WriteData_16Bit                    0x08002e94   Section        0  st7735.o(i.LCD_WriteData_16Bit)
    i.Lcd_Block                              0x08002eb4   Section        0  st7735.o(i.Lcd_Block)
    i.Lcd_Clear                              0x08002f1e   Section        0  st7735.o(i.Lcd_Clear)
    i.Lcd_Init                               0x08002f50   Section        0  st7735.o(i.Lcd_Init)
    i.Lcd_SetRegion                          0x080031b8   Section        0  st7735.o(i.Lcd_SetRegion)
    i.Lcd_SetXY                              0x0800320e   Section        0  st7735.o(i.Lcd_SetXY)
    i.Lcd_WriteData                          0x08003224   Section        0  st7735.o(i.Lcd_WriteData)
    i.Lcd_WriteIndex                         0x0800323c   Section        0  st7735.o(i.Lcd_WriteIndex)
    i.Led_Control                            0x08003254   Section        0  beep.o(i.Led_Control)
    i.Led_beep_update                        0x08003280   Section        0  blood.o(i.Led_beep_update)
    i.MX_ADC1_Init                           0x080033a8   Section        0  adc.o(i.MX_ADC1_Init)
    i.MX_DMA_Init                            0x08003404   Section        0  dma.o(i.MX_DMA_Init)
    i.MX_GPIO_Init                           0x08003438   Section        0  gpio.o(i.MX_GPIO_Init)
    i.MX_SPI2_Init                           0x0800354c   Section        0  spi.o(i.MX_SPI2_Init)
    i.MX_TIM2_Init                           0x08003594   Section        0  tim.o(i.MX_TIM2_Init)
    i.MX_USART1_UART_Init                    0x08003654   Section        0  usart.o(i.MX_USART1_UART_Init)
    i.MX_USART2_UART_Init                    0x0800368c   Section        0  usart.o(i.MX_USART2_UART_Init)
    i.MemManage_Handler                      0x080036c4   Section        0  stm32f1xx_it.o(i.MemManage_Handler)
    i.NMI_Handler                            0x080036c8   Section        0  stm32f1xx_it.o(i.NMI_Handler)
    i.RCC_Delay                              0x080036cc   Section        0  stm32f1xx_hal_rcc.o(i.RCC_Delay)
    RCC_Delay                                0x080036cd   Thumb Code    36  stm32f1xx_hal_rcc.o(i.RCC_Delay)
    i.SPI_WriteData                          0x080036f4   Section        0  st7735.o(i.SPI_WriteData)
    i.SysTick_Handler                        0x08003734   Section        0  port.o(i.SysTick_Handler)
    i.SystemClock_Config                     0x08003768   Section        0  main.o(i.SystemClock_Config)
    i.SystemInit                             0x080037ec   Section        0  system_stm32f1xx.o(i.SystemInit)
    i.TIM4_IRQHandler                        0x08003844   Section        0  stm32f1xx_it.o(i.TIM4_IRQHandler)
    i.TIM_Base_SetConfig                     0x08003858   Section        0  stm32f1xx_hal_tim.o(i.TIM_Base_SetConfig)
    i.TIM_CCxChannelCmd                      0x080038cc   Section        0  stm32f1xx_hal_tim.o(i.TIM_CCxChannelCmd)
    i.TIM_ETR_SetConfig                      0x080038ee   Section        0  stm32f1xx_hal_tim.o(i.TIM_ETR_SetConfig)
    i.TIM_ITRx_SetConfig                     0x08003904   Section        0  stm32f1xx_hal_tim.o(i.TIM_ITRx_SetConfig)
    TIM_ITRx_SetConfig                       0x08003905   Thumb Code    18  stm32f1xx_hal_tim.o(i.TIM_ITRx_SetConfig)
    i.TIM_OC1_SetConfig                      0x08003918   Section        0  stm32f1xx_hal_tim.o(i.TIM_OC1_SetConfig)
    TIM_OC1_SetConfig                        0x08003919   Thumb Code    90  stm32f1xx_hal_tim.o(i.TIM_OC1_SetConfig)
    i.TIM_OC2_SetConfig                      0x08003978   Section        0  stm32f1xx_hal_tim.o(i.TIM_OC2_SetConfig)
    i.TIM_OC3_SetConfig                      0x080039e0   Section        0  stm32f1xx_hal_tim.o(i.TIM_OC3_SetConfig)
    TIM_OC3_SetConfig                        0x080039e1   Thumb Code    98  stm32f1xx_hal_tim.o(i.TIM_OC3_SetConfig)
    i.TIM_OC4_SetConfig                      0x08003a48   Section        0  stm32f1xx_hal_tim.o(i.TIM_OC4_SetConfig)
    TIM_OC4_SetConfig                        0x08003a49   Thumb Code    68  stm32f1xx_hal_tim.o(i.TIM_OC4_SetConfig)
    i.TIM_TI1_ConfigInputStage               0x08003a90   Section        0  stm32f1xx_hal_tim.o(i.TIM_TI1_ConfigInputStage)
    TIM_TI1_ConfigInputStage                 0x08003a91   Thumb Code    38  stm32f1xx_hal_tim.o(i.TIM_TI1_ConfigInputStage)
    i.TIM_TI2_ConfigInputStage               0x08003ab6   Section        0  stm32f1xx_hal_tim.o(i.TIM_TI2_ConfigInputStage)
    TIM_TI2_ConfigInputStage                 0x08003ab7   Thumb Code    40  stm32f1xx_hal_tim.o(i.TIM_TI2_ConfigInputStage)
    i.UART_DMAAbortOnError                   0x08003ade   Section        0  stm32f1xx_hal_uart.o(i.UART_DMAAbortOnError)
    UART_DMAAbortOnError                     0x08003adf   Thumb Code    20  stm32f1xx_hal_uart.o(i.UART_DMAAbortOnError)
    i.UART_EndRxTransfer                     0x08003af2   Section        0  stm32f1xx_hal_uart.o(i.UART_EndRxTransfer)
    UART_EndRxTransfer                       0x08003af3   Thumb Code    32  stm32f1xx_hal_uart.o(i.UART_EndRxTransfer)
    i.UART_EndTransmit_IT                    0x08003b12   Section        0  stm32f1xx_hal_uart.o(i.UART_EndTransmit_IT)
    UART_EndTransmit_IT                      0x08003b13   Thumb Code    32  stm32f1xx_hal_uart.o(i.UART_EndTransmit_IT)
    i.UART_Receive_IT                        0x08003b32   Section        0  stm32f1xx_hal_uart.o(i.UART_Receive_IT)
    UART_Receive_IT                          0x08003b33   Thumb Code   166  stm32f1xx_hal_uart.o(i.UART_Receive_IT)
    i.UART_SetConfig                         0x08003bd8   Section        0  stm32f1xx_hal_uart.o(i.UART_SetConfig)
    UART_SetConfig                           0x08003bd9   Thumb Code   412  stm32f1xx_hal_uart.o(i.UART_SetConfig)
    i.UART_Transmit_IT                       0x08003d78   Section        0  stm32f1xx_hal_uart.o(i.UART_Transmit_IT)
    UART_Transmit_IT                         0x08003d79   Thumb Code   104  stm32f1xx_hal_uart.o(i.UART_Transmit_IT)
    i.USART1_IRQHandler                      0x08003de0   Section        0  stm32f1xx_it.o(i.USART1_IRQHandler)
    i.USART2_IRQHandler                      0x08003df0   Section        0  stm32f1xx_it.o(i.USART2_IRQHandler)
    i.UsageFault_Handler                     0x08003e00   Section        0  stm32f1xx_it.o(i.UsageFault_Handler)
    i.User_Interrupt                         0x08003e04   Section        0  user_main.o(i.User_Interrupt)
    i.User_Loop                              0x08003e0c   Section        0  user_main.o(i.User_Loop)
    i.User_Setup                             0x08003e14   Section        0  user_main.o(i.User_Setup)
    i.XCos                                   0x08003e48   Section        0  algorithm.o(i.XCos)
    i.XSin                                   0x08003e70   Section        0  algorithm.o(i.XSin)
    i.__0sprintf                             0x08004080   Section        0  printfa.o(i.__0sprintf)
    i.__NVIC_GetPriorityGrouping             0x080040a8   Section        0  stm32f1xx_hal_cortex.o(i.__NVIC_GetPriorityGrouping)
    __NVIC_GetPriorityGrouping               0x080040a9   Thumb Code    10  stm32f1xx_hal_cortex.o(i.__NVIC_GetPriorityGrouping)
    i.__NVIC_SetPriority                     0x080040b8   Section        0  stm32f1xx_hal_cortex.o(i.__NVIC_SetPriority)
    __NVIC_SetPriority                       0x080040b9   Thumb Code    32  stm32f1xx_hal_cortex.o(i.__NVIC_SetPriority)
    i.__scatterload_copy                     0x080040e0   Section       14  handlers.o(i.__scatterload_copy)
    i.__scatterload_null                     0x080040ee   Section        2  handlers.o(i.__scatterload_null)
    i.__scatterload_zeroinit                 0x080040f0   Section       14  handlers.o(i.__scatterload_zeroinit)
    i.__set_errno                            0x08004100   Section        0  errno.o(i.__set_errno)
    i._fp_digits                             0x0800410c   Section        0  printfa.o(i._fp_digits)
    _fp_digits                               0x0800410d   Thumb Code   366  printfa.o(i._fp_digits)
    i._printf_core                           0x08004290   Section        0  printfa.o(i._printf_core)
    _printf_core                             0x08004291   Thumb Code  1744  printfa.o(i._printf_core)
    i._printf_post_padding                   0x0800496c   Section        0  printfa.o(i._printf_post_padding)
    _printf_post_padding                     0x0800496d   Thumb Code    36  printfa.o(i._printf_post_padding)
    i._printf_pre_padding                    0x08004990   Section        0  printfa.o(i._printf_pre_padding)
    _printf_pre_padding                      0x08004991   Thumb Code    46  printfa.o(i._printf_pre_padding)
    i._sputc                                 0x080049be   Section        0  printfa.o(i._sputc)
    _sputc                                   0x080049bf   Thumb Code    10  printfa.o(i._sputc)
    i.blood_Interrupt                        0x080049c8   Section        0  blood.o(i.blood_Interrupt)
    i.blood_Loop                             0x08004a08   Section        0  blood.o(i.blood_Loop)
    i.blood_Setup                            0x08004a1c   Section        0  blood.o(i.blood_Setup)
    i.blood_data_translate                   0x08004a3c   Section        0  blood.o(i.blood_data_translate)
    i.blood_data_update                      0x08004bb4   Section        0  blood.o(i.blood_data_update)
    i.blood_wave_update                      0x08004c6c   Section        0  blood.o(i.blood_wave_update)
    i.dc_filter                              0x08004e14   Section        0  algorithm.o(i.dc_filter)
    i.find_max_num_index                     0x08004e5c   Section        0  algorithm.o(i.find_max_num_index)
    i.gui_draw_Block                         0x08004e8e   Section        0  gui.o(i.gui_draw_Block)
    i.gui_draw_square                        0x08004f02   Section        0  gui.o(i.gui_draw_square)
    i.main                                   0x08004f4c   Section        0  main.o(i.main)
    i.max30100_Bus_Read                      0x08004f7c   Section        0  max30100.o(i.max30100_Bus_Read)
    i.max30100_Bus_Write                     0x08004fcc   Section        0  max30100.o(i.max30100_Bus_Write)
    i.max30100_FIFO_Read                     0x08005010   Section        0  max30100.o(i.max30100_FIFO_Read)
    i.max30100_init                          0x080050b0   Section        0  max30100.o(i.max30100_init)
    i.my_floor                               0x080050f4   Section        0  algorithm.o(i.my_floor)
    i.my_fmod                                0x08005140   Section        0  algorithm.o(i.my_fmod)
    i.prvResetNextTaskUnblockTime            0x080051d8   Section        0  tasks.o(i.prvResetNextTaskUnblockTime)
    prvResetNextTaskUnblockTime              0x080051d9   Thumb Code    42  tasks.o(i.prvResetNextTaskUnblockTime)
    i.set_pwm_value                          0x0800520c   Section        0  beep.o(i.set_pwm_value)
    i.settone                                0x08005228   Section        0  beep.o(i.settone)
    i.sqrtf                                  0x08005250   Section        0  sqrtf.o(i.sqrtf)
    i.tft_display_update                     0x0800527c   Section        0  blood.o(i.tft_display_update)
    i.tft_draw_State                         0x080052b4   Section        0  blood.o(i.tft_draw_State)
    i.tft_draw_frame                         0x08005318   Section        0  blood.o(i.tft_draw_frame)
    i.tft_draw_hrsp                          0x08005358   Section        0  blood.o(i.tft_draw_hrsp)
    i.tft_draw_wave                          0x080053f4   Section        0  blood.o(i.tft_draw_wave)
    i.tft_draw_wave_line                     0x08005478   Section        0  blood.o(i.tft_draw_wave_line)
    i.tft_draw_windows                       0x0800552c   Section        0  blood.o(i.tft_draw_windows)
    i.uxListRemove                           0x08005634   Section        0  list.o(i.uxListRemove)
    i.vListInsertEnd                         0x0800565c   Section        0  list.o(i.vListInsertEnd)
    i.vTaskSwitchContext                     0x08005674   Section        0  tasks.o(i.vTaskSwitchContext)
    i.xTaskIncrementTick                     0x08005704   Section        0  tasks.o(i.xTaskIncrementTick)
    .constdata                               0x08005848   Section     3442  gui.o(.constdata)
    .constdata                               0x080065c0   Section      808  algorithm.o(.constdata)
    XSinTbl                                  0x080065c0   Data         808  algorithm.o(.constdata)
    .constdata                               0x080068e8   Section       42  beep.o(.constdata)
    .constdata                               0x08006912   Section       24  system_stm32f1xx.o(.constdata)
    .data                                    0x20000000   Section       30  blood.o(.data)
    hist_n                                   0x2000000c   Data           2  blood.o(.data)
    hbhist_h                                 0x2000000e   Data           2  blood.o(.data)
    hbohist_h                                0x20000010   Data           2  blood.o(.data)
    errorStartTick                           0x20000014   Data           4  blood.o(.data)
    blhist                                   0x20000018   Data           1  blood.o(.data)
    beepstate                                0x20000019   Data           1  blood.o(.data)
    div                                      0x2000001a   Data           2  blood.o(.data)
    div2                                     0x2000001c   Data           2  blood.o(.data)
    .data                                    0x20000020   Section       60  tasks.o(.data)
    pxDelayedTaskList                        0x20000024   Data           4  tasks.o(.data)
    pxOverflowDelayedTaskList                0x20000028   Data           4  tasks.o(.data)
    uxDeletedTasksWaitingCleanUp             0x2000002c   Data           4  tasks.o(.data)
    uxCurrentNumberOfTasks                   0x20000030   Data           4  tasks.o(.data)
    xTickCount                               0x20000034   Data           4  tasks.o(.data)
    uxTopReadyPriority                       0x20000038   Data           4  tasks.o(.data)
    xSchedulerRunning                        0x2000003c   Data           4  tasks.o(.data)
    uxPendedTicks                            0x20000040   Data           4  tasks.o(.data)
    xYieldPending                            0x20000044   Data           4  tasks.o(.data)
    xNumOfOverflows                          0x20000048   Data           4  tasks.o(.data)
    uxTaskNumber                             0x2000004c   Data           4  tasks.o(.data)
    xNextTaskUnblockTime                     0x20000050   Data           4  tasks.o(.data)
    xIdleTaskHandle                          0x20000054   Data           4  tasks.o(.data)
    uxSchedulerSuspended                     0x20000058   Data           4  tasks.o(.data)
    .data                                    0x2000005c   Section        2  beep.o(.data)
    .data                                    0x20000060   Section        9  stm32f1xx_hal.o(.data)
    .data                                    0x2000006c   Section        4  system_stm32f1xx.o(.data)
    .data                                    0x20000070   Section        4  errno.o(.data)
    _errno                                   0x20000070   Data           4  errno.o(.data)
    .bss                                     0x20000074   Section    16676  blood.o(.bss)
    hbdc                                     0x20004180   Data          12  blood.o(.bss)
    hbodc                                    0x2000418c   Data          12  blood.o(.bss)
    .bss                                     0x20004198   Section       48  adc.o(.bss)
    .bss                                     0x200041c8   Section      156  spi.o(.bss)
    .bss                                     0x20004264   Section       64  stm32f1xx_hal_timebase_tim.o(.bss)
    .bss                                     0x200042a4   Section       64  tim.o(.bss)
    .bss                                     0x200042e4   Section      128  usart.o(.bss)
    .bss                                     0x20004364   Section     1220  tasks.o(.bss)
    pxReadyTasksLists                        0x20004364   Data        1120  tasks.o(.bss)
    xDelayedTaskList1                        0x200047c4   Data          20  tasks.o(.bss)
    xDelayedTaskList2                        0x200047d8   Data          20  tasks.o(.bss)
    xPendingReadyList                        0x200047ec   Data          20  tasks.o(.bss)
    xTasksWaitingTermination                 0x20004800   Data          20  tasks.o(.bss)
    xSuspendedTaskList                       0x20004814   Data          20  tasks.o(.bss)
    STACK                                    0x20004828   Section     1024  startup_stm32f103xb.o(STACK)

    Global Symbols

    Symbol Name                              Value     Ov Type        Size  Object(Section)

    BuildAttributes$$THM_ISAv4$P$D$K$B$S$PE$A:L22UL41UL21$X:L11$S22US41US21$IEEE1$IW$USESV6$~STKCKD$USESV7$~SHL$OTIME$ROPI$IEEEJ$EBA8$MICROLIB$REQ8$PRES8$EABIv2 0x00000000   Number         0  anon$$obj.o ABSOLUTE
    __ARM_use_no_argv                        0x00000000   Number         0  main.o ABSOLUTE
    _printf_a                                0x00000000   Number         0  stubs.o ABSOLUTE
    _printf_c                                0x00000000   Number         0  stubs.o ABSOLUTE
    _printf_charcount                        0x00000000   Number         0  stubs.o ABSOLUTE
    _printf_d                                0x00000000   Number         0  stubs.o ABSOLUTE
    _printf_e                                0x00000000   Number         0  stubs.o ABSOLUTE
    _printf_f                                0x00000000   Number         0  stubs.o ABSOLUTE
    _printf_flags                            0x00000000   Number         0  stubs.o ABSOLUTE
    _printf_fp_dec                           0x00000000   Number         0  stubs.o ABSOLUTE
    _printf_fp_hex                           0x00000000   Number         0  stubs.o ABSOLUTE
    _printf_g                                0x00000000   Number         0  stubs.o ABSOLUTE
    _printf_i                                0x00000000   Number         0  stubs.o ABSOLUTE
    _printf_int_dec                          0x00000000   Number         0  stubs.o ABSOLUTE
    _printf_l                                0x00000000   Number         0  stubs.o ABSOLUTE
    _printf_lc                               0x00000000   Number         0  stubs.o ABSOLUTE
    _printf_ll                               0x00000000   Number         0  stubs.o ABSOLUTE
    _printf_lld                              0x00000000   Number         0  stubs.o ABSOLUTE
    _printf_lli                              0x00000000   Number         0  stubs.o ABSOLUTE
    _printf_llo                              0x00000000   Number         0  stubs.o ABSOLUTE
    _printf_llu                              0x00000000   Number         0  stubs.o ABSOLUTE
    _printf_llx                              0x00000000   Number         0  stubs.o ABSOLUTE
    _printf_longlong_dec                     0x00000000   Number         0  stubs.o ABSOLUTE
    _printf_longlong_hex                     0x00000000   Number         0  stubs.o ABSOLUTE
    _printf_longlong_oct                     0x00000000   Number         0  stubs.o ABSOLUTE
    _printf_ls                               0x00000000   Number         0  stubs.o ABSOLUTE
    _printf_mbtowc                           0x00000000   Number         0  stubs.o ABSOLUTE
    _printf_n                                0x00000000   Number         0  stubs.o ABSOLUTE
    _printf_o                                0x00000000   Number         0  stubs.o ABSOLUTE
    _printf_p                                0x00000000   Number         0  stubs.o ABSOLUTE
    _printf_percent                          0x00000000   Number         0  stubs.o ABSOLUTE
    _printf_pre_padding                      0x00000000   Number         0  stubs.o ABSOLUTE
    _printf_return_value                     0x00000000   Number         0  stubs.o ABSOLUTE
    _printf_s                                0x00000000   Number         0  stubs.o ABSOLUTE
    _printf_sizespec                         0x00000000   Number         0  stubs.o ABSOLUTE
    _printf_str                              0x00000000   Number         0  stubs.o ABSOLUTE
    _printf_truncate_signed                  0x00000000   Number         0  stubs.o ABSOLUTE
    _printf_truncate_unsigned                0x00000000   Number         0  stubs.o ABSOLUTE
    _printf_u                                0x00000000   Number         0  stubs.o ABSOLUTE
    _printf_wc                               0x00000000   Number         0  stubs.o ABSOLUTE
    _printf_wctomb                           0x00000000   Number         0  stubs.o ABSOLUTE
    _printf_widthprec                        0x00000000   Number         0  stubs.o ABSOLUTE
    _printf_x                                0x00000000   Number         0  stubs.o ABSOLUTE
    __cpp_initialize__aeabi_                  - Undefined Weak Reference
    __cxa_finalize                            - Undefined Weak Reference
    __decompress                              - Undefined Weak Reference
    _clock_init                               - Undefined Weak Reference
    _microlib_exit                            - Undefined Weak Reference
    __Vectors_Size                           0x000000ec   Number         0  startup_stm32f103xb.o ABSOLUTE
    __Vectors                                0x08000000   Data           4  startup_stm32f103xb.o(RESET)
    __Vectors_End                            0x080000ec   Data           0  startup_stm32f103xb.o(RESET)
    __main                                   0x080000ed   Thumb Code     0  entry.o(.ARM.Collect$$$$00000000)
    _main_stk                                0x080000ed   Thumb Code     0  entry2.o(.ARM.Collect$$$$00000001)
    _main_scatterload                        0x080000f1   Thumb Code     0  entry5.o(.ARM.Collect$$$$00000004)
    __main_after_scatterload                 0x080000f5   Thumb Code     0  entry5.o(.ARM.Collect$$$$00000004)
    _main_clock                              0x080000f5   Thumb Code     0  entry7b.o(.ARM.Collect$$$$00000008)
    _main_cpp_init                           0x080000f5   Thumb Code     0  entry8b.o(.ARM.Collect$$$$0000000A)
    _main_init                               0x080000f5   Thumb Code     0  entry9a.o(.ARM.Collect$$$$0000000B)
    __rt_final_cpp                           0x080000fd   Thumb Code     0  entry10a.o(.ARM.Collect$$$$0000000D)
    __rt_final_exit                          0x080000fd   Thumb Code     0  entry11a.o(.ARM.Collect$$$$0000000F)
    SVC_Handler                              0x08000101   Thumb Code    32  port.o(.emb_text)
    __asm___6_port_c_39a90d8d__prvStartFirstTask 0x08000125   Thumb Code    28  port.o(.emb_text)
    PendSV_Handler                           0x08000145   Thumb Code    72  port.o(.emb_text)
    vPortGetIPSR                             0x08000191   Thumb Code     6  port.o(.emb_text)
    Reset_Handler                            0x08000199   Thumb Code     8  startup_stm32f103xb.o(.text)
    ADC1_2_IRQHandler                        0x080001b3   Thumb Code     0  startup_stm32f103xb.o(.text)
    CAN1_RX1_IRQHandler                      0x080001b3   Thumb Code     0  startup_stm32f103xb.o(.text)
    CAN1_SCE_IRQHandler                      0x080001b3   Thumb Code     0  startup_stm32f103xb.o(.text)
    DMA1_Channel1_IRQHandler                 0x080001b3   Thumb Code     0  startup_stm32f103xb.o(.text)
    DMA1_Channel2_IRQHandler                 0x080001b3   Thumb Code     0  startup_stm32f103xb.o(.text)
    DMA1_Channel3_IRQHandler                 0x080001b3   Thumb Code     0  startup_stm32f103xb.o(.text)
    DMA1_Channel4_IRQHandler                 0x080001b3   Thumb Code     0  startup_stm32f103xb.o(.text)
    DMA1_Channel6_IRQHandler                 0x080001b3   Thumb Code     0  startup_stm32f103xb.o(.text)
    DMA1_Channel7_IRQHandler                 0x080001b3   Thumb Code     0  startup_stm32f103xb.o(.text)
    EXTI0_IRQHandler                         0x080001b3   Thumb Code     0  startup_stm32f103xb.o(.text)
    EXTI15_10_IRQHandler                     0x080001b3   Thumb Code     0  startup_stm32f103xb.o(.text)
    EXTI1_IRQHandler                         0x080001b3   Thumb Code     0  startup_stm32f103xb.o(.text)
    EXTI2_IRQHandler                         0x080001b3   Thumb Code     0  startup_stm32f103xb.o(.text)
    EXTI3_IRQHandler                         0x080001b3   Thumb Code     0  startup_stm32f103xb.o(.text)
    EXTI4_IRQHandler                         0x080001b3   Thumb Code     0  startup_stm32f103xb.o(.text)
    EXTI9_5_IRQHandler                       0x080001b3   Thumb Code     0  startup_stm32f103xb.o(.text)
    FLASH_IRQHandler                         0x080001b3   Thumb Code     0  startup_stm32f103xb.o(.text)
    I2C1_ER_IRQHandler                       0x080001b3   Thumb Code     0  startup_stm32f103xb.o(.text)
    I2C1_EV_IRQHandler                       0x080001b3   Thumb Code     0  startup_stm32f103xb.o(.text)
    I2C2_ER_IRQHandler                       0x080001b3   Thumb Code     0  startup_stm32f103xb.o(.text)
    I2C2_EV_IRQHandler                       0x080001b3   Thumb Code     0  startup_stm32f103xb.o(.text)
    PVD_IRQHandler                           0x080001b3   Thumb Code     0  startup_stm32f103xb.o(.text)
    RCC_IRQHandler                           0x080001b3   Thumb Code     0  startup_stm32f103xb.o(.text)
    RTC_Alarm_IRQHandler                     0x080001b3   Thumb Code     0  startup_stm32f103xb.o(.text)
    RTC_IRQHandler                           0x080001b3   Thumb Code     0  startup_stm32f103xb.o(.text)
    SPI1_IRQHandler                          0x080001b3   Thumb Code     0  startup_stm32f103xb.o(.text)
    SPI2_IRQHandler                          0x080001b3   Thumb Code     0  startup_stm32f103xb.o(.text)
    TAMPER_IRQHandler                        0x080001b3   Thumb Code     0  startup_stm32f103xb.o(.text)
    TIM1_BRK_IRQHandler                      0x080001b3   Thumb Code     0  startup_stm32f103xb.o(.text)
    TIM1_CC_IRQHandler                       0x080001b3   Thumb Code     0  startup_stm32f103xb.o(.text)
    TIM1_TRG_COM_IRQHandler                  0x080001b3   Thumb Code     0  startup_stm32f103xb.o(.text)
    TIM1_UP_IRQHandler                       0x080001b3   Thumb Code     0  startup_stm32f103xb.o(.text)
    TIM2_IRQHandler                          0x080001b3   Thumb Code     0  startup_stm32f103xb.o(.text)
    TIM3_IRQHandler                          0x080001b3   Thumb Code     0  startup_stm32f103xb.o(.text)
    USART3_IRQHandler                        0x080001b3   Thumb Code     0  startup_stm32f103xb.o(.text)
    USBWakeUp_IRQHandler                     0x080001b3   Thumb Code     0  startup_stm32f103xb.o(.text)
    USB_HP_CAN1_TX_IRQHandler                0x080001b3   Thumb Code     0  startup_stm32f103xb.o(.text)
    USB_LP_CAN1_RX0_IRQHandler               0x080001b3   Thumb Code     0  startup_stm32f103xb.o(.text)
    WWDG_IRQHandler                          0x080001b3   Thumb Code     0  startup_stm32f103xb.o(.text)
    __aeabi_llsr                             0x080001bd   Thumb Code    32  llushr.o(.text)
    _ll_ushift_r                             0x080001bd   Thumb Code     0  llushr.o(.text)
    __aeabi_memset                           0x080001dd   Thumb Code    14  memseta.o(.text)
    __aeabi_memset4                          0x080001dd   Thumb Code     0  memseta.o(.text)
    __aeabi_memset8                          0x080001dd   Thumb Code     0  memseta.o(.text)
    __aeabi_memclr                           0x080001eb   Thumb Code     4  memseta.o(.text)
    __aeabi_memclr4                          0x080001eb   Thumb Code     0  memseta.o(.text)
    __aeabi_memclr8                          0x080001eb   Thumb Code     0  memseta.o(.text)
    memset                                   0x080001ef   Thumb Code    18  memseta.o(.text)
    __aeabi_fadd                             0x08000201   Thumb Code   164  fadd.o(.text)
    __aeabi_fsub                             0x080002a5   Thumb Code     6  fadd.o(.text)
    __aeabi_frsub                            0x080002ab   Thumb Code     6  fadd.o(.text)
    __aeabi_fmul                             0x080002b1   Thumb Code   100  fmul.o(.text)
    __aeabi_fdiv                             0x08000315   Thumb Code   124  fdiv.o(.text)
    __aeabi_dadd                             0x08000391   Thumb Code   322  dadd.o(.text)
    __aeabi_dsub                             0x080004d3   Thumb Code     6  dadd.o(.text)
    __aeabi_drsub                            0x080004d9   Thumb Code     6  dadd.o(.text)
    __aeabi_dmul                             0x080004df   Thumb Code   228  dmul.o(.text)
    __aeabi_ddiv                             0x080005c3   Thumb Code   222  ddiv.o(.text)
    __aeabi_i2f                              0x080006a1   Thumb Code    18  fflti.o(.text)
    __aeabi_ui2f                             0x080006b3   Thumb Code    10  ffltui.o(.text)
    __aeabi_i2d                              0x080006bd   Thumb Code    34  dflti.o(.text)
    __aeabi_f2iz                             0x080006df   Thumb Code    50  ffixi.o(.text)
    __aeabi_f2uiz                            0x08000711   Thumb Code    40  ffixui.o(.text)
    __aeabi_d2iz                             0x08000739   Thumb Code    62  dfixi.o(.text)
    __aeabi_f2d                              0x08000777   Thumb Code    38  f2d.o(.text)
    __aeabi_cdcmpeq                          0x0800079d   Thumb Code     0  cdcmple.o(.text)
    __aeabi_cdcmple                          0x0800079d   Thumb Code    48  cdcmple.o(.text)
    __aeabi_cdrcmple                         0x080007cd   Thumb Code    48  cdrcmple.o(.text)
    __aeabi_d2f                              0x080007fd   Thumb Code    56  d2f.o(.text)
    __aeabi_cfcmpeq                          0x08000835   Thumb Code     0  cfcmple.o(.text)
    __aeabi_cfcmple                          0x08000835   Thumb Code    20  cfcmple.o(.text)
    __aeabi_cfrcmple                         0x08000849   Thumb Code    20  cfrcmple.o(.text)
    __aeabi_uidiv                            0x0800085d   Thumb Code     0  uidiv.o(.text)
    __aeabi_uidivmod                         0x0800085d   Thumb Code    44  uidiv.o(.text)
    __aeabi_uldivmod                         0x08000889   Thumb Code    98  uldiv.o(.text)
    __aeabi_llsl                             0x080008eb   Thumb Code    30  llshl.o(.text)
    _ll_shift_l                              0x080008eb   Thumb Code     0  llshl.o(.text)
    __aeabi_lasr                             0x08000909   Thumb Code    36  llsshr.o(.text)
    _ll_sshift_r                             0x08000909   Thumb Code     0  llsshr.o(.text)
    __I$use$fp                               0x0800092d   Thumb Code     0  iusefp.o(.text)
    _float_round                             0x0800092d   Thumb Code    18  fepilogue.o(.text)
    _float_epilogue                          0x0800093f   Thumb Code    92  fepilogue.o(.text)
    _fsqrt                                   0x0800099b   Thumb Code    94  fsqrt.o(.text)
    _double_round                            0x080009f9   Thumb Code    30  depilogue.o(.text)
    _double_epilogue                         0x08000a17   Thumb Code   156  depilogue.o(.text)
    __aeabi_d2ulz                            0x08000ab3   Thumb Code    48  dfixul.o(.text)
    __scatterload                            0x08000ae5   Thumb Code    28  init.o(.text)
    __scatterload_rt2                        0x08000ae5   Thumb Code     0  init.o(.text)
    ADC_ConversionStop_Disable               0x08000b09   Thumb Code    82  stm32f1xx_hal_adc.o(i.ADC_ConversionStop_Disable)
    Beep_Control                             0x08000b5d   Thumb Code    34  beep.o(i.Beep_Control)
    BusFault_Handler                         0x08000b89   Thumb Code     4  stm32f1xx_it.o(i.BusFault_Handler)
    DMA1_Channel5_IRQHandler                 0x08000b8d   Thumb Code    10  stm32f1xx_it.o(i.DMA1_Channel5_IRQHandler)
    DebugMon_Handler                         0x08000b9d   Thumb Code     2  stm32f1xx_it.o(i.DebugMon_Handler)
    EE                                       0x08000b9f   Thumb Code    76  algorithm.o(i.EE)
    Error_Handler                            0x08000beb   Thumb Code     4  main.o(i.Error_Handler)
    FFT                                      0x08000bf1   Thumb Code   386  algorithm.o(i.FFT)
    Gui_DrawFont_GBK16                       0x08000d7d   Thumb Code   162  gui.o(i.Gui_DrawFont_GBK16)
    Gui_DrawLine                             0x08000e25   Thumb Code   186  gui.o(i.Gui_DrawLine)
    Gui_DrawPoint                            0x08000edf   Thumb Code    42  st7735.o(i.Gui_DrawPoint)
    HAL_ADC_ConfigChannel                    0x08000f09   Thumb Code   338  stm32f1xx_hal_adc.o(i.HAL_ADC_ConfigChannel)
    HAL_ADC_Init                             0x08001069   Thumb Code   314  stm32f1xx_hal_adc.o(i.HAL_ADC_Init)
    HAL_ADC_MspInit                          0x080011ad   Thumb Code    98  adc.o(i.HAL_ADC_MspInit)
    HAL_DMA_Abort_IT                         0x0800121d   Thumb Code   172  stm32f1xx_hal_dma.o(i.HAL_DMA_Abort_IT)
    HAL_DMA_IRQHandler                       0x080012cd   Thumb Code   408  stm32f1xx_hal_dma.o(i.HAL_DMA_IRQHandler)
    HAL_DMA_Init                             0x08001469   Thumb Code   100  stm32f1xx_hal_dma.o(i.HAL_DMA_Init)
    HAL_Delay                                0x080014d1   Thumb Code    36  stm32f1xx_hal.o(i.HAL_Delay)
    HAL_GPIO_Init                            0x080014f9   Thumb Code   766  stm32f1xx_hal_gpio.o(i.HAL_GPIO_Init)
    HAL_GPIO_ReadPin                         0x08001819   Thumb Code    16  stm32f1xx_hal_gpio.o(i.HAL_GPIO_ReadPin)
    HAL_GPIO_WritePin                        0x08001829   Thumb Code    12  stm32f1xx_hal_gpio.o(i.HAL_GPIO_WritePin)
    HAL_GetTick                              0x08001835   Thumb Code     6  stm32f1xx_hal.o(i.HAL_GetTick)
    HAL_IncTick                              0x08001841   Thumb Code    16  stm32f1xx_hal.o(i.HAL_IncTick)
    HAL_Init                                 0x08001859   Thumb Code    34  stm32f1xx_hal.o(i.HAL_Init)
    HAL_InitTick                             0x08001881   Thumb Code   118  stm32f1xx_hal_timebase_tim.o(i.HAL_InitTick)
    HAL_MspInit                              0x08001909   Thumb Code    86  stm32f1xx_hal_msp.o(i.HAL_MspInit)
    HAL_NVIC_EnableIRQ                       0x08001969   Thumb Code    32  stm32f1xx_hal_cortex.o(i.HAL_NVIC_EnableIRQ)
    HAL_NVIC_SetPriority                     0x08001989   Thumb Code   124  stm32f1xx_hal_cortex.o(i.HAL_NVIC_SetPriority)
    HAL_NVIC_SetPriorityGrouping             0x08001a05   Thumb Code    32  stm32f1xx_hal_cortex.o(i.HAL_NVIC_SetPriorityGrouping)
    HAL_RCCEx_PeriphCLKConfig                0x08001a2d   Thumb Code   290  stm32f1xx_hal_rcc_ex.o(i.HAL_RCCEx_PeriphCLKConfig)
    HAL_RCC_ClockConfig                      0x08001b5d   Thumb Code   376  stm32f1xx_hal_rcc.o(i.HAL_RCC_ClockConfig)
    HAL_RCC_GetClockConfig                   0x08001ce9   Thumb Code    58  stm32f1xx_hal_rcc.o(i.HAL_RCC_GetClockConfig)
    HAL_RCC_GetHCLKFreq                      0x08001d2d   Thumb Code     6  stm32f1xx_hal_rcc.o(i.HAL_RCC_GetHCLKFreq)
    HAL_RCC_GetPCLK1Freq                     0x08001d39   Thumb Code    22  stm32f1xx_hal_rcc.o(i.HAL_RCC_GetPCLK1Freq)
    HAL_RCC_GetPCLK2Freq                     0x08001d59   Thumb Code    22  stm32f1xx_hal_rcc.o(i.HAL_RCC_GetPCLK2Freq)
    HAL_RCC_GetSysClockFreq                  0x08001d79   Thumb Code   116  stm32f1xx_hal_rcc.o(i.HAL_RCC_GetSysClockFreq)
    HAL_RCC_OscConfig                        0x08001e0d   Thumb Code  1114  stm32f1xx_hal_rcc.o(i.HAL_RCC_OscConfig)
    HAL_SPI_Init                             0x08002271   Thumb Code   136  stm32f1xx_hal_spi.o(i.HAL_SPI_Init)
    HAL_SPI_MspInit                          0x080022f9   Thumb Code   158  spi.o(i.HAL_SPI_MspInit)
    HAL_TIMEx_BreakCallback                  0x080023ad   Thumb Code     2  stm32f1xx_hal_tim_ex.o(i.HAL_TIMEx_BreakCallback)
    HAL_TIMEx_CommutCallback                 0x080023af   Thumb Code     2  stm32f1xx_hal_tim_ex.o(i.HAL_TIMEx_CommutCallback)
    HAL_TIMEx_MasterConfigSynchronization    0x080023b1   Thumb Code    84  stm32f1xx_hal_tim_ex.o(i.HAL_TIMEx_MasterConfigSynchronization)
    HAL_TIM_Base_Init                        0x08002405   Thumb Code    52  stm32f1xx_hal_tim.o(i.HAL_TIM_Base_Init)
    HAL_TIM_Base_MspInit                     0x08002439   Thumb Code    40  tim.o(i.HAL_TIM_Base_MspInit)
    HAL_TIM_Base_Start_IT                    0x08002465   Thumb Code    42  stm32f1xx_hal_tim.o(i.HAL_TIM_Base_Start_IT)
    HAL_TIM_ConfigClockSource                0x0800248f   Thumb Code   264  stm32f1xx_hal_tim.o(i.HAL_TIM_ConfigClockSource)
    HAL_TIM_IC_CaptureCallback               0x08002597   Thumb Code     2  stm32f1xx_hal_tim.o(i.HAL_TIM_IC_CaptureCallback)
    HAL_TIM_IRQHandler                       0x08002599   Thumb Code   406  stm32f1xx_hal_tim.o(i.HAL_TIM_IRQHandler)
    HAL_TIM_MspPostInit                      0x08002731   Thumb Code   144  tim.o(i.HAL_TIM_MspPostInit)
    HAL_TIM_OC_DelayElapsedCallback          0x080027d1   Thumb Code     2  stm32f1xx_hal_tim.o(i.HAL_TIM_OC_DelayElapsedCallback)
    HAL_TIM_PWM_ConfigChannel                0x080027d3   Thumb Code   264  stm32f1xx_hal_tim.o(i.HAL_TIM_PWM_ConfigChannel)
    HAL_TIM_PWM_Init                         0x080028db   Thumb Code    52  stm32f1xx_hal_tim.o(i.HAL_TIM_PWM_Init)
    HAL_TIM_PWM_MspInit                      0x0800290f   Thumb Code     2  stm32f1xx_hal_tim.o(i.HAL_TIM_PWM_MspInit)
    HAL_TIM_PWM_PulseFinishedCallback        0x08002911   Thumb Code     2  stm32f1xx_hal_tim.o(i.HAL_TIM_PWM_PulseFinishedCallback)
    HAL_TIM_PWM_Start                        0x08002915   Thumb Code    72  stm32f1xx_hal_tim.o(i.HAL_TIM_PWM_Start)
    HAL_TIM_PeriodElapsedCallback            0x08002961   Thumb Code    18  main.o(i.HAL_TIM_PeriodElapsedCallback)
    HAL_TIM_TriggerCallback                  0x08002979   Thumb Code     2  stm32f1xx_hal_tim.o(i.HAL_TIM_TriggerCallback)
    HAL_UART_ErrorCallback                   0x0800297b   Thumb Code     2  stm32f1xx_hal_uart.o(i.HAL_UART_ErrorCallback)
    HAL_UART_IRQHandler                      0x0800297d   Thumb Code   326  stm32f1xx_hal_uart.o(i.HAL_UART_IRQHandler)
    HAL_UART_Init                            0x08002ac9   Thumb Code   114  stm32f1xx_hal_uart.o(i.HAL_UART_Init)
    HAL_UART_MspInit                         0x08002b3d   Thumb Code   256  usart.o(i.HAL_UART_MspInit)
    HAL_UART_RxCpltCallback                  0x08002c4d   Thumb Code     2  stm32f1xx_hal_uart.o(i.HAL_UART_RxCpltCallback)
    HAL_UART_TxCpltCallback                  0x08002c4f   Thumb Code     2  stm32f1xx_hal_uart.o(i.HAL_UART_TxCpltCallback)
    HardFault_Handler                        0x08002c51   Thumb Code     4  stm32f1xx_it.o(i.HardFault_Handler)
    I2C_Ack                                  0x08002c55   Thumb Code    60  iiccom.o(i.I2C_Ack)
    I2C_NoAck                                0x08002c95   Thumb Code    60  iiccom.o(i.I2C_NoAck)
    I2C_RadeByte                             0x08002cd5   Thumb Code    88  iiccom.o(i.I2C_RadeByte)
    I2C_SendByte                             0x08002d31   Thumb Code    94  iiccom.o(i.I2C_SendByte)
    I2C_Start                                0x08002d95   Thumb Code    86  iiccom.o(i.I2C_Start)
    I2C_Stop                                 0x08002df1   Thumb Code    60  iiccom.o(i.I2C_Stop)
    I2C_WaitAck                              0x08002e31   Thumb Code    78  iiccom.o(i.I2C_WaitAck)
    I2C_delay                                0x08002e85   Thumb Code    14  iiccom.o(i.I2C_delay)
    LCD_WriteData_16Bit                      0x08002e95   Thumb Code    26  st7735.o(i.LCD_WriteData_16Bit)
    Lcd_Block                                0x08002eb5   Thumb Code   106  st7735.o(i.Lcd_Block)
    Lcd_Clear                                0x08002f1f   Thumb Code    50  st7735.o(i.Lcd_Clear)
    Lcd_Init                                 0x08002f51   Thumb Code   606  st7735.o(i.Lcd_Init)
    Lcd_SetRegion                            0x080031b9   Thumb Code    86  st7735.o(i.Lcd_SetRegion)
    Lcd_SetXY                                0x0800320f   Thumb Code    20  st7735.o(i.Lcd_SetXY)
    Lcd_WriteData                            0x08003225   Thumb Code    20  st7735.o(i.Lcd_WriteData)
    Lcd_WriteIndex                           0x0800323d   Thumb Code    20  st7735.o(i.Lcd_WriteIndex)
    Led_Control                              0x08003255   Thumb Code    34  beep.o(i.Led_Control)
    Led_beep_update                          0x08003281   Thumb Code   276  blood.o(i.Led_beep_update)
    MX_ADC1_Init                             0x080033a9   Thumb Code    82  adc.o(i.MX_ADC1_Init)
    MX_DMA_Init                              0x08003405   Thumb Code    48  dma.o(i.MX_DMA_Init)
    MX_GPIO_Init                             0x08003439   Thumb Code   260  gpio.o(i.MX_GPIO_Init)
    MX_SPI2_Init                             0x0800354d   Thumb Code    64  spi.o(i.MX_SPI2_Init)
    MX_TIM2_Init                             0x08003595   Thumb Code   188  tim.o(i.MX_TIM2_Init)
    MX_USART1_UART_Init                      0x08003655   Thumb Code    46  usart.o(i.MX_USART1_UART_Init)
    MX_USART2_UART_Init                      0x0800368d   Thumb Code    46  usart.o(i.MX_USART2_UART_Init)
    MemManage_Handler                        0x080036c5   Thumb Code     4  stm32f1xx_it.o(i.MemManage_Handler)
    NMI_Handler                              0x080036c9   Thumb Code     2  stm32f1xx_it.o(i.NMI_Handler)
    SPI_WriteData                            0x080036f5   Thumb Code    60  st7735.o(i.SPI_WriteData)
    SysTick_Handler                          0x08003735   Thumb Code    46  port.o(i.SysTick_Handler)
    SystemClock_Config                       0x08003769   Thumb Code   132  main.o(i.SystemClock_Config)
    SystemInit                               0x080037ed   Thumb Code    70  system_stm32f1xx.o(i.SystemInit)
    TIM4_IRQHandler                          0x08003845   Thumb Code    14  stm32f1xx_it.o(i.TIM4_IRQHandler)
    TIM_Base_SetConfig                       0x08003859   Thumb Code   104  stm32f1xx_hal_tim.o(i.TIM_Base_SetConfig)
    TIM_CCxChannelCmd                        0x080038cd   Thumb Code    34  stm32f1xx_hal_tim.o(i.TIM_CCxChannelCmd)
    TIM_ETR_SetConfig                        0x080038ef   Thumb Code    22  stm32f1xx_hal_tim.o(i.TIM_ETR_SetConfig)
    TIM_OC2_SetConfig                        0x08003979   Thumb Code   100  stm32f1xx_hal_tim.o(i.TIM_OC2_SetConfig)
    USART1_IRQHandler                        0x08003de1   Thumb Code    10  stm32f1xx_it.o(i.USART1_IRQHandler)
    USART2_IRQHandler                        0x08003df1   Thumb Code    10  stm32f1xx_it.o(i.USART2_IRQHandler)
    UsageFault_Handler                       0x08003e01   Thumb Code     4  stm32f1xx_it.o(i.UsageFault_Handler)
    User_Interrupt                           0x08003e05   Thumb Code     8  user_main.o(i.User_Interrupt)
    User_Loop                                0x08003e0d   Thumb Code     8  user_main.o(i.User_Loop)
    User_Setup                               0x08003e15   Thumb Code    46  user_main.o(i.User_Setup)
    XCos                                     0x08003e49   Thumb Code    30  algorithm.o(i.XCos)
    XSin                                     0x08003e71   Thumb Code   488  algorithm.o(i.XSin)
    __0sprintf                               0x08004081   Thumb Code    34  printfa.o(i.__0sprintf)
    __1sprintf                               0x08004081   Thumb Code     0  printfa.o(i.__0sprintf)
    __2sprintf                               0x08004081   Thumb Code     0  printfa.o(i.__0sprintf)
    __c89sprintf                             0x08004081   Thumb Code     0  printfa.o(i.__0sprintf)
    sprintf                                  0x08004081   Thumb Code     0  printfa.o(i.__0sprintf)
    __scatterload_copy                       0x080040e1   Thumb Code    14  handlers.o(i.__scatterload_copy)
    __scatterload_null                       0x080040ef   Thumb Code     2  handlers.o(i.__scatterload_null)
    __scatterload_zeroinit                   0x080040f1   Thumb Code    14  handlers.o(i.__scatterload_zeroinit)
    __set_errno                              0x08004101   Thumb Code     6  errno.o(i.__set_errno)
    blood_Interrupt                          0x080049c9   Thumb Code    54  blood.o(i.blood_Interrupt)
    blood_Loop                               0x08004a09   Thumb Code    20  blood.o(i.blood_Loop)
    blood_Setup                              0x08004a1d   Thumb Code    26  blood.o(i.blood_Setup)
    blood_data_translate                     0x08004a3d   Thumb Code   348  blood.o(i.blood_data_translate)
    blood_data_update                        0x08004bb5   Thumb Code   162  blood.o(i.blood_data_update)
    blood_wave_update                        0x08004c6d   Thumb Code   380  blood.o(i.blood_wave_update)
    dc_filter                                0x08004e15   Thumb Code    66  algorithm.o(i.dc_filter)
    find_max_num_index                       0x08004e5d   Thumb Code    50  algorithm.o(i.find_max_num_index)
    gui_draw_Block                           0x08004e8f   Thumb Code   116  gui.o(i.gui_draw_Block)
    gui_draw_square                          0x08004f03   Thumb Code    74  gui.o(i.gui_draw_square)
    main                                     0x08004f4d   Thumb Code    48  main.o(i.main)
    max30100_Bus_Read                        0x08004f7d   Thumb Code    80  max30100.o(i.max30100_Bus_Read)
    max30100_Bus_Write                       0x08004fcd   Thumb Code    68  max30100.o(i.max30100_Bus_Write)
    max30100_FIFO_Read                       0x08005011   Thumb Code   160  max30100.o(i.max30100_FIFO_Read)
    max30100_init                            0x080050b1   Thumb Code    68  max30100.o(i.max30100_init)
    my_floor                                 0x080050f5   Thumb Code    76  algorithm.o(i.my_floor)
    my_fmod                                  0x08005141   Thumb Code   152  algorithm.o(i.my_fmod)
    set_pwm_value                            0x0800520d   Thumb Code    20  beep.o(i.set_pwm_value)
    settone                                  0x08005229   Thumb Code    32  beep.o(i.settone)
    sqrtf                                    0x08005251   Thumb Code    44  sqrtf.o(i.sqrtf)
    tft_display_update                       0x0800527d   Thumb Code    50  blood.o(i.tft_display_update)
    tft_draw_State                           0x080052b5   Thumb Code    74  blood.o(i.tft_draw_State)
    tft_draw_frame                           0x08005319   Thumb Code    62  blood.o(i.tft_draw_frame)
    tft_draw_hrsp                            0x08005359   Thumb Code   124  blood.o(i.tft_draw_hrsp)
    tft_draw_wave                            0x080053f5   Thumb Code   114  blood.o(i.tft_draw_wave)
    tft_draw_wave_line                       0x08005479   Thumb Code   180  blood.o(i.tft_draw_wave_line)
    tft_draw_windows                         0x0800552d   Thumb Code   220  blood.o(i.tft_draw_windows)
    uxListRemove                             0x08005635   Thumb Code    40  list.o(i.uxListRemove)
    vListInsertEnd                           0x0800565d   Thumb Code    24  list.o(i.vListInsertEnd)
    vTaskSwitchContext                       0x08005675   Thumb Code   122  tasks.o(i.vTaskSwitchContext)
    xTaskIncrementTick                       0x08005705   Thumb Code   280  tasks.o(i.xTaskIncrementTick)
    asc16                                    0x08005848   Data        1521  gui.o(.constdata)
    sz32                                     0x08005e39   Data        1921  gui.o(.constdata)
    FREQ                                     0x080068e8   Data          42  beep.o(.constdata)
    AHBPrescTable                            0x08006912   Data          16  system_stm32f1xx.o(.constdata)
    APBPrescTable                            0x08006922   Data           8  system_stm32f1xx.o(.constdata)
    Region$$Table$$Base                      0x0800692c   Number         0  anon$$obj.o(Region$$Table)
    Region$$Table$$Limit                     0x0800694c   Number         0  anon$$obj.o(Region$$Table)
    g_fft_index                              0x20000000   Data           2  blood.o(.data)
    g_BloodWave                              0x20000004   Data           8  blood.o(.data)
    pxCurrentTCB                             0x20000020   Data           4  tasks.o(.data)
    g_tone                                   0x2000005c   Data           2  beep.o(.data)
    uwTick                                   0x20000060   Data           4  stm32f1xx_hal.o(.data)
    uwTickPrio                               0x20000064   Data           4  stm32f1xx_hal.o(.data)
    uwTickFreq                               0x20000068   Data           1  stm32f1xx_hal.o(.data)
    SystemCoreClock                          0x2000006c   Data           4  system_stm32f1xx.o(.data)
    s1                                       0x20000074   Data        8320  blood.o(.bss)
    s2                                       0x200020f4   Data        8320  blood.o(.bss)
    g_blooddata                              0x20004174   Data          12  blood.o(.bss)
    hadc1                                    0x20004198   Data          48  adc.o(.bss)
    hspi2                                    0x200041c8   Data          88  spi.o(.bss)
    hdma_spi2_tx                             0x20004220   Data          68  spi.o(.bss)
    htim4                                    0x20004264   Data          64  stm32f1xx_hal_timebase_tim.o(.bss)
    htim2                                    0x200042a4   Data          64  tim.o(.bss)
    huart1                                   0x200042e4   Data          64  usart.o(.bss)
    huart2                                   0x20004324   Data          64  usart.o(.bss)
    __initial_sp                             0x20004c28   Data           0  startup_stm32f103xb.o(STACK)



==============================================================================

Memory Map of the image

  Image Entry point : 0x080000ed

  Load Region LR_IROM1 (Base: 0x08000000, Size: 0x000069c0, Max: 0x00010000, ABSOLUTE)

    Execution Region ER_IROM1 (Exec base: 0x08000000, Load base: 0x08000000, Size: 0x0000694c, Max: 0x00010000, ABSOLUTE)

    Exec Addr    Load Addr    Size         Type   Attr      Idx    E Section Name        Object

    0x08000000   0x08000000   0x000000ec   Data   RO            3    RESET               startup_stm32f103xb.o
    0x080000ec   0x080000ec   0x00000000   Code   RO         5873  * .ARM.Collect$$$$00000000  mc_w.l(entry.o)
    0x080000ec   0x080000ec   0x00000004   Code   RO         6183    .ARM.Collect$$$$00000001  mc_w.l(entry2.o)
    0x080000f0   0x080000f0   0x00000004   Code   RO         6186    .ARM.Collect$$$$00000004  mc_w.l(entry5.o)
    0x080000f4   0x080000f4   0x00000000   Code   RO         6188    .ARM.Collect$$$$00000008  mc_w.l(entry7b.o)
    0x080000f4   0x080000f4   0x00000000   Code   RO         6190    .ARM.Collect$$$$0000000A  mc_w.l(entry8b.o)
    0x080000f4   0x080000f4   0x00000008   Code   RO         6191    .ARM.Collect$$$$0000000B  mc_w.l(entry9a.o)
    0x080000fc   0x080000fc   0x00000000   Code   RO         6193    .ARM.Collect$$$$0000000D  mc_w.l(entry10a.o)
    0x080000fc   0x080000fc   0x00000000   Code   RO         6195    .ARM.Collect$$$$0000000F  mc_w.l(entry11a.o)
    0x080000fc   0x080000fc   0x00000004   Code   RO         6184    .ARM.Collect$$$$00002712  mc_w.l(entry2.o)
    0x08000100   0x08000100   0x00000096   Code   RO         2564    .emb_text           port.o
    0x08000196   0x08000196   0x00000002   PAD
    0x08000198   0x08000198   0x00000024   Code   RO            4    .text               startup_stm32f103xb.o
    0x080001bc   0x080001bc   0x00000020   Code   RO         5876    .text               mc_w.l(llushr.o)
    0x080001dc   0x080001dc   0x00000024   Code   RO         5882    .text               mc_w.l(memseta.o)
    0x08000200   0x08000200   0x000000b0   Code   RO         6147    .text               mf_w.l(fadd.o)
    0x080002b0   0x080002b0   0x00000064   Code   RO         6149    .text               mf_w.l(fmul.o)
    0x08000314   0x08000314   0x0000007c   Code   RO         6151    .text               mf_w.l(fdiv.o)
    0x08000390   0x08000390   0x0000014e   Code   RO         6153    .text               mf_w.l(dadd.o)
    0x080004de   0x080004de   0x000000e4   Code   RO         6155    .text               mf_w.l(dmul.o)
    0x080005c2   0x080005c2   0x000000de   Code   RO         6157    .text               mf_w.l(ddiv.o)
    0x080006a0   0x080006a0   0x00000012   Code   RO         6159    .text               mf_w.l(fflti.o)
    0x080006b2   0x080006b2   0x0000000a   Code   RO         6161    .text               mf_w.l(ffltui.o)
    0x080006bc   0x080006bc   0x00000022   Code   RO         6163    .text               mf_w.l(dflti.o)
    0x080006de   0x080006de   0x00000032   Code   RO         6165    .text               mf_w.l(ffixi.o)
    0x08000710   0x08000710   0x00000028   Code   RO         6167    .text               mf_w.l(ffixui.o)
    0x08000738   0x08000738   0x0000003e   Code   RO         6169    .text               mf_w.l(dfixi.o)
    0x08000776   0x08000776   0x00000026   Code   RO         6171    .text               mf_w.l(f2d.o)
    0x0800079c   0x0800079c   0x00000030   Code   RO         6173    .text               mf_w.l(cdcmple.o)
    0x080007cc   0x080007cc   0x00000030   Code   RO         6175    .text               mf_w.l(cdrcmple.o)
    0x080007fc   0x080007fc   0x00000038   Code   RO         6177    .text               mf_w.l(d2f.o)
    0x08000834   0x08000834   0x00000014   Code   RO         6179    .text               mf_w.l(cfcmple.o)
    0x08000848   0x08000848   0x00000014   Code   RO         6181    .text               mf_w.l(cfrcmple.o)
    0x0800085c   0x0800085c   0x0000002c   Code   RO         6200    .text               mc_w.l(uidiv.o)
    0x08000888   0x08000888   0x00000062   Code   RO         6202    .text               mc_w.l(uldiv.o)
    0x080008ea   0x080008ea   0x0000001e   Code   RO         6204    .text               mc_w.l(llshl.o)
    0x08000908   0x08000908   0x00000024   Code   RO         6206    .text               mc_w.l(llsshr.o)
    0x0800092c   0x0800092c   0x00000000   Code   RO         6215    .text               mc_w.l(iusefp.o)
    0x0800092c   0x0800092c   0x0000006e   Code   RO         6216    .text               mf_w.l(fepilogue.o)
    0x0800099a   0x0800099a   0x0000005e   Code   RO         6218    .text               mf_w.l(fsqrt.o)
    0x080009f8   0x080009f8   0x000000ba   Code   RO         6220    .text               mf_w.l(depilogue.o)
    0x08000ab2   0x08000ab2   0x00000030   Code   RO         6222    .text               mf_w.l(dfixul.o)
    0x08000ae2   0x08000ae2   0x00000002   PAD
    0x08000ae4   0x08000ae4   0x00000024   Code   RO         6224    .text               mc_w.l(init.o)
    0x08000b08   0x08000b08   0x00000052   Code   RO         2957    i.ADC_ConversionStop_Disable  stm32f1xx_hal_adc.o
    0x08000b5a   0x08000b5a   0x00000002   PAD
    0x08000b5c   0x08000b5c   0x0000002c   Code   RO         2875    i.Beep_Control      beep.o
    0x08000b88   0x08000b88   0x00000004   Code   RO          873    i.BusFault_Handler  stm32f1xx_it.o
    0x08000b8c   0x08000b8c   0x00000010   Code   RO          874    i.DMA1_Channel5_IRQHandler  stm32f1xx_it.o
    0x08000b9c   0x08000b9c   0x00000002   Code   RO          875    i.DebugMon_Handler  stm32f1xx_it.o
    0x08000b9e   0x08000b9e   0x0000004c   Code   RO          248    i.EE                algorithm.o
    0x08000bea   0x08000bea   0x00000004   Code   RO          450    i.Error_Handler     main.o
    0x08000bee   0x08000bee   0x00000002   PAD
    0x08000bf0   0x08000bf0   0x0000018c   Code   RO          249    i.FFT               algorithm.o
    0x08000d7c   0x08000d7c   0x000000a8   Code   RO          174    i.Gui_DrawFont_GBK16  gui.o
    0x08000e24   0x08000e24   0x000000ba   Code   RO          177    i.Gui_DrawLine      gui.o
    0x08000ede   0x08000ede   0x0000002a   Code   RO         2644    i.Gui_DrawPoint     st7735.o
    0x08000f08   0x08000f08   0x00000160   Code   RO         2963    i.HAL_ADC_ConfigChannel  stm32f1xx_hal_adc.o
    0x08001068   0x08001068   0x00000144   Code   RO         2972    i.HAL_ADC_Init      stm32f1xx_hal_adc.o
    0x080011ac   0x080011ac   0x00000070   Code   RO          555    i.HAL_ADC_MspInit   adc.o
    0x0800121c   0x0800121c   0x000000b0   Code   RO         3618    i.HAL_DMA_Abort_IT  stm32f1xx_hal_dma.o
    0x080012cc   0x080012cc   0x0000019c   Code   RO         3622    i.HAL_DMA_IRQHandler  stm32f1xx_hal_dma.o
    0x08001468   0x08001468   0x00000068   Code   RO         3623    i.HAL_DMA_Init      stm32f1xx_hal_dma.o
    0x080014d0   0x080014d0   0x00000028   Code   RO         3240    i.HAL_Delay         stm32f1xx_hal.o
    0x080014f8   0x080014f8   0x00000320   Code   RO         3553    i.HAL_GPIO_Init     stm32f1xx_hal_gpio.o
    0x08001818   0x08001818   0x00000010   Code   RO         3555    i.HAL_GPIO_ReadPin  stm32f1xx_hal_gpio.o
    0x08001828   0x08001828   0x0000000c   Code   RO         3557    i.HAL_GPIO_WritePin  stm32f1xx_hal_gpio.o
    0x08001834   0x08001834   0x0000000c   Code   RO         3244    i.HAL_GetTick       stm32f1xx_hal.o
    0x08001840   0x08001840   0x00000018   Code   RO         3250    i.HAL_IncTick       stm32f1xx_hal.o
    0x08001858   0x08001858   0x00000028   Code   RO         3251    i.HAL_Init          stm32f1xx_hal.o
    0x08001880   0x08001880   0x00000088   Code   RO          738    i.HAL_InitTick      stm32f1xx_hal_timebase_tim.o
    0x08001908   0x08001908   0x00000060   Code   RO          955    i.HAL_MspInit       stm32f1xx_hal_msp.o
    0x08001968   0x08001968   0x00000020   Code   RO         3713    i.HAL_NVIC_EnableIRQ  stm32f1xx_hal_cortex.o
    0x08001988   0x08001988   0x0000007c   Code   RO         3719    i.HAL_NVIC_SetPriority  stm32f1xx_hal_cortex.o
    0x08001a04   0x08001a04   0x00000028   Code   RO         3720    i.HAL_NVIC_SetPriorityGrouping  stm32f1xx_hal_cortex.o
    0x08001a2c   0x08001a2c   0x00000130   Code   RO         3516    i.HAL_RCCEx_PeriphCLKConfig  stm32f1xx_hal_rcc_ex.o
    0x08001b5c   0x08001b5c   0x0000018c   Code   RO         3408    i.HAL_RCC_ClockConfig  stm32f1xx_hal_rcc.o
    0x08001ce8   0x08001ce8   0x00000044   Code   RO         3412    i.HAL_RCC_GetClockConfig  stm32f1xx_hal_rcc.o
    0x08001d2c   0x08001d2c   0x0000000c   Code   RO         3413    i.HAL_RCC_GetHCLKFreq  stm32f1xx_hal_rcc.o
    0x08001d38   0x08001d38   0x00000020   Code   RO         3415    i.HAL_RCC_GetPCLK1Freq  stm32f1xx_hal_rcc.o
    0x08001d58   0x08001d58   0x00000020   Code   RO         3416    i.HAL_RCC_GetPCLK2Freq  stm32f1xx_hal_rcc.o
    0x08001d78   0x08001d78   0x00000094   Code   RO         3417    i.HAL_RCC_GetSysClockFreq  stm32f1xx_hal_rcc.o
    0x08001e0c   0x08001e0c   0x00000464   Code   RO         3420    i.HAL_RCC_OscConfig  stm32f1xx_hal_rcc.o
    0x08002270   0x08002270   0x00000088   Code   RO         4250    i.HAL_SPI_Init      stm32f1xx_hal_spi.o
    0x080022f8   0x080022f8   0x000000b4   Code   RO          670    i.HAL_SPI_MspInit   spi.o
    0x080023ac   0x080023ac   0x00000002   Code   RO         5249    i.HAL_TIMEx_BreakCallback  stm32f1xx_hal_tim_ex.o
    0x080023ae   0x080023ae   0x00000002   Code   RO         5250    i.HAL_TIMEx_CommutCallback  stm32f1xx_hal_tim_ex.o
    0x080023b0   0x080023b0   0x00000054   Code   RO         5267    i.HAL_TIMEx_MasterConfigSynchronization  stm32f1xx_hal_tim_ex.o
    0x08002404   0x08002404   0x00000034   Code   RO         4563    i.HAL_TIM_Base_Init  stm32f1xx_hal_tim.o
    0x08002438   0x08002438   0x0000002c   Code   RO          778    i.HAL_TIM_Base_MspInit  tim.o
    0x08002464   0x08002464   0x0000002a   Code   RO         4568    i.HAL_TIM_Base_Start_IT  stm32f1xx_hal_tim.o
    0x0800248e   0x0800248e   0x00000108   Code   RO         4572    i.HAL_TIM_ConfigClockSource  stm32f1xx_hal_tim.o
    0x08002596   0x08002596   0x00000002   Code   RO         4592    i.HAL_TIM_IC_CaptureCallback  stm32f1xx_hal_tim.o
    0x08002598   0x08002598   0x00000196   Code   RO         4606    i.HAL_TIM_IRQHandler  stm32f1xx_hal_tim.o
    0x0800272e   0x0800272e   0x00000002   PAD
    0x08002730   0x08002730   0x000000a0   Code   RO          779    i.HAL_TIM_MspPostInit  tim.o
    0x080027d0   0x080027d0   0x00000002   Code   RO         4609    i.HAL_TIM_OC_DelayElapsedCallback  stm32f1xx_hal_tim.o
    0x080027d2   0x080027d2   0x00000108   Code   RO         4630    i.HAL_TIM_PWM_ConfigChannel  stm32f1xx_hal_tim.o
    0x080028da   0x080028da   0x00000034   Code   RO         4633    i.HAL_TIM_PWM_Init  stm32f1xx_hal_tim.o
    0x0800290e   0x0800290e   0x00000002   Code   RO         4635    i.HAL_TIM_PWM_MspInit  stm32f1xx_hal_tim.o
    0x08002910   0x08002910   0x00000002   Code   RO         4636    i.HAL_TIM_PWM_PulseFinishedCallback  stm32f1xx_hal_tim.o
    0x08002912   0x08002912   0x00000002   PAD
    0x08002914   0x08002914   0x0000004c   Code   RO         4638    i.HAL_TIM_PWM_Start  stm32f1xx_hal_tim.o
    0x08002960   0x08002960   0x00000018   Code   RO          451    i.HAL_TIM_PeriodElapsedCallback  main.o
    0x08002978   0x08002978   0x00000002   Code   RO         4649    i.HAL_TIM_TriggerCallback  stm32f1xx_hal_tim.o
    0x0800297a   0x0800297a   0x00000002   Code   RO         5521    i.HAL_UART_ErrorCallback  stm32f1xx_hal_uart.o
    0x0800297c   0x0800297c   0x0000014c   Code   RO         5524    i.HAL_UART_IRQHandler  stm32f1xx_hal_uart.o
    0x08002ac8   0x08002ac8   0x00000072   Code   RO         5525    i.HAL_UART_Init     stm32f1xx_hal_uart.o
    0x08002b3a   0x08002b3a   0x00000002   PAD
    0x08002b3c   0x08002b3c   0x00000110   Code   RO          826    i.HAL_UART_MspInit  usart.o
    0x08002c4c   0x08002c4c   0x00000002   Code   RO         5531    i.HAL_UART_RxCpltCallback  stm32f1xx_hal_uart.o
    0x08002c4e   0x08002c4e   0x00000002   Code   RO         5536    i.HAL_UART_TxCpltCallback  stm32f1xx_hal_uart.o
    0x08002c50   0x08002c50   0x00000004   Code   RO          876    i.HardFault_Handler  stm32f1xx_it.o
    0x08002c54   0x08002c54   0x00000040   Code   RO         2785    i.I2C_Ack           iiccom.o
    0x08002c94   0x08002c94   0x00000040   Code   RO         2787    i.I2C_NoAck         iiccom.o
    0x08002cd4   0x08002cd4   0x0000005c   Code   RO         2788    i.I2C_RadeByte      iiccom.o
    0x08002d30   0x08002d30   0x00000064   Code   RO         2789    i.I2C_SendByte      iiccom.o
    0x08002d94   0x08002d94   0x0000005c   Code   RO         2790    i.I2C_Start         iiccom.o
    0x08002df0   0x08002df0   0x00000040   Code   RO         2791    i.I2C_Stop          iiccom.o
    0x08002e30   0x08002e30   0x00000054   Code   RO         2792    i.I2C_WaitAck       iiccom.o
    0x08002e84   0x08002e84   0x0000000e   Code   RO         2793    i.I2C_delay         iiccom.o
    0x08002e92   0x08002e92   0x00000002   PAD
    0x08002e94   0x08002e94   0x00000020   Code   RO         2645    i.LCD_WriteData_16Bit  st7735.o
    0x08002eb4   0x08002eb4   0x0000006a   Code   RO         2646    i.Lcd_Block         st7735.o
    0x08002f1e   0x08002f1e   0x00000032   Code   RO         2647    i.Lcd_Clear         st7735.o
    0x08002f50   0x08002f50   0x00000268   Code   RO         2648    i.Lcd_Init          st7735.o
    0x080031b8   0x080031b8   0x00000056   Code   RO         2651    i.Lcd_SetRegion     st7735.o
    0x0800320e   0x0800320e   0x00000014   Code   RO         2652    i.Lcd_SetXY         st7735.o
    0x08003222   0x08003222   0x00000002   PAD
    0x08003224   0x08003224   0x00000018   Code   RO         2653    i.Lcd_WriteData     st7735.o
    0x0800323c   0x0800323c   0x00000018   Code   RO         2654    i.Lcd_WriteIndex    st7735.o
    0x08003254   0x08003254   0x0000002c   Code   RO         2876    i.Led_Control       beep.o
    0x08003280   0x08003280   0x00000128   Code   RO          331    i.Led_beep_update   blood.o
    0x080033a8   0x080033a8   0x0000005c   Code   RO          556    i.MX_ADC1_Init      adc.o
    0x08003404   0x08003404   0x00000034   Code   RO          596    i.MX_DMA_Init       dma.o
    0x08003438   0x08003438   0x00000114   Code   RO          530    i.MX_GPIO_Init      gpio.o
    0x0800354c   0x0800354c   0x00000048   Code   RO          671    i.MX_SPI2_Init      spi.o
    0x08003594   0x08003594   0x000000c0   Code   RO          780    i.MX_TIM2_Init      tim.o
    0x08003654   0x08003654   0x00000038   Code   RO          827    i.MX_USART1_UART_Init  usart.o
    0x0800368c   0x0800368c   0x00000038   Code   RO          828    i.MX_USART2_UART_Init  usart.o
    0x080036c4   0x080036c4   0x00000004   Code   RO          877    i.MemManage_Handler  stm32f1xx_it.o
    0x080036c8   0x080036c8   0x00000002   Code   RO          878    i.NMI_Handler       stm32f1xx_it.o
    0x080036ca   0x080036ca   0x00000002   PAD
    0x080036cc   0x080036cc   0x00000028   Code   RO         3421    i.RCC_Delay         stm32f1xx_hal_rcc.o
    0x080036f4   0x080036f4   0x00000040   Code   RO         2656    i.SPI_WriteData     st7735.o
    0x08003734   0x08003734   0x00000034   Code   RO         2565    i.SysTick_Handler   port.o
    0x08003768   0x08003768   0x00000084   Code   RO          452    i.SystemClock_Config  main.o
    0x080037ec   0x080037ec   0x00000058   Code   RO         5832    i.SystemInit        system_stm32f1xx.o
    0x08003844   0x08003844   0x00000014   Code   RO          879    i.TIM4_IRQHandler   stm32f1xx_it.o
    0x08003858   0x08003858   0x00000074   Code   RO         4651    i.TIM_Base_SetConfig  stm32f1xx_hal_tim.o
    0x080038cc   0x080038cc   0x00000022   Code   RO         4652    i.TIM_CCxChannelCmd  stm32f1xx_hal_tim.o
    0x080038ee   0x080038ee   0x00000016   Code   RO         4662    i.TIM_ETR_SetConfig  stm32f1xx_hal_tim.o
    0x08003904   0x08003904   0x00000012   Code   RO         4663    i.TIM_ITRx_SetConfig  stm32f1xx_hal_tim.o
    0x08003916   0x08003916   0x00000002   PAD
    0x08003918   0x08003918   0x00000060   Code   RO         4664    i.TIM_OC1_SetConfig  stm32f1xx_hal_tim.o
    0x08003978   0x08003978   0x00000068   Code   RO         4665    i.TIM_OC2_SetConfig  stm32f1xx_hal_tim.o
    0x080039e0   0x080039e0   0x00000068   Code   RO         4666    i.TIM_OC3_SetConfig  stm32f1xx_hal_tim.o
    0x08003a48   0x08003a48   0x00000048   Code   RO         4667    i.TIM_OC4_SetConfig  stm32f1xx_hal_tim.o
    0x08003a90   0x08003a90   0x00000026   Code   RO         4669    i.TIM_TI1_ConfigInputStage  stm32f1xx_hal_tim.o
    0x08003ab6   0x08003ab6   0x00000028   Code   RO         4671    i.TIM_TI2_ConfigInputStage  stm32f1xx_hal_tim.o
    0x08003ade   0x08003ade   0x00000014   Code   RO         5538    i.UART_DMAAbortOnError  stm32f1xx_hal_uart.o
    0x08003af2   0x08003af2   0x00000020   Code   RO         5548    i.UART_EndRxTransfer  stm32f1xx_hal_uart.o
    0x08003b12   0x08003b12   0x00000020   Code   RO         5549    i.UART_EndTransmit_IT  stm32f1xx_hal_uart.o
    0x08003b32   0x08003b32   0x000000a6   Code   RO         5551    i.UART_Receive_IT   stm32f1xx_hal_uart.o
    0x08003bd8   0x08003bd8   0x000001a0   Code   RO         5552    i.UART_SetConfig    stm32f1xx_hal_uart.o
    0x08003d78   0x08003d78   0x00000068   Code   RO         5553    i.UART_Transmit_IT  stm32f1xx_hal_uart.o
    0x08003de0   0x08003de0   0x00000010   Code   RO          880    i.USART1_IRQHandler  stm32f1xx_it.o
    0x08003df0   0x08003df0   0x00000010   Code   RO          881    i.USART2_IRQHandler  stm32f1xx_it.o
    0x08003e00   0x08003e00   0x00000004   Code   RO          882    i.UsageFault_Handler  stm32f1xx_it.o
    0x08003e04   0x08003e04   0x00000008   Code   RO           13    i.User_Interrupt    user_main.o
    0x08003e0c   0x08003e0c   0x00000008   Code   RO           14    i.User_Loop         user_main.o
    0x08003e14   0x08003e14   0x00000034   Code   RO           15    i.User_Setup        user_main.o
    0x08003e48   0x08003e48   0x00000028   Code   RO          250    i.XCos              algorithm.o
    0x08003e70   0x08003e70   0x00000210   Code   RO          251    i.XSin              algorithm.o
    0x08004080   0x08004080   0x00000028   Code   RO         6121    i.__0sprintf        mc_w.l(printfa.o)
    0x080040a8   0x080040a8   0x00000010   Code   RO         3726    i.__NVIC_GetPriorityGrouping  stm32f1xx_hal_cortex.o
    0x080040b8   0x080040b8   0x00000028   Code   RO         3727    i.__NVIC_SetPriority  stm32f1xx_hal_cortex.o
    0x080040e0   0x080040e0   0x0000000e   Code   RO         6230    i.__scatterload_copy  mc_w.l(handlers.o)
    0x080040ee   0x080040ee   0x00000002   Code   RO         6231    i.__scatterload_null  mc_w.l(handlers.o)
    0x080040f0   0x080040f0   0x0000000e   Code   RO         6232    i.__scatterload_zeroinit  mc_w.l(handlers.o)
    0x080040fe   0x080040fe   0x00000002   PAD
    0x08004100   0x08004100   0x0000000c   Code   RO         6210    i.__set_errno       mc_w.l(errno.o)
    0x0800410c   0x0800410c   0x00000184   Code   RO         6126    i._fp_digits        mc_w.l(printfa.o)
    0x08004290   0x08004290   0x000006dc   Code   RO         6127    i._printf_core      mc_w.l(printfa.o)
    0x0800496c   0x0800496c   0x00000024   Code   RO         6128    i._printf_post_padding  mc_w.l(printfa.o)
    0x08004990   0x08004990   0x0000002e   Code   RO         6129    i._printf_pre_padding  mc_w.l(printfa.o)
    0x080049be   0x080049be   0x0000000a   Code   RO         6131    i._sputc            mc_w.l(printfa.o)
    0x080049c8   0x080049c8   0x00000040   Code   RO          332    i.blood_Interrupt   blood.o
    0x08004a08   0x08004a08   0x00000014   Code   RO          333    i.blood_Loop        blood.o
    0x08004a1c   0x08004a1c   0x00000020   Code   RO          334    i.blood_Setup       blood.o
    0x08004a3c   0x08004a3c   0x00000178   Code   RO          335    i.blood_data_translate  blood.o
    0x08004bb4   0x08004bb4   0x000000b8   Code   RO          336    i.blood_data_update  blood.o
    0x08004c6c   0x08004c6c   0x000001a8   Code   RO          337    i.blood_wave_update  blood.o
    0x08004e14   0x08004e14   0x00000048   Code   RO          253    i.dc_filter         algorithm.o
    0x08004e5c   0x08004e5c   0x00000032   Code   RO          254    i.find_max_num_index  algorithm.o
    0x08004e8e   0x08004e8e   0x00000074   Code   RO          179    i.gui_draw_Block    gui.o
    0x08004f02   0x08004f02   0x0000004a   Code   RO          180    i.gui_draw_square   gui.o
    0x08004f4c   0x08004f4c   0x00000030   Code   RO          453    i.main              main.o
    0x08004f7c   0x08004f7c   0x00000050   Code   RO         2740    i.max30100_Bus_Read  max30100.o
    0x08004fcc   0x08004fcc   0x00000044   Code   RO         2741    i.max30100_Bus_Write  max30100.o
    0x08005010   0x08005010   0x000000a0   Code   RO         2742    i.max30100_FIFO_Read  max30100.o
    0x080050b0   0x080050b0   0x00000044   Code   RO         2743    i.max30100_init     max30100.o
    0x080050f4   0x080050f4   0x0000004c   Code   RO          255    i.my_floor          algorithm.o
    0x08005140   0x08005140   0x00000098   Code   RO          256    i.my_fmod           algorithm.o
    0x080051d8   0x080051d8   0x00000034   Code   RO         1562    i.prvResetNextTaskUnblockTime  tasks.o
    0x0800520c   0x0800520c   0x0000001c   Code   RO         2877    i.set_pwm_value     beep.o
    0x08005228   0x08005228   0x00000028   Code   RO         2878    i.settone           beep.o
    0x08005250   0x08005250   0x0000002c   Code   RO         5866    i.sqrtf             m_ws.l(sqrtf.o)
    0x0800527c   0x0800527c   0x00000038   Code   RO          338    i.tft_display_update  blood.o
    0x080052b4   0x080052b4   0x00000064   Code   RO          339    i.tft_draw_State    blood.o
    0x08005318   0x08005318   0x0000003e   Code   RO          340    i.tft_draw_frame    blood.o
    0x08005356   0x08005356   0x00000002   PAD
    0x08005358   0x08005358   0x0000009c   Code   RO          341    i.tft_draw_hrsp     blood.o
    0x080053f4   0x080053f4   0x00000084   Code   RO          342    i.tft_draw_wave     blood.o
    0x08005478   0x08005478   0x000000b4   Code   RO          343    i.tft_draw_wave_line  blood.o
    0x0800552c   0x0800552c   0x00000108   Code   RO          344    i.tft_draw_windows  blood.o
    0x08005634   0x08005634   0x00000028   Code   RO         1107    i.uxListRemove      list.o
    0x0800565c   0x0800565c   0x00000018   Code   RO         1111    i.vListInsertEnd    list.o
    0x08005674   0x08005674   0x00000090   Code   RO         1594    i.vTaskSwitchContext  tasks.o
    0x08005704   0x08005704   0x00000144   Code   RO         1604    i.xTaskIncrementTick  tasks.o
    0x08005848   0x08005848   0x00000d72   Data   RO          181    .constdata          gui.o
    0x080065ba   0x080065ba   0x00000006   PAD
    0x080065c0   0x080065c0   0x00000328   Data   RO          258    .constdata          algorithm.o
    0x080068e8   0x080068e8   0x0000002a   Data   RO         2879    .constdata          beep.o
    0x08006912   0x08006912   0x00000018   Data   RO         5833    .constdata          system_stm32f1xx.o
    0x0800692a   0x0800692a   0x00000002   PAD
    0x0800692c   0x0800692c   0x00000020   Data   RO         6228    Region$$Table       anon$$obj.o


    Execution Region RW_IRAM1 (Exec base: 0x20000000, Load base: 0x0800694c, Size: 0x00004c28, Max: 0x00005000, ABSOLUTE)

    Exec Addr    Load Addr    Size         Type   Attr      Idx    E Section Name        Object

    0x20000000   0x0800694c   0x0000001e   Data   RW          347    .data               blood.o
    0x2000001e   0x0800696a   0x00000002   PAD
    0x20000020   0x0800696c   0x0000003c   Data   RW         1613    .data               tasks.o
    0x2000005c   0x080069a8   0x00000002   Data   RW         2880    .data               beep.o
    0x2000005e   0x080069aa   0x00000002   PAD
    0x20000060   0x080069ac   0x00000009   Data   RW         3258    .data               stm32f1xx_hal.o
    0x20000069   0x080069b5   0x00000003   PAD
    0x2000006c   0x080069b8   0x00000004   Data   RW         5834    .data               system_stm32f1xx.o
    0x20000070   0x080069bc   0x00000004   Data   RW         6211    .data               mc_w.l(errno.o)
    0x20000074        -       0x00004124   Zero   RW          346    .bss                blood.o
    0x20004198        -       0x00000030   Zero   RW          557    .bss                adc.o
    0x200041c8        -       0x0000009c   Zero   RW          672    .bss                spi.o
    0x20004264        -       0x00000040   Zero   RW          741    .bss                stm32f1xx_hal_timebase_tim.o
    0x200042a4        -       0x00000040   Zero   RW          781    .bss                tim.o
    0x200042e4        -       0x00000080   Zero   RW          829    .bss                usart.o
    0x20004364        -       0x000004c4   Zero   RW         1612    .bss                tasks.o
    0x20004828        -       0x00000400   Zero   RW            1    STACK               startup_stm32f103xb.o


==============================================================================

Image component sizes


      Code (inc. data)   RO Data    RW Data    ZI Data      Debug   Object Name

       204         24          0          0         48       1637   adc.o
      1390         66        808          0          0       6555   algorithm.o
       156         36         42          2          0       2629   beep.o
      2346        256          0         30      16676       9113   blood.o
        52          4          0          0          0        738   dma.o
         0          0          0          0          0      17700   event_groups.o
         0          0          0          0          0       2640   freertos.o
       276         16          0          0          0       1011   gpio.o
       544          6       3442          0          0       4316   gui.o
       574         34          0          0          0       4149   iiccom.o
        64          0          0          0          0       1660   list.o
       208          6          0          0          0       6980   main.o
       376          0          0          0          0       2718   max30100.o
       202         18          0          0          0       3542   port.o
       252         30          0          0        156       1690   spi.o
      1064         28          0          0          0       6722   st7735.o
        36          8        236          0       1024        792   startup_stm32f103xb.o
       116         24          0          9          0       5234   stm32f1xx_hal.o
       758         24          0          0          0       3100   stm32f1xx_hal_adc.o
       252         22          0          0          0      28658   stm32f1xx_hal_cortex.o
       692         12          0          0          0       2635   stm32f1xx_hal_dma.o
       828         34          0          0          0       3303   stm32f1xx_hal_gpio.o
        96         10          0          0          0        890   stm32f1xx_hal_msp.o
      1852        120          0          0          0       6601   stm32f1xx_hal_rcc.o
       304         14          0          0          0       1392   stm32f1xx_hal_rcc_ex.o
       136          0          0          0          0       1103   stm32f1xx_hal_spi.o
      1810         36          0          0          0      15176   stm32f1xx_hal_tim.o
        88          0          0          0          0       2345   stm32f1xx_hal_tim_ex.o
       136         18          0          0         64       1455   stm32f1xx_hal_timebase_tim.o
      1222         10          0          0          0       7403   stm32f1xx_hal_uart.o
        88         24          0          0          0       4454   stm32f1xx_it.o
        88         18         24          4          0       1171   system_stm32f1xx.o
       520         76          0         60       1220       6441   tasks.o
       396         24          0          0         64       2436   tim.o
       384         36          0          0        128       2283   usart.o
        68          6          0          0          0     443930   user_main.o

    ----------------------------------------------------------------------
     17600       1040       4592        112      19380     614602   Object Totals
         0          0         32          0          0          0   (incl. Generated)
        22          0          8          7          0          0   (incl. Padding)

    ----------------------------------------------------------------------

      Code (inc. data)   RO Data    RW Data    ZI Data      Debug   Library Member Name

        44          0          0          0          0         80   sqrtf.o
         0          0          0          0          0          0   entry.o
         0          0          0          0          0          0   entry10a.o
         0          0          0          0          0          0   entry11a.o
         8          4          0          0          0          0   entry2.o
         4          0          0          0          0          0   entry5.o
         0          0          0          0          0          0   entry7b.o
         0          0          0          0          0          0   entry8b.o
         8          4          0          0          0          0   entry9a.o
        12          6          0          4          0         68   errno.o
        30          0          0          0          0          0   handlers.o
        36          8          0          0          0         68   init.o
         0          0          0          0          0          0   iusefp.o
        30          0          0          0          0         68   llshl.o
        36          0          0          0          0         68   llsshr.o
        32          0          0          0          0         68   llushr.o
        36          0          0          0          0        108   memseta.o
      2276         86          0          0          0        520   printfa.o
        44          0          0          0          0         80   uidiv.o
        98          0          0          0          0         92   uldiv.o
        48          0          0          0          0         68   cdcmple.o
        48          0          0          0          0         68   cdrcmple.o
        20          0          0          0          0         68   cfcmple.o
        20          0          0          0          0         68   cfrcmple.o
        56          0          0          0          0         88   d2f.o
       334          0          0          0          0        148   dadd.o
       222          0          0          0          0        100   ddiv.o
       186          0          0          0          0        176   depilogue.o
        62          0          0          0          0         80   dfixi.o
        48          0          0          0          0         68   dfixul.o
        34          0          0          0          0         76   dflti.o
       228          0          0          0          0         96   dmul.o
        38          0          0          0          0         68   f2d.o
       176          0          0          0          0        140   fadd.o
       124          0          0          0          0         88   fdiv.o
       110          0          0          0          0        168   fepilogue.o
        50          0          0          0          0         68   ffixi.o
        40          0          0          0          0         68   ffixui.o
        18          0          0          0          0         68   fflti.o
        10          0          0          0          0         68   ffltui.o
       100          0          0          0          0         76   fmul.o
        94          0          0          0          0         96   fsqrt.o

    ----------------------------------------------------------------------
      4764        108          0          4          0       3232   Library Totals
         4          0          0          0          0          0   (incl. Padding)

    ----------------------------------------------------------------------

      Code (inc. data)   RO Data    RW Data    ZI Data      Debug   Library Name

        44          0          0          0          0         80   m_ws.l
      2650        108          0          4          0       1140   mc_w.l
      2066          0          0          0          0       2012   mf_w.l

    ----------------------------------------------------------------------
      4764        108          0          4          0       3232   Library Totals

    ----------------------------------------------------------------------

==============================================================================


      Code (inc. data)   RO Data    RW Data    ZI Data      Debug   

     22364       1148       4592        116      19380     608366   Grand Totals
     22364       1148       4592        116      19380     608366   ELF Image Totals
     22364       1148       4592        116          0          0   ROM Totals

==============================================================================

    Total RO  Size (Code + RO Data)                26956 (  26.32kB)
    Total RW  Size (RW Data + ZI Data)             19496 (  19.04kB)
    Total ROM Size (Code + RO Data + RW Data)      27072 (  26.44kB)

==============================================================================

