:020000040800F2
:10000000502500200101000817130008550F0008B3
:1000100013130008110A000851190008000000001D
:100020000000000000000000000000001916000899
:10003000B90A00080000000021150008591700083F
:100040001B0100081B0100081B0100081B01000820
:100050001B0100081B0100081B0100081B01000810
:100060001B0100081B0100081B0100081B01000800
:100070001B0100081B0100081B0100081B010008F0
:100080001B0100081B0100081B0100081B010008E0
:100090001B0100081B0100081B0100081B010008D0
:1000A0001B0100081B0100081B0100081B010008C0
:1000B0001B0100081B0100081B0100081B010008B0
:1000C0001B0100081B0100081B0100081B010008A0
:1000D0001B0100081B0100081B0100081B01000890
:1000E0001B0100081B0100081B010008DFF80CD0F1
:1000F00000F07CFC00480047312C0008502500200F
:100100000648804706480047FEE7FEE7FEE7FEE7B1
:10011000FEE7FEE7FEE7FEE7FEE7FEE75D17000805
:10012000ED000008F0B480EA0102D40F4200B2EB07
:10013000410F02D20246084611464A0042D0C30D82
:10014000DDB2C1F3C752AD1A202D35DAC1F3160165
:1001500041F4000204B15242C5F1200602FA06F150
:100160002A411044B3EBD05F23D0C4B1012DA0EBE2
:10017000C35009DCF0BC4FF0004202EAC352DBB2CC
:1001800000F5000000F05FBB400000F1807000EB64
:10019000C350A0F1807040EAD170490009E04908DD
:1001A00041EAC071A0EBC35000F50000400800EB2D
:1001B000C350F0BC00F03EBB6142012202EB4101A2
:1001C000001BF6E7F0BC704781F00041AAE780F021
:1001D0000040A7E780EA010210B502F000434000AA
:1001E00022D04A001FD0010E01EB1261C0F356006D
:1001F000C2F3560240F4000042F40002A0FB0220C9
:1002000000047F39140400D0401C50EA124001D48D
:100210004000491EC2B20C0604EBD010401C40083E
:10022000802A02D003E0002010BD20F00100002948
:1002300000DA0020184310BD30B480EA010202F059
:10024000004530F0004221F0004013D090B1C30DC2
:10025000D40DC2F31601C0F31600E41A41F40001F4
:1002600040F400027D34914201D3641C00E0490057
:10027000002C02DA30BC002070474FF4000000234D
:10028000914201D3891A034340084FEA4101F7D153
:1002900051B1914202D14FF0004105E002D24FF03E
:1002A000010101E06FF0010103EBC450284430BCB0
:1002B00000F0C0BA2DE9FE4F804681EA0300C00F6E
:1002C0000C46009021F0004123F00045B8EB0200FD
:1002D000A94105D24046214690461C460B4602469F
:1002E00023F00040104347D0270DC7F30A00C3F3A3
:1002F0000A510290401A019040286BDAC3F31300B0
:1003000040F4801B0098924620B10023D2EB030AF0
:1003100063EB0B0B01985946C0F14002504600F0C8
:1003200058FA06460D4650465946019A00F070FAB2
:1003300010EB08006141002487EA115284EAE77358
:100340001A4340D0009A62B3019A012A4FEA075239
:1003500015DC001B61EB02014FF0004202EA07527C
:10036000CDE90042001C41F5801132462B4600F0D9
:10037000D6FA03B0BDE8F08F40462146F9E7001BEE
:1003800061EB0201001C41F5801300185B4120184D
:10039000A2F5001747EB030140EAD570B6196D418D
:1003A00011E06D084FEA360645EAC0754FEA07527C
:1003B000001B61EB0201001C41F5801149084FEA66
:1003C00030000019514132462B4603B0BDE8F04FD2
:1003D00000F096BA0098012240000023D0EB020200
:1003E00063EBE073009821464FEAE074B8EB00003D
:1003F00061EB0401E9E783F000435BE781F0004132
:1004000058E72DE9FE4F81EA030404F0004421F08F
:10041000004100944FF0000B23F0004350EA010428
:100420005ED052EA03045BD0C3F30A54C1F30A5509
:100430002C44A4F2F3340194A0FB0254C1F3130141
:1004400041F48011C3F3130343F4801301FB02440E
:1004500000FB034E840A970A44EA815447EA835713
:10046000A4FB076802958D0A05FB07854FEA932CCC
:1004700004FB0C542705029D4FEA065847EA16373D
:10048000B5EB08056EEB070C870E920E47EA811755
:1004900042EA8312A7FB0201B6EB0B0164EB0004F6
:1004A0002B0D43EA0C335E1844EB1C50DA465146E0
:1004B000E7FB0201C5F313044FEA0B3343EA14537D
:1004C0004FEA0432019C43EA0603A4F10C040294AF
:1004D000009CCDE900B400F022FA03B0BDE8F08F33
:1004E00000200146F9E72DE9F04D81EA030404F00C
:1004F000004B21F0004514464FF0000A23F0004164
:1005000050EA050220D054EA01021DD0C5F30A5773
:100510000246C5F31303C1F31300C1F30A5640F4B6
:10052000801543F48013A7EB0608101BD64608F28B
:10053000FD3873EB050002D308F1010801E09218C1
:100540005B41B8F1000F03DA00200146BDE8F08DF1
:1005500000204FF48011064684460EE0171B73EB13
:10056000050705D3121B63EB050306434CEA010C98
:1005700049084FEA300092185B4150EA0107EDD17B
:1005800052EA030012D082EA040083EA050108431C
:1005900005D0101BAB4106D20122002306E0002249
:1005A0004FF0004302E06FF0010253101AEB060017
:1005B0004CEB085110EB0A0041EB0B01BDE8F04D8C
:1005C00000F09EB9C10F80EAE0700844CA07962384
:1005D000002100F038B996230022114600F033B90B
:1005E0000EB5C10F80EAE0700844CA07002140F24E
:1005F00033438DE80E000A460B4600F090F903B035
:1006000000BD00F0004220F00040C10DC0F3160014
:1006100040F400007F2901DA00207047962903DCAE
:10062000C1F19601C84001E096398840002AF4D013
:100630004042704770B5C1F30A5201F000450024F2
:10064000C1F3130140F2FF3341F480119A4201DA01
:10065000002070BD40F233439A42A2F2334203DCE1
:10066000524200F0C5F800E090402C43F1D04042E7
:1006700070BD00F0004230F000400AD0C10D01F51D
:100680006071C0F3160042EA0151C20840071143ED
:10069000704700200146704730B5041E71F1000418
:1006A00004DB4FF00044404264EB0101141E73F17F
:1006B000000405DB1C464FF00043524263EB040389
:1006C0008B4208BF824230BD30B5041E71F1000478
:1006D00004DB4FF00044404264EB0101141E73F14F
:1006E000000405DB1C464FF00043524263EB040359
:1006F000994208BF904230BD01F0004330B421F070
:10070000004150EA010206D00A0DA2F56072C1F361
:100710001301002A02DC30BC00207047440F44EA79
:10072000C104C100E01830BC00EBC25000F082B838
:10073000002801DBC0F10040002901DBC1F10041CC
:100740008142704730B50B4601460020202201242B
:1007500009E021FA02F59D4205D303FA02F5491B8F
:1007600004FA02F52844151EA2F10102F1DC30BDA5
:100770002DE9F05F0546002092469B4688460646D6
:10078000814640241BE0284641464746224600F069
:100790002FF853465A46C01A914110D311461846B5
:1007A000224600F016F82D1A67EB01084F46224644
:1007B0000120002100F00DF817EB00094E41201E2A
:1007C000A4F10104DFDC484631462A464346BDE831
:1007D000F09F202A04DB203A00FA02F10020704743
:1007E0009140C2F1200320FA03F31943904070476F
:1007F000202A04DB203A21FA02F00021704721FA76
:1008000002F3D040C2F120029140084319467047DC
:10081000202A06DBCB17203A41FA02F043EAE073C4
:1008200006E041FA02F3D040C2F1200291400843B1
:10083000194670470029A8BF7047401C490008BFEF
:1008400020F00100704710B4B0FA80FC00FA0CF000
:1008500050EA010404BF10BC704749B1CCF1200438
:1008600021FA04F411FA0CF118BF012121430843C5
:10087000A3EB0C01CB1D4FEA00614FEA102042BFF1
:10088000002010BC704700EBC35010440029A4BFE7
:1008900010BC7047401C490008BF20F0010010BC8C
:1008A0007047F0B4002802DCF0BC00207047C0F3B1
:1008B000C751C0F3160040F40000CA0701D1400040
:1008C000491E3F2202EB6105002211464FF400064B
:1008D00026FA01F31344D418844201D8001B1A46A7
:1008E0004000491C1729F3DD5100814202D24FF02C
:1008F000FF3100E0002102EBC550F0BCFFF79ABFCA
:1009000010B5141E73F1000408DA401C41F1000117
:1009100092185B411A4301D120F0010010BD2DE96E
:10092000F04D92469B4611B1B1FA81F202E0B0FA65
:1009300080F220329046FFF74CFF04460F4640EA13
:100940000A0041EA0B0153465A46084313D01146A8
:1009500053EA010019D0C8F140025046FFF748FFA2
:1009600005460E46504659464246FFF732FF0843B9
:1009700005D0012004E020463946BDE8F08D002076
:10098000054346EAE0762C4337430A986305E40AB8
:10099000A0EB08000022FD0A44EA47540A3002D5C1
:1009A00000200146E9E7010510196941DDE9084524
:1009B00000196941BDE8F04DA2E7C1F30A52C1F345
:1009C000130140F2FF3341F480119A4202DA002011
:1009D0000146704740F233439A42A2F2334202DCAE
:1009E0005242FFF705BFFFF7F4BE0000064C074D6B
:1009F00006E0E06840F0010394E8070098471034EF
:100A0000AC42F6D3FFF776FB103A0008303A000804
:100A100000BFFEE770B50024002500F0BFF810B15C
:100A200047F6FF7070BDCC2000F0DEF8442000F0E7
:100A3000DBF800F0B3F810B147F6FF70F2E7CC2016
:100A400000F0D2F8BE2000F0CFF800F009F804461C
:100A500000F006F8054604EB052000B2E2E70000CE
:100A600070B5002521E000F083F84FF48051114863
:100A700000F06CFA022000F045F84FF480510D4868
:100A800000F066FA00F062F80C2000F03BF8641009
:100A90004FF48051074800F050FA08B144F0800448
:100AA000322000F02FF8681CC5B2082DDBDB204691
:100AB00070BD0000000C01407047000070B5044696
:100AC0000F4800684FF47A71B0FBF1F6304600F041
:100AD00019FE002508E000BF4FF0E020006900F497
:100AE00080300028F8D06D1CA542F4D34FF0E020F0
:100AF000006920F001004FF0E021086170BD0000A6
:100B00000000002070B504460E4800680E49B0FB96
:100B1000F1F6304600F0F6FD002508E000BF4FF08A
:100B2000E020006900F480300028F8D06D1CA54258
:100B3000F4D34FF0E020006920F001004FF0E021F5
:100B4000086170BD0000002040420F0008B501217F
:100B5000082000F0E7FC04208DF803008002ADF8C7
:100B600000006946014800F05DF908BD000C014035
:100B700008B50121082000F0D5FC10208DF80300F5
:100B80000002ADF8000003208DF80200694602481B
:100B900000F048F908BD0000000C014010B5012428
:100BA000FFF7E6FF21030F4800F0D0F94FF4FA7089
:100BB000FFF7A8FF21030B4800F0CAF93C20FFF71C
:100BC000A1FFFFF7C3FF2103064800F0B6F9044672
:100BD000B420FFF797FF4FF48051024800F0B8F9B6
:100BE000204610BD000C014070B50446FFF7C0FF61
:100BF000002526E004F0010080B14FF48051124836
:100C000000F0A4F90220FFF77DFF4FF480510E4859
:100C100000F09EF93C20FFF775FF0FE04FF4805184
:100C2000094800F093F93C20FFF76CFF4FF4805126
:100C3000054800F08DF90220FFF764FF6410681C7E
:100C4000C5B2082DD6DB70BD000C01400FB47CB5D9
:100C500004460A990898FFF7BDFA054609990798CE
:100C6000FFF7B8FA06462946FFF7AEFA0090DDE92D
:100C70000801FFF7AFFA05460A990798FFF7AAFAA5
:100C800006462946FFF74EFA0190DDE90001C4E966
:100C900000017CBC5DF814FB2DE9F04F91B00446D7
:100CA00000264FF480700E9040F2FF100D9000254A
:100CB0001CE0B5420FDA04EBC60103C9CDE9060119
:100CC00004EBC60004EBC50206CA06C004EBC5006F
:100CD000DDE9061206C00E9F04E0F61B384607EB5E
:100CE000D0714F10B742F8DD3E446D1C0D9885421F
:100CF000DFDB4FF400700F9001200C9002E00C98A5
:100D0000401C0C900F9800EBD07149100F910129F5
:100D1000F5D188467BE0A8F10100022101FA00F933
:100D2000484609EBD0714FEA610A4FF07E500A90B5
:100D300000200B905046FFF753FC02460B46CDE9CE
:100D4000000136483649FFF7CEFBCDE9020100F03D
:100D500001FECDE90401FFF7CFFC08905046FFF7F4
:100D60003FFC02460B46CDE900012C482C49FFF719
:100D7000BAFBCDE9020100F001FE81F00041CDE9AE
:100D80000401FFF7B9FC099000263AE035462CE053
:100D900005EB0A0B0B9804EBCB0C00900A9B06A802
:100DA000DCE90012FFF752FF54F835000699FFF70F
:100DB0000BFA44F83B0004EBC50207995068FFF7B3
:100DC00003FA04EBCB01486054F835000699FFF7AD
:100DD000A9F944F8350004EBC50207995068FFF7FC
:100DE000A1F904EBC50148604D44B5F5007FCFDBA8
:100DF000099800900AA8089BDDE90A12FFF726FF70
:100E0000761CAAF10100B042C0DA08F101080C9882
:100E1000804580DD11B0BDE8F08F0000182D4454EE
:100E2000FB2109402DE9F041024600250026002063
:100E300000230024002791F803C00CF00F0591F85F
:100E400003C00CF0100CBCF1000F03D091F802C0ED
:100E50004CEA050591F800C0BCF1000F31D01468D0
:100E600000202BE04FF0010C0CFA00F3B1F800C0A9
:100E70000CEA03069E4220D183004FF00F0C0CFABF
:100E800003F7BC4305FA03FC4CEA040491F803C0E1
:100E9000BCF1280F06D14FF0010C0CFA00FCC2F88F
:100EA00014C00AE091F803C0BCF1480F05D14FF01F
:100EB000010C0CFA00FCC2F810C0401C0828D1D369
:100EC0001460B1F800C0BCF1FF0F34DD546800209D
:100ED0002EE000F1080C4FF0010808FA0CF3B1F80D
:100EE00000C00CEA03069E4221D183004FF00F0C94
:100EF0000CFA03F7BC4305FA03FC4CEA040491F82E
:100F000003C0BCF1280F05D100F1080C08FA0CF859
:100F1000C2F8148091F803C0BCF1480F07D100F16A
:100F2000080C4FF0010808FA0CF8C2F81080401CB9
:100F30000828CED35460BDE8F081024600209368B3
:100F40000B400BB1012000E0002070474161704769
:100F50000161704700BFFEE710B5044694B18021DF
:100F60001448FFF7F5FF00F027F840211148FFF77C
:100F7000EFFF00F021F840210E48FFF7E7FF00F0F7
:100F80001BF815E080210B48FFF7E0FF00F014F894
:100F900040210848FFF7DCFF00F00EF8402105482B
:100FA000FFF7D4FF00F008F880210248FFF7D0FFD8
:100FB00010BD0000000C0140062000BF011EA0F182
:100FC0000102D0B2FAD1704708B50121082000F023
:100FD000A9FA14208DF803004020ADF8000003208A
:100FE0008DF8020069460548FFF71CFF8020ADF828
:100FF000000069460148FFF715FF08BD000C0140DD
:101000002DE9F0410446884616461F4600F0D4F804
:10101000E0B200F089F81A480078012802D10020D7
:10102000BDE8F08108F0FF0000F07EF81448007879
:10103000012801D10020F3E700F0BEF8611CC8B21E
:1010400000F072F80E480078012801D10020E7E78F
:1010500000250FE000F046F806F8010B781EA842C4
:1010600003D10120FFF778FF02E00020FFF774FFB3
:10107000681C85B2BD42EDDB00F0B8F80120CFE777
:101080002800002070B504460D4600F095F8E0B247
:1010900000F04AF812480078012801D1002070BD04
:1010A000284600F041F80E480078012801D10020C0
:1010B000F5E700F081F8611CC8B200F035F8084887
:1010C0000078012801D10020E9E700F00BF806467E
:1010D0000120FFF741FF00F089F83046DFE700000C
:1010E0002800002070B50024002516E06006040EDC
:1010F00040210C48FFF72CFFFFF75EFF80210948D5
:10110000FFF71BFF08B1601CC4B240210548FFF780
:101110001DFFFFF751FF681CC5B2082DE6DB204616
:1011200070BD0000000C014070B5044600251DE0B4
:1011300004F0800020B180211D48FFF709FF03E083
:1011400080211B48FFF702FFFFF736FF40211848B8
:10115000FFF7FEFEFFF730FF40211548FFF7F6FED0
:10116000FFF72AFF6006040E681CC5B2082DDFDBFE
:1011700080210F48FFF7ECFEFFF71EFF40210C48CF
:10118000FFF7E6FEFFF718FF80210948FFF7D5FEBD
:1011900018B101200749087002E0002005490870D5
:1011A00040210348FFF7D2FEFFF706FF70BD0000A5
:1011B000000C01402800002010B540210A48FFF72C
:1011C000C7FE80210848FFF7C3FEFFF7F5FE802128
:1011D0000548FFF7BBFEFFF7EFFE40210248FFF78F
:1011E000B5FEFFF7E9FE10BD000C014010B58021EF
:1011F0000748FFF7ABFE40210548FFF7A9FEFFF7C0
:10120000DBFE80210248FFF7A3FEFFF7D5FE10BDED
:10121000000C014070B504460D461646FFF7CCFFA2
:10122000E0B2FFF781FF0E480078012801D10020CD
:1012300070BD2846FFF778FF09480078012801D1E2
:101240000020F5E73046FFF76FFF054800780128DA
:1012500001D10020ECE7FFF7C9FF0120E8E700001B
:101260002800002010B5C0220221AE20FFF7D2FFD7
:1012700000220321AE20FFF7CDFF00220421AE2083
:10128000FFF7C8FF00220521AE20FFF7C3FF0022B1
:101290000621AE20FFF7BEFF0F220821AE20FFF788
:1012A000B9FF03220921AE20FFF7B4FF27220A214C
:1012B000AE20FFF7AFFF32220C21AE20FFF7AAFFCE
:1012C00032220D21AE20FFF7A5FF7F221021AE2094
:1012D000FFF7A0FF10BD000008B50121082000F0B5
:1012E00021F904208DF80300C001ADF80000694623
:1012F0000148FFF797FD08BD000C014010B54022E2
:101300000921AE20FFF786FF08B1012010BD0020A3
:10131000FCE700BFFEE7704710B5AE220021782041
:10132000FFF778FF202200217820FFF773FF0022CB
:1013300011467820FFF76EFFB02200217820FFF7DA
:1013400069FFC82200217820FFF764FF00221146C0
:101350007820FFF75FFF102200217820FFF75AFF67
:10136000402200217820FFF755FF812200217820BC
:10137000FFF750FFDF2200217820FFF74BFFA1226B
:1013800000217820FFF746FFA62200217820FFF7F2
:1013900041FFA82200217820FFF73CFF3F220021D7
:1013A0007820FFF737FFA42200217820FFF732FFD3
:1013B000D32200217820FFF72DFF0022114678204C
:1013C000FFF728FFD52200217820FFF723FFF02226
:1013D00000217820FFF71EFFD92200217820FFF797
:1013E00019FF222200217820FFF714FFDA220021C2
:1013F0007820FFF70FFF122200217820FFF70AFF65
:10140000DB2200217820FFF705FF20220021782031
:10141000FFF700FF8D2200217820FFF7FBFE14224A
:1014200000217820FFF7F6FEAF2200217820FFF799
:10143000F1FE10BD0FB42DE9F0439BB00446884681
:10144000002625A8019002A8019A249900F0AEFB7D
:10145000002001900DF1080955E027463CE007F116
:10146000B000C2B200217820FFF7D4FE08F00F02CE
:1014700000217820FFF7CEFE102000EB281200217B
:101480007820FFF7C7FEA74210D100250CE099F89D
:1014900000002038214901EB0010425D40217820F6
:1014A000FFF7B8FE681CC5B2082DF0DB601C874250
:1014B00010D108250CE099F800002038174901EBFD
:1014C0000010425D40217820FFF7A4FE681CC5B2E1
:1014D000102DF0DB781CC7B2A01C8742BFDB701C4C
:1014E000C6B208F1080000F0FF08F11706EB117111
:1014F0000911A6EB011109B9A01CC4B2402E00D1FC
:1015000005E009F1010999F800000028A5D100BF04
:101510001BB0BDE8F0035DF814FB00007C2E000852
:101520007047000029B1064A92690243044B9A6150
:1015300004E0034A92698243014B9A6170470000BC
:101540000010024030B500210022002400232D4D60
:101550006D6805F00C0121B1042905D0082923D1BB
:1015600005E0294D056022E0274D05601FE0254D6F
:101570006D6805F47012234D6D6805F48034022502
:1015800005EB92421CB9214D554305600BE01D4D02
:101590006D6805F400351DB11C4D5543056002E032
:1015A000194D5543056002E0174D056000BF00BFAF
:1015B000144D6D6805F0F0010909154D6B5C056867
:1015C000DD4045600F4D6D6805F4E061090A104D7E
:1015D0006B5C4568DD4085600A4D6D6805F46051BF
:1015E000C90A0B4D6B5C4568DD40C560054D6D68F3
:1015F00005F44041890B074D6B5CC568B5FBF3F5FD
:10160000056130BD0010024000127A0000093D0063
:101610001400002024000020704710B500F002F8EC
:1016200010BD00000CB50020019000903348006808
:1016300040F480303149086000BF3048006800F451
:10164000003000900198401C0190009818B9019852
:10165000B0F5A06FF1D12948006800F4003010B156
:101660000120009001E0002000900098012843D163
:101670002348006840F010002149086008460068CF
:1016800020F0030008600846006840F0020008608F
:101690001A4840681949486008464068486008464A
:1016A000406840F4806048600846406820F47C1040
:1016B00048600846406840F4E81048600846006802
:1016C00040F08070086000BF0C48006800F00070B7
:1016D0000028F9D00948406820F003000749486015
:1016E0000846406840F00200486000BF0348406878
:1016F00000F00C000828F9D10CBD000000100240D9
:101700000020024030B50146B1F1807F01D30120B5
:1017100030BD21F07F40401E4FF0E0225061501755
:101720000F22002807DA13071D0E094B00F00F04E3
:10173000241F1D5503E013071C0E064B1C5400BF4D
:1017400000204FF0E0229061072010610020DFE7C9
:1017500018ED00E000E400E07047000010B5134809
:10176000006840F0010011490860084640681049CF
:1017700008400E494860084600680E4908400B4979
:1017800008600846006820F4802008600846406829
:1017900020F4FE0048604FF41F008860FFF73DFF13
:1017A0004FF000600449086010BD000000100240C6
:1017B0000000FFF8FFFFF6FE08ED00E000B585B081
:1017C00001210420FFF7AEFE01218803FFF7AAFEE6
:1017D00018208DF813004FF40070ADF810000320AE
:1017E0008DF8120004A91348FFF71CFB04208DF8A4
:1017F00013000002ADF8100004A90E48FFF712FB19
:101800004FF4E13000900020ADF80C000C20ADF852
:101810000A000020ADF80800ADF80600ADF804009D
:101820006946054800F024F80121034800F006F855
:1018300005B000BD000801400038014021B1828997
:1018400042F40052828104E082894DF6FF731A400F
:101850008281704702460020B1F5007F00D100BFB1
:1018600013880B400BB1012000E0002070470000FE
:101870002DE9F04786B005460E460024A24600BF7B
:10188000A1460027B08900B100BF2F462C8A4CF634
:10189000FF700440F08804432C82AC894EF6F310AC
:1018A0000440B08831890843718908430443AC81FE
:1018B000AC8A4FF6FF400440B0890443AC8201A8D3
:1018C000FFF740FE1F48874202D1DDF810A001E07B
:1018D000DDF80CA0A88900F4004040B10AEBCA0072
:1018E00000EB0A1031684900B0FBF1F807E00AEBA1
:1018F000CA0000EB0A1031688900B0FBF1F86420DF
:10190000B8FBF0F004012009642101FB1089A889CB
:1019100000F4004040B1322000EBC900B0FBF1F010
:1019200000F00700044308E0322000EB09106421B6
:10193000B0FBF1F000F00F0004432C8106B0BDE8CD
:10194000F087000000380140C1F308028280704730
:1019500000BFFEE72DE9F04104460D46054A064B5F
:1019600020462946FEF7A6FC064600F007F8BDE82B
:10197000F0810000182D4454FB21F93F2DE9F04F70
:1019800093B004460D464FF0000B0022134620464C
:101990002946FEF781FE03D24FF0010B85F000458A
:1019A000704A714B2046294601F006FA04460D465E
:1019B0006C4A6E4B20462946FEF786FE0ED2BBF1DE
:1019C000000F01D1012000E000208346654A674BEB
:1019D00020462946FEF70FFD04460D46614A644B3A
:1019E00020462946FEF770FE07D25E4A5F4B20462E
:1019F0002946FEF703FD04460D465E4A5E4B20462F
:101A00002946FEF770FDCDE90E01FEF713FE824672
:101A10005046FEF7E5FD574A574BCDE90C01FEF75E
:101A2000F0FC22462B46CDE90E01FEF7E7FC064608
:101A30000F46504A514B30463946FEF745FE09D213
:101A40000AF1010A4B4A4C4B30463946FEF7D3FCAB
:101A500006460F464A4800EBCA00D0E90089CAF1A1
:101A60006400474901EBC00003C8CDE910013246CC
:101A70003B4630463946FEF7C4FC32463B46CDE98C
:101A80000401FEF7BEFC32463B46CDE90601FEF7F7
:101A9000B8FC42464B46CDE90801FEF7B2FC0022F5
:101AA000384BCDE90A01FEF71EFD32463B46CDE933
:101AB0000E0130463946FEF7A4FC32463B46CDE9DE
:101AC0000201FEF79EFCCDE90401DDE91023FEF7DB
:101AD00098FC00222C4BCDE90601FEF704FD3246AE
:101AE0003B46CDE90A0130463946FEF78AFC4246BC
:101AF0004B46CDE90001FEF784FC00224FF0804305
:101B0000CDE90201FEF7EFFCCDE90601304639468A
:101B1000DDE91023FEF775FC42464B46CDE9020194
:101B2000FEF7C8FBCDE90401DDE90623FEF763FCFF
:101B3000CDE90801DDE90A23FEF75DFCCDE90C01E2
:101B4000DDE90E23FEF7B6FB04460D46BBF1000FA0
:101B500005D0204685F0004113B0BDE8F08F204647
:101B60002946F9E7182D4454FB211940FB2109406F
:101B7000FB21F93F1A271792BF15903FBF15803FF1
:101B80007034000800003840000018400FB4054BC6
:101B900010B503A9044A029800F0F2F810BC5DF8F1
:101BA00014FB00000D2C00084400002037B514463B
:101BB0000846064B6A46214600F0E2F804466946AC
:101BC000002000F074FC20463EBD0000AF24000859
:101BD00002E008C8121F08C1002AFAD170477047F6
:101BE000002001E001C1121F002AFBD17047000054
:101BF0000149086070470000480000202DE9FF5FA0
:101C000082B00021DDE90430020DDDF840B003436D
:101C100018D044F61050A2F2FF3242431514119826
:101C200001281FD0A5EB0B00401C5FEA000A4FF013
:101C300000064E4FDFF83891B046504615D5CAF130
:101C4000000413E0119801244AA3012801D16FEA8E
:101C50000B010298119AC0E90031C0E9024206B0B6
:101C6000BDE8F09FCBF10000DFE704460021404AC9
:101C7000491842EB0450CDE9001012E0E00707D00C
:101C800032463B4640464946FEF7BBFB8046894606
:101C900032463B4610461946FEF7B3FB06460F4652
:101CA0006410002CEAD1DDE90401DDE90023BAF17A
:101CB000000F06DAFEF7A5FB42464B46FEF7A1FBF6
:101CC00005E0FEF710FC42464B46FEF70CFC0446CE
:101CD0000E460022284BFEF7F7FC03D84FF0FF30EA
:101CE000014607E00022254B20463146FEF7E2FA86
:101CF000FEF763FE102409E0002C0ADB0A22002311
:101D0000FEF736FD039B30321A55641E50EA01027D
:101D1000F2D1641C039AC4F111031444119A012AEC
:101D200003D0012208430DD10AE0084304D000206B
:101D30004FF0110B119072E7A3EB0B056D1E0DE038
:101D40005B4504DD4FF0000205F1010504E003DA14
:101D50004FF00002A5F10105002AECD0029811997C
:101D6000C0E90231C0E9004579E7000000001440F5
:101D70000000F03F300000000000F0430000E03FB2
:101D80002DE9FF4F95B09B468946064600250FE298
:101D9000252877D100242746F84A0121059400E040
:101DA000044316F8013F203B01FA03F01042F7D13B
:101DB00030782A2811D06FF02F033078A0F130024C
:101DC000092A16D8059A44F0020402EB820203EBBA
:101DD00042021044761C0590EFE759F8042B059257
:101DE000002A03DA504244F40054059044F00204FF
:101DF000761C30782E2816D116F8010F44F0040412
:101E00002A280DD06FF02F023078A0F13003092B73
:101E100009D807EB870302EB4303C718761CF3E7E7
:101E200059F8047B761C30786C280FD006DC4C28DF
:101E300017D068280DD06A2814D104E0742810D077
:101E40007A280FD10DE044F400140AE044F4801421
:101E500001E044F440147278824202D104F5801407
:101E6000761C761C307866280BD013DC582877D087
:101E700009DC002875D04528F6D04628F4D047283C
:101E80001AD19DE118E0632835D0642879D06528FF
:101E900012D195E1702873D008DC6728F1D0692849
:101EA0006FD06E280DD06F2806D1B5E073282CD0E6
:101EB000752875D0782874D05A46179990476D1CAC
:101EC00075E1C4F30250022809D003280DD0D9F8D7
:101ED000001004280DD00D6009F1040967E1D9F85C
:101EE0000010EA17C1E90052F6E7D9F800100D809A
:101EF000F2E70D70F0E719F8041B8DF800100020D0
:101F00008DF80100EA46012003E059F804AB4FF0D8
:101F1000FF3061074FF0000102D40DE008F101012C
:101F20008846B9420FDA8045F8DB1AF80810002914
:101F3000F4D108E008F1010188468142FADB1AF881
:101F400008100029F6D105985B46A0EB080721464A
:101F50003846179A00F094FA284400EB080507E089
:101F60004DE029E10DE01AF8010B5A461799904708
:101F7000B8F10108F7D25B4621463846179A13E1BB
:101F800042E00A220092C4F302524FF0000A022AF1
:101F900008D059F804CB032A4FEAEC710AD00DE0BF
:101FA00029E02AE009F1070121F00702F2E802C165
:101FB000914609E00FFA8CFC4FEAEC71042A03D138
:101FC0004FFA8CFC4FEAEC71002907DA0A4600212F
:101FD000DCF1000C61EB02012D2202E0220504D5A8
:101FE0002B228DF80420012203E0E20701D02022F9
:101FF000F7E7904659E00A2102E010220DE0102197
:102000004FF0000A00910BE010224FF0000A44F05C
:1020100004040827009203E008224FF0000A00920F
:10202000C4F30252022A05D059F804CB0021032A36
:1020300008D009E009F1070121F00702F2E802C126
:10204000914605E01FFA8CFC042A01D10CF0FF0C2C
:102050004FF00008220728D5702806D0009B83F097
:10206000100353EA0A0305D00EE040228DF8042045
:10207000012208E05CEA010206D030228DF804203B
:102080008DF8050002229046009B83F0080353EA76
:102090000A030AD15CEA010201D1620705D53022A8
:1020A0008DF804204FF001087F1E582804D034A07A
:1020B00003900EA802900DE036A0F9E75346604663
:1020C000009AFEF755FB84460398825C0298401EF6
:1020D000029002705CEA0100F0D1029806A9081A89
:1020E00000F1200A600702D524F4803400E00127C3
:1020F000574502DDA7EB0A0000E0002000EB0A01D3
:10210000009005984144401A0590E00306D45B46D0
:102110002146179A059800F0B3F90544002706E018
:1021200001A85A46C05D179990476D1C7F1C474512
:10213000F6DBE0030CD55B462146179A059800F0C4
:102140009FF9054404E030205A46179990476D1CCA
:102150000099481E00900029F5DC08E002980299D9
:102160005A460078491C0291179990476D1CBAF1A4
:102170000001AAF1010AF1DC65E100000928010073
:1021800030313233343536373839616263646566ED
:1021900000000000303132333435363738394142AF
:1021A000434445460000000000F058F90544761C01
:1021B000307800287FF4ECAD19B02846BDE8F08FE8
:1021C000620700D4062709F1070222F0070CFCE899
:1021D0000223E14603F000485FEA080C02D00FF248
:1021E000702C0DE05FEA045C02D50FF2682C07E06A
:1021F0005FEAC47C02D00FF2602C01E0AFF2700CF9
:102200004FF0FF3823F00043CDF850C065280CD0C4
:1022100006DC452809D046281DD047283DD13DE0A1
:10222000662818D067287ED138E00021112F01DB05
:10223000112000E0781CCDE9000106A90EA8FFF7E7
:10224000DDFCDDE90F010E9A03910021009207F1F8
:10225000010A04914DE04FF000400097CDE90110D4
:1022600006A90EA8FFF7CAFCDDE90F0203920E9B38
:1022700011990022DDF80CA00093049211B9791C89
:1022800000EB010AB7EB0A0004D4C0F1FF3007F1FC
:10229000010A0490AAEB0700019044E0012F00DA44
:1022A00001270021112F01DD112000E03846CDE982
:1022B000000106A90EA8FFF7A1FCDDE90F010E9AA7
:1022C0000391002104910092BA4621070CD403998E
:1022D000514500DA8A46BAF1010F05DD009AAAF1EC
:1022E0000101515C302908D0B84202DA10F1040F24
:1022F00006DA0121CDE9011015E0AAF10101E9E7B3
:10230000002805DC049901440491AAEB000102E0D5
:10231000411C514500DD8A460499401A401C019039
:102320004FF000400290200704D40198504501DB93
:10233000CDF8048000208DF84F0002980DF14F0772
:10234000B0F1004F25D02B200E9002984FF00208DC
:1023500000280CDA404202902D200E9007E00A215E
:102360000298FEF7EFF93031029007F8011DB8F13D
:102370000001A8F10108F2DC02980028EFD1791ED3
:102380000E980870307800F0200040F0450007F803
:10239000020D12A8C01B00F107081498007800B1C4
:1023A000012000EB0A01019801EBE071059841441E
:1023B000401A401E0590E00306D45B462146179A5A
:1023C000059800F05DF805441498007818B15A4655
:1023D000179990476D1CE00324D55B462146179A58
:1023E000059800F04DF805441CE00498002807DB30
:1023F000DDE90301884203DD0098405C179901E0A4
:10240000179930205A469047049805F10105401C61
:1024100004900198401E019004D12E205A4617992D
:1024200090476D1CBAF10001AAF1010ADDDC05E05C
:1024300017F8010B5A46179990476D1CB8F1000127
:10244000A8F10108F4DC5B462146179A0598ABE633
:102450002D0000002B000000200000002DE9F041BD
:10246000044600251E461746880404D405E0394674
:102470002020B0476D1C641EF9D52846BDE8F081C8
:102480002DE9F041044600251E469046C80301D5BB
:10249000302700E02027880404D505E0414638466F
:1024A000B0476D1C641EF9D52846BDE8F0810A6866
:1024B000531C0B60107070472DE9FC4100F0DEFAF0
:1024C00000F060F81D481EA2002103680220FEF7FC
:1024D000B1FF1A494868FEF7CCF806461C4A1D4B66
:1024E000FEF7F2F802D21A481A4903E01349486885
:1024F000FEF7BFF80446FEF7FFF810494860486849
:10250000FEF7B7F814A2CDE9000100210420FEF780
:1025100091FF0A48016814A0FFF738FB0A20FEF774
:10252000CDFA06494868FEF7A4F8044622460B4651
:1025300010A0FFF72BFBBDE8FC8100003C00002051
:1025400068656172743A2533642F6D696E202000CE
:102550008FC2F5285CFF584053704F323A25322E17
:102560003266252520200000D6B8C1EED0C4C2CAEC
:1025700025336400D6B8C1EED1AAD1F525302E326C
:10258000660000002DE9F04F91B00026B146002012
:102590000F900E9000240EE0FE4850F834103046A4
:1025A000FDF7C0FD0646FC4850F834104846FDF7DC
:1025B000B9FD8146641CB4F5007FEDD34FF088412E
:1025C0003046FDF739FE06464FF088414846FDF794
:1025D00033FE8146002412E0EE4951F834003146C2
:1025E000FDF7F2FDEB4941F83400EB4951F83400B6
:1025F0004946FDF7E9FDE84941F83400641CB4F5AB
:10260000007FE9D3E548FFF7C1FA01244EE0E14835
:1026100050F834104FF08040FDF7DCFD8046601E1E
:10262000DC4A52F830104046FDF77CFD0746D94A97
:10263000601C52F830103846FDF774FD1090109869
:10264000FEF717F80022D64BCDE90A01FDF74BFF44
:102650000746FEF751F8CF4941F83400CE4850F80C
:1026600034104FF08040FDF7B5FD8046601ECA4A29
:1026700052F830104046FDF755FD0746C64A601C2B
:1026800052F830103846FDF74DFD10901098FDF7C8
:10269000F0FF0022C24BCDE90A01FDF724FF0746F7
:1026A000FEF72AF8BC4941F83400641CB4F5FF7FFA
:1026B000ADD900249DE0B74B621C53F832101A4686
:1026C00052F83400FDF72EFDB24A0890A01C52F8D3
:1026D00030100898FDF726FDAE4A0990E01C52F82C
:1026E00030100998FDF71EFDAA4A0A90201D52F8E5
:1026F00030100A98FDF716FDA64A0B90601D52F89F
:1027000030100B98FDF70EFD8046A24AA01D52F82E
:1027100030104046FDF706FD07469E4AE01D52F880
:1027200030103846FDF7FEFC10901098FDF7A1FF21
:1027300000229C4BCDE90A01FDF7D5FE0746FDF7C7
:10274000DBFF944941F83400934B621C53F832107C
:102750001A4652F83400FDF7E5FC8F4A0890A01C99
:1027600052F830100898FDF7DDFC80468A4AE01CDC
:1027700052F830104046FDF7D5FC874A0990201DDD
:1027800052F830100998FDF7CDFC834A0A90601D7D
:1027900052F830100A98FDF7C5FC07467E4AA01D86
:1027A00052F830103846FDF7BDFC7B4A0B90E01D17
:1027B00052F830100B98FDF7B5FC10901098FDF70B
:1027C00058FF0022774BCDE90A01FDF78CFE074642
:1027D000FDF792FF704941F834006E4951F834001A
:1027E000FDF747FF07463A460B466FA0FFF7CEF9C5
:1027F000641CB4F5FC7FFFF45EAF6D48FFF7C6F9CB
:1028000000240BE0644951F83400FDF732FF07461D
:102810003A460B4664A0FFF7B9F9641CB4F5007F93
:10282000F0D36448FFF7B2F90020634908605948C3
:10283000FEF732FA5848FEF72FFA6048FFF7A6F97C
:10284000002438E0534A02EBC4025168514A02EBBB
:10285000C4025068FDF7BEFC80464E4A52F8341060
:1028600052F83400FDF7B6FC41460B90FDF75AFCD8
:10287000074600F0EDFA474941F83400464A02EBBA
:10288000C4025168444A02EBC4025068FDF7A2FC3E
:102890008046414A52F8341052F83400FDF79AFC51
:1028A00041460B90FDF73EFC074600F0D1FA39494E
:1028B00041F83400641CB4F5007FC3D301240EE05A
:1028C000344850F834100F98FDF72CFC0F90324824
:1028D00050F834100E98FDF725FC0E90641CB4F5EA
:1028E000007FEDD300240BE02A4951F83400FDF7B6
:1028F000C0FE07463A460B462BA0FFF747F9641C7B
:10290000FF2CF1D92E48FFF741F900240BE02249B2
:1029100051F83400FDF7ADFE07463A460B4622A0BB
:10292000FFF734F9641CFF2CF1D92648FFF72EF984
:102930001E21184800F051F90D901E21164800F094
:102940004CF90C9020A00D99FFF720F91EA00C99CE
:10295000FFF71CF90D98FDF743FE074600221C4BBC
:10296000FDF74FFD00224FF08143CDE90601FDF751
:10297000BAFD0022174BCDE90801FDF742FDCDE974
:102980000A01FDF7B9FE82465046FDF73AFE1249AC
:10299000086023E04C000020CC100020B43900086F
:1029A000000010400000204025660D0A00000000D5
:1029B000503900088C380008300000201838000812
:1029C000F43800089837000825640D0A000000005C
:1029D0000000594000004E403C00002049460F983E
:1029E000FDF7F8FB074631460E98FDF7F3FB8046EE
:1029F0003946FDF721FC83465846FDF73AFE074667
:102A0000174A184BFDF7FDFCCDE906015846FDF7C6
:102A100030FECDE902015846FDF72BFE124A134B5A
:102A2000CDE90001FDF7EDFC0746DDE90223FDF7E6
:102A3000E8FCCDE90401DDE90623FDF73BFC0C4A87
:102A40000C4BCDE90801FDF735FCCDE90A01FDF796
:102A500053FE054608494D6011B0BDE8F08F0000F7
:102A6000B4C876BE9F5A3E4048E17A14AE8746C04D
:102A7000AE47E17A14B657403C00002010B5002064
:102A80001D49086031E029E000F00AF91A480068A1
:102A9000B0F5007F22D219480088FDF79CFD184947
:102AA000154A126841F832000020134A126801EBFF
:102AB000C201486013480088FDF78DFD12490E4A97
:102AC000126841F8320000200B4A126801EBC20183
:102AD000486009480068401C074908604FF40071CD
:102AE0000A48FEF72AFA0028CED003480068B0F55D
:102AF000007FC8D310BD0000300000202A00002055
:102B00004C0000202C000020CC100020000C0140C4
:102B10002DE9FC410024FDF77DFF0546FDF752FD40
:102B200004462046FDF7A5FD054600220F4BFDF7A4
:102B300068FC0746FDF7E0FD04462046FDF799FDD9
:102B400005462A460B460AA0FFF720F82046FDF767
:102B500090FD0BA2CDE9000100210846FEF76AFCBA
:102B6000C820FDF7ABFFBDE8FC8100000000B03FCE
:102B7000D6B8C1EECEC2B6C825302E3266000000EF
:102B800054656D703A25302E3266604300000000B7
:102B900070B5054600241DE004F1B000C2B200216A
:102BA0007820FEF737FB002211467820FEF732FB33
:102BB000102200217820FEF72DFB002606E02A4691
:102BC00040217820FEF726FB701CC6B2802EF6DB73
:102BD000601CC4B2082CDFDB70BD2DE9F041054656
:102BE0000E460424274655F8348000BF09E055F806
:102BF00034104046FDF79CFD02D255F8348027463C
:102C0000641CB442F3DB3846BDE8F08170B504467D
:102C10000D46E1B20548FEF797FE00BF802103484C
:102C2000FEF718FE0028F9D0204670BD003801409C
:102C30000024FEF7C3FD14A0FEF7A8FFFEF7C4F9B9
:102C4000FEF76AFB0020FFF7A3FFFDF7A7FFFDF7E4
:102C5000E1FEFEF741FBFEF751FBFEF703FB00BF71
:102C60000AE001E000F01CF84FF400710B48FEF799
:102C700064F90028F6D0641C802CF2DB03E0FFF737
:102C800047FFFFF719FCFAE7D5E2CAC7B4AEBFDACF
:102C9000B5F7CAD4D6FACAD60D0A0000000C014016
:102CA0001CB500202F4908802F4908800021AE2044
:102CB000FEF7E8F90121AE20FEF7E4F907208DF8D0
:102CC000000006236A460721AE20FEF799F99DF819
:102CD00000404FF6FF7000EA843422480088204408
:102CE000204908809DF801404FF6FF7000EA8414E7
:102CF00008460088204408809DF80240A410084639
:102D00000088204408809DF803404FF6FF7000EAD9
:102D10008434154800882044134908809DF80440F5
:102D20004FF6FF7000EA84140846008820440880AB
:102D30009DF80540A41008460088204408800846F5
:102D4000008842F21071884202DC002006490880A7
:102D50000448008842F21071884202DC00200149D8
:102D600008801CBD2A0000202C0000202DE9FC4119
:102D700004460D46CDE90045019800F0004080B1C1
:102D800020462946FDF756FC8046FDF71BFC07460A
:102D90004FF07E51FDF718FA0646FDF76AFCBDE8D4
:102DA000FC8120462946FDF745FC0746FDF70AFC55
:102DB0000646FDF75EFCF2E72DE9FC5F06460F468E
:102DC00014461D460022134620462946FDF764FCA2
:102DD00003D100200146BDE8FC9F22462B46304629
:102DE0003946FDF780FB8246FFF7C0FFCDE90001C1
:102DF00022462B46DDE90001FDF703FB8246324601
:102E00003B46FDF7FBFA80468946002213463046D2
:102E10003946FDF741FC02D24FF0010A01E04FF0C4
:102E2000000A0022134620462946FDF735FC01D250
:102E3000012000E00020824507D022462B46404674
:102E40004946FDF7D8FA8046894640464946C2E7DA
:102E500070B50546FDF725FD044620F00040C0F1A1
:102E6000FF40C00F08D025F00040C0F1FF40C00F68
:102E700004BF0120FEF7BCFE204670BD000000002C
:102E8000000000000000000000000000000000F84A
:102E900000000000000000330000000000100C02E1
:102EA000100C020000000000000000000040C0788C
:102EB00040C0780000043F04043F0400007088888C
:102EC000FC08300000182020FF211E00F008F080D0
:102ED0006018000000310C031E211E0000F008885D
:102EE000700000001E21232C1927211000120E0053
:102EF000000000000000000000000000000000E0F2
:102F00001804020000000007182040000002041806
:102F1000E00000000040201807000000404080F062
:102F2000804040000202010F010202000000000088
:102F3000E0000000000101010F010101000000009C
:102F40000000000000907000000000000000000081
:102F5000000000000001010101010100000000006B
:102F60000000000000303000000000000000000001
:102F7000C0380400006018070000000000E01008DE
:102F80000810E000000F102020100F0000001010AB
:102F9000F8000000000020203F20200000700808FA
:102FA0000808F000003028242221300000300808F2
:102FB000088870000018202121221C000000804099
:102FC00030F8000000060524243F242400F88888F7
:102FD000880808000019202020110E0000E0108849
:102FE00088900000000F112020201F000018080802
:102FF000886818000000003E01000000007088088A
:1030000008887000001C222121221C0000F0080802
:103010000810E0000001122222110F00000000C081
:10302000C000000000000030300000000000008000
:1030300000000000000000E00000000000008040F0
:103040002010080000010204081020000040404049
:10305000404040000002020202020200000810206C
:1030600040800000002010080402010000704808A1
:10307000088870000000003037000000C030C82809
:10308000E810E000071827282F2817000000C03894
:10309000E0000000203C23020227382008F888883E
:1030A00088700000203F202020110E00C03008084A
:1030B00008083800071820202010080008F8080821
:1030C0000810E000203F202020100F0008F888881A
:1030D000E8081000203F20202320180008F88888E6
:1030E000E8081000203F200003000000C03008085E
:1030F0000838000007182020221E020008F80800E7
:103100000008F808203F210101213F20000808F8AD
:10311000080800000020203F2020000000000808D0
:10312000F8080800C08080807F00000008F888C090
:1031300028180800203F20012638200008F8080041
:1031400000000000203F20202020300008F8F80078
:10315000F8F80800203F013E013F200008F830C089
:103160000008F808203F200007183F00E01008087A
:103170000810E0000F10202020100F0008F80808A9
:103180000808F000203F210101010000E0100808BC
:103190000810E0000F10282830504F0008F88888E9
:1031A00088887000203F2000030C302000708808C1
:1031B000080838000038202121221C00180808F8CF
:1031C000080818000000203F2000000008F8080050
:1031D0000008F808001F202020201F000878880021
:1031E00000C83808000007380E01000008F800F891
:1031F00000F8080000033E013E0300000818688044
:103200008068180820302C03032C30200838C800B0
:10321000C83808000000203F2000000010080808FF
:10322000C83808002038262120201800000000FEA1
:10323000020202000000007F40404000000438C04D
:1032400000000000000000010638C0000002020279
:10325000FE000000004040407F000000000004022B
:103260000204000000000000000000000000000058
:103270000000000080808080808080800002020446
:10328000000000000000000000000000000080803E
:103290008000000000192424123F200010F000805C
:1032A00080000000003F112020110E00000000806F
:1032B00080800000000E112020201100000080807E
:1032C0008090F000001F202020103F200000808010
:1032D00080800000001F242424241700008080E048
:1032E000909020000020203F2020000000008080DF
:1032F00080808000006B94949493600010F00080B4
:1033000080800000203F210000203F20008098980E
:10331000000000000020203F20200000000000806E
:103320009898000000C08080807F000010F00000AE
:1033300080808000203F240629302000001010F8F3
:10334000000000000020203F2020000080808080BE
:1033500080808000203F20003F20003F8080008050
:1033600080800000203F210000203F20000080805E
:1033700080800000001F202020201F00808000800F
:103380008000000080FF912020110E0000000080CE
:1033900080008000000E11202091FF80808080003E
:1033A0008080800020203F212000010000008080DC
:1033B000808080000033242424241900008080E0D1
:1033C000808000000000001F20201000808000008E
:1033D00000808000001F202020103F20808080007F
:1033E0008080800000030C300C030000808000808F
:1033F00080008080010E300C07380601008080803C
:10340000008080000020310E2E312000808080005E
:10341000008080800081867818060100008080800E
:10342000808080000021302C22213000000000002C
:1034300000FC020200000000013E404000000000CD
:10344000FF00000000000000FF0000000202FC007E
:103450000000000040403E010000000000020102A8
:103460000204020000000000000000000000000054
:1034700000000000000000006F0EA6389415903F79
:103480006058F72D1215A03FAB047532561EA83FA9
:103490007993E01B0A13B03F498E3932E515B43FEA
:1034A000F017FC7F7B17B83FDA97623D8C17BC3F63
:1034B000E05BA15DEB0AC03FE9AA91330D09C23F71
:1034C0007553A8670B06C43F6C2377D3C501C63F6D
:1034D000797A03651CFCC73FA3DDCC20EFF4C93F1C
:1034E0006A1FD2231EECCB3FCCFB94A589E1CD3FD4
:1034F00096071CFA11D5CF3F4769F9C94BE3D03F76
:103500000E0E1483FDDAD13F1FFD24838ED1D23FEE
:103510004FE92F37EFC6D33FFB02711F10BBD43FDB
:10352000DD9657D0E1ADD53F4B667FF3549FD63F34
:1035300019A9A8485A8FD73F63A9AEA6E27DD83F04
:10354000C2E97CFCDE6AD93F63C602524056DA3FCC
:103550009D8125C9F73FDB3FC3ACB09EF627DC3F1A
:1035600001DE442B2E0EDD3F1FA444E48FF2DD3F2D
:1035700052A9BF5C0DD5DE3F24F65B4698B5DF3F10
:10358000E4A21E39114AE03F9C2EF5E84EB8E03F18
:10359000512B183C7E25E13F5CE9014D9891E13FBC
:1035A000EA00B04796FCE13F57BB116A7166E23F03
:1035B0005E5A750423CFE23F4136F479A436E33FE7
:1035C0000BACDD40EF9CE33F2AD520E3FC01E43F58
:1035D000BC01B5FEC665E43FEFEE004647C8E43FD8
:1035E000ECB240807729E53FF057EA895189E53F01
:1035F00014201155CFE7E53FA66BC7E9EA44E63F43
:10360000CD3B7F669EA0E63F664B6900E4FAE63F4D
:1036100016B8D203B653E73FA53581D40EABE73FCA
:10362000DCC50DEEE800E83F14EF3DE43E55E83F11
:10363000EA6B5B630BA8E83F844E8A3049F9E83FA8
:10364000F2911D2AF348E93F5714EA470497E93FEE
:10365000A8F4979B77E3E93FC94EF250482EEA3F22
:10366000095135AE7177EA3F17A65A14EFBEEA3F0B
:10367000862E64FFBB04EB3F4005A506D448EB3F14
:103680003CCA08DD328BEB3FF72E5951D4CBEB3FD0
:103690005AC0814EB40AEC3FA7E9D1DBCE47EC3FDC
:1036A0006C2C3D1D2083EC3F45899953A4BCEC3F15
:1036B0008C15DCDC57F4EC3F31BA5334372AED3F3C
:1036C000ED17E2F23E5EED3F468D32CF6B90ED3F5F
:1036D000E55AEF9DBAC0ED3FE3E2F45128EFED3F2C
:1036E000D8FF82FCB11BEE3F7E706CCD5446EE3F9E
:1036F000FF5444130E6FEE3FF5BA893BDB95EE3F66
:103700007235D1D2B9BAEE3F667EEC84A7DDEE3FCA
:10371000E01E101DA2FEEE3FCF1BF785A71DEF3F59
:10372000F8A404CAB53AEF3F14C46313CB55EF3F76
:10373000FF0925ACE56EEF3F21385AFE0386EF3FC7
:103740005CE42F94249BEF3FD015051846AEEF3F65
:1037500003D9805467BFEF3F03CAA53487CEEF3F3C
:103760005C93E3C3A4DBEF3FAF60262EBFE6EF3FE1
:10377000FE43E4BFD5EFEF3FD38C28E6E7F6EF3FFB
:1037800086109D2EF5FBEF3F12639147FDFEEF3F44
:10379000000000000000F03FBDE1CAF8464654CBEF
:1037A000E3B7A82A2A2A2A2A2A2A2A2A2A2A2A2AB5
:1037B0002A2A2A2A2A2A2A2A2A2A2A2A2A2A2A2A69
:1037C0002A2A2A2A2A2A2A2A2A2A2A2A2A2A2A2A59
:1037D0002A2A2A2A2A2A2A2A2A2A2A2A2A2A2A2A49
:1037E0002A2A2A2A2A2A2A2A2A2A2A2A2A2A2A2A39
:1037F0002A2A2A2A2A2A2A2A2A2A2A2A2A2A2A2A29
:103800002A2A2A2A2A2A2A2A2A2A2A2A2A2A2A2A18
:103810002A2A0D0A00000000BFAACABC464654CBA3
:10382000E3B7A82A2A2A2A2A2A2A2A2A2A2A2A2A34
:103830002A2A2A2A2A2A2A2A2A2A2A2A2A2A2A2AE8
:103840002A2A2A2A2A2A2A2A2A2A2A2A2A2A2A2AD8
:103850002A2A2A2A2A2A2A2A2A2A2A2A2A2A2A2AC8
:103860002A2A2A2A2A2A2A2A2A2A2A2A2A2A2A2AB8
:103870002A2A2A2A2A2A2A2A2A2A2A2A2A2A2A2AA8
:103880002A2A2A2A2A2A2A0D0A0000002A2A2A2A53
:103890002A2A2A2A2A2A2A2A2A2A2A2A2A2A2A2A88
:1038A0002A2A2A2A2A2A2A2A2A2A2A2A2A2A2A2A78
:1038B0002A2A2A2A2A2A2A2A2A2A2A2A2A2A2A2A68
:1038C0002A2A2A2A2A2A2A2A2A2A2A2A2A2A2A2A58
:1038D0002A2A2A2A2A2A2A2A2A2A2A2A2A2A2A2A48
:1038E0002A2A2A2A2A2A2A2A2A2A2A2A2A2A0D0A75
:1038F000000000002A2A2A2A2A2A2A2A2A2A2A2AD0
:103900002A2A2A2A2A2A2A2A2A2A2A2A2A2A2A2A17
:103910002A2A2A2A2A2A2A2A2A2A2A2A2A2A2A2A07
:103920002A2A2A2A2A2A2A2A2A2A2A2A2A2A2A2AF7
:103930002A2A2A2A2A2A2A2A2A2A2A2A2A2A2A2AE7
:103940002A2A2A2A2A2A2A2A2A2A2A2A0D0A000068
:103950002A2A2A2A2A2A2A2A2A2A2A2A3820707433
:10396000204D6F76696E67204176657261676520CC
:1039700069722A2A2A2A2A2A2A2A2A2A2A2A2A2A20
:103980002A2A2A2A2A2A2A2A2A2A2A2A2A2A2A2A97
:103990002A2A2A2A2A2A2A2A2A2A2A2A2A2A2A2A87
:1039A0002A2A2A2A2A2A2A2A2A2A2A2A2A2A2A0D94
:1039B0000A0000002A2A2A2A2A2A2A2A2A2A2A38F7
:1039C000207074204D6F76696E6720417665726154
:1039D0006765207265642A2A2A2A2A2A2A2A2A2A1C
:1039E0002A2A2A2A2A2A2A2A2A2A2A2A2A2A2A2A37
:1039F0002A2A2A2A2A2A2A2A2A2A2A2A2A2A2A2A27
:103A00002A2A2A2A2A2A2A2A2A2A2A2A0D0A0000A7
:103A1000303A0008000000204C000000D01B0008D5
:103A20007C3A00084C00002004250000E01B000840
:103A300000A24A040000000000000000010203048C
:103A40000607080900000000010203040102030444
:103A50000607080902040608000000000000000034
:103A60000000000000000000000000000000000056
:0C3A70000000000000000000000000004A
:04000005080000ED02
:00000001FF
